{"abi":[{"inputs":[{"internalType":"uint256","name":"minimun","type":"uint256"},{"internalType":"string","name":"nameCampaign","type":"string"}],"name":"createCampaign","outputs":[],"stateMutability":"nonpayable","type":"function"},{"inputs":[{"internalType":"uint256","name":"","type":"uint256"}],"name":"deployedCampaigns","outputs":[{"internalType":"address","name":"","type":"address"}],"stateMutability":"view","type":"function"},{"inputs":[],"name":"getDeployedCampaigns","outputs":[{"internalType":"address[]","name":"","type":"address[]"}],"stateMutability":"view","type":"function"}],"devdoc":{"kind":"dev","methods":{},"version":1},"evm":{"assembly":"    /* \"Campaing.sol\":57:462  contract CampaignFactory {... */\n  mstore(0x40, 0x80)\n  callvalue\n  dup1\n  iszero\n  tag_1\n  jumpi\n  0x00\n  dup1\n  revert\ntag_1:\n  pop\n  dataSize(sub_0)\n  dup1\n  dataOffset(sub_0)\n  0x00\n  codecopy\n  0x00\n  return\nstop\n\nsub_0: assembly {\n        /* \"Campaing.sol\":57:462  contract CampaignFactory {... */\n      mstore(0x40, 0x80)\n      callvalue\n      dup1\n      iszero\n      tag_1\n      jumpi\n      0x00\n      dup1\n      revert\n    tag_1:\n      pop\n      jumpi(tag_2, lt(calldatasize, 0x04))\n      shr(0xe0, calldataload(0x00))\n      dup1\n      0x339d50a5\n      eq\n      tag_3\n      jumpi\n      dup1\n      0x4220d656\n      eq\n      tag_4\n      jumpi\n      dup1\n      0x4acb9d4f\n      eq\n      tag_5\n      jumpi\n    tag_2:\n      0x00\n      dup1\n      revert\n        /* \"Campaing.sol\":88:122  address[] public deployedCampaigns */\n    tag_3:\n      tag_6\n      0x04\n      dup1\n      calldatasize\n      sub\n      dup2\n      add\n      swap1\n      tag_7\n      swap2\n      swap1\n      tag_8\n      jump\t// in\n    tag_7:\n      tag_9\n      jump\t// in\n    tag_6:\n      mload(0x40)\n      tag_10\n      swap2\n      swap1\n      tag_11\n      jump\t// in\n    tag_10:\n      mload(0x40)\n      dup1\n      swap2\n      sub\n      swap1\n      return\n        /* \"Campaing.sol\":129:342  function createCampaign(uint minimun, string memory nameCampaign) public {... */\n    tag_4:\n      tag_12\n      0x04\n      dup1\n      calldatasize\n      sub\n      dup2\n      add\n      swap1\n      tag_13\n      swap2\n      swap1\n      tag_14\n      jump\t// in\n    tag_13:\n      tag_15\n      jump\t// in\n    tag_12:\n      stop\n        /* \"Campaing.sol\":348:460  function getDeployedCampaigns() public view returns (address[] memory) {... */\n    tag_5:\n      tag_16\n      tag_17\n      jump\t// in\n    tag_16:\n      mload(0x40)\n      tag_18\n      swap2\n      swap1\n      tag_19\n      jump\t// in\n    tag_18:\n      mload(0x40)\n      dup1\n      swap2\n      sub\n      swap1\n      return\n        /* \"Campaing.sol\":88:122  address[] public deployedCampaigns */\n    tag_9:\n      0x00\n      dup2\n      dup2\n      sload\n      dup2\n      lt\n      tag_20\n      jumpi\n      0x00\n      dup1\n      revert\n    tag_20:\n      swap1\n      0x00\n      mstore\n      keccak256(0x00, 0x20)\n      add\n      0x00\n      swap2\n      pop\n      sload\n      swap1\n      0x0100\n      exp\n      swap1\n      div\n      0xffffffffffffffffffffffffffffffffffffffff\n      and\n      dup2\n      jump\t// out\n        /* \"Campaing.sol\":129:342  function createCampaign(uint minimun, string memory nameCampaign) public {... */\n    tag_15:\n        /* \"Campaing.sol\":212:231  address newCampaign */\n      0x00\n        /* \"Campaing.sol\":255:262  minimun */\n      dup3\n        /* \"Campaing.sol\":264:276  nameCampaign */\n      dup3\n        /* \"Campaing.sol\":278:288  msg.sender */\n      caller\n        /* \"Campaing.sol\":242:289  new Campaign(minimun, nameCampaign, msg.sender) */\n      mload(0x40)\n      tag_23\n      swap1\n      tag_24\n      jump\t// in\n    tag_23:\n      tag_25\n      swap4\n      swap3\n      swap2\n      swap1\n      tag_26\n      jump\t// in\n    tag_25:\n      mload(0x40)\n      dup1\n      swap2\n      sub\n      swap1\n      0x00\n      create\n      dup1\n      iszero\n      dup1\n      iszero\n      tag_27\n      jumpi\n      returndatasize\n      0x00\n      dup1\n      returndatacopy\n      revert(0x00, returndatasize)\n    tag_27:\n      pop\n        /* \"Campaing.sol\":212:290  address newCampaign = address(new Campaign(minimun, nameCampaign, msg.sender)) */\n      swap1\n      pop\n        /* \"Campaing.sol\":300:317  deployedCampaigns */\n      0x00\n        /* \"Campaing.sol\":323:334  newCampaign */\n      dup2\n        /* \"Campaing.sol\":300:335  deployedCampaigns.push(newCampaign) */\n      swap1\n      dup1\n      0x01\n      dup2\n      sload\n      add\n      dup1\n      dup3\n      sstore\n      dup1\n      swap2\n      pop\n      pop\n      0x01\n      swap1\n      sub\n      swap1\n      0x00\n      mstore\n      keccak256(0x00, 0x20)\n      add\n      0x00\n      swap1\n      swap2\n      swap1\n      swap2\n      swap1\n      swap2\n      0x0100\n      exp\n      dup2\n      sload\n      dup2\n      0xffffffffffffffffffffffffffffffffffffffff\n      mul\n      not\n      and\n      swap1\n      dup4\n      0xffffffffffffffffffffffffffffffffffffffff\n      and\n      mul\n      or\n      swap1\n      sstore\n      pop\n        /* \"Campaing.sol\":202:342  {... */\n      pop\n        /* \"Campaing.sol\":129:342  function createCampaign(uint minimun, string memory nameCampaign) public {... */\n      pop\n      pop\n      jump\t// out\n        /* \"Campaing.sol\":348:460  function getDeployedCampaigns() public view returns (address[] memory) {... */\n    tag_17:\n        /* \"Campaing.sol\":401:417  address[] memory */\n      0x60\n        /* \"Campaing.sol\":436:453  deployedCampaigns */\n      0x00\n        /* \"Campaing.sol\":429:453  return deployedCampaigns */\n      dup1\n      sload\n      dup1\n      0x20\n      mul\n      0x20\n      add\n      mload(0x40)\n      swap1\n      dup2\n      add\n      0x40\n      mstore\n      dup1\n      swap3\n      swap2\n      swap1\n      dup2\n      dup2\n      mstore\n      0x20\n      add\n      dup3\n      dup1\n      sload\n      dup1\n      iszero\n      tag_30\n      jumpi\n      0x20\n      mul\n      dup3\n      add\n      swap2\n      swap1\n      0x00\n      mstore\n      keccak256(0x00, 0x20)\n      swap1\n    tag_31:\n      dup2\n      0x00\n      swap1\n      sload\n      swap1\n      0x0100\n      exp\n      swap1\n      div\n      0xffffffffffffffffffffffffffffffffffffffff\n      and\n      0xffffffffffffffffffffffffffffffffffffffff\n      and\n      dup2\n      mstore\n      0x20\n      add\n      swap1\n      0x01\n      add\n      swap1\n      dup1\n      dup4\n      gt\n      tag_31\n      jumpi\n    tag_30:\n      pop\n      pop\n      pop\n      pop\n      pop\n      swap1\n      pop\n        /* \"Campaing.sol\":348:460  function getDeployedCampaigns() public view returns (address[] memory) {... */\n      swap1\n      jump\t// out\n    tag_24:\n      dataSize(sub_0)\n      dup1\n      dataOffset(sub_0)\n      dup4\n      codecopy\n      add\n      swap1\n      jump\t// out\n        /* \"#utility.yul\":7:82   */\n    tag_32:\n        /* \"#utility.yul\":40:46   */\n      0x00\n        /* \"#utility.yul\":73:75   */\n      0x40\n        /* \"#utility.yul\":67:76   */\n      mload\n        /* \"#utility.yul\":57:76   */\n      swap1\n      pop\n        /* \"#utility.yul\":7:82   */\n      swap1\n      jump\t// out\n        /* \"#utility.yul\":88:205   */\n    tag_33:\n        /* \"#utility.yul\":197:198   */\n      0x00\n        /* \"#utility.yul\":194:195   */\n      dup1\n        /* \"#utility.yul\":187:199   */\n      revert\n        /* \"#utility.yul\":211:328   */\n    tag_34:\n        /* \"#utility.yul\":320:321   */\n      0x00\n        /* \"#utility.yul\":317:318   */\n      dup1\n        /* \"#utility.yul\":310:322   */\n      revert\n        /* \"#utility.yul\":334:411   */\n    tag_35:\n        /* \"#utility.yul\":371:378   */\n      0x00\n        /* \"#utility.yul\":400:405   */\n      dup2\n        /* \"#utility.yul\":389:405   */\n      swap1\n      pop\n        /* \"#utility.yul\":334:411   */\n      swap2\n      swap1\n      pop\n      jump\t// out\n        /* \"#utility.yul\":417:539   */\n    tag_36:\n        /* \"#utility.yul\":490:514   */\n      tag_69\n        /* \"#utility.yul\":508:513   */\n      dup2\n        /* \"#utility.yul\":490:514   */\n      tag_35\n      jump\t// in\n    tag_69:\n        /* \"#utility.yul\":483:488   */\n      dup2\n        /* \"#utility.yul\":480:515   */\n      eq\n        /* \"#utility.yul\":470:533   */\n      tag_70\n      jumpi\n        /* \"#utility.yul\":529:530   */\n      0x00\n        /* \"#utility.yul\":526:527   */\n      dup1\n        /* \"#utility.yul\":519:531   */\n      revert\n        /* \"#utility.yul\":470:533   */\n    tag_70:\n        /* \"#utility.yul\":417:539   */\n      pop\n      jump\t// out\n        /* \"#utility.yul\":545:684   */\n    tag_37:\n        /* \"#utility.yul\":591:596   */\n      0x00\n        /* \"#utility.yul\":629:635   */\n      dup2\n        /* \"#utility.yul\":616:636   */\n      calldataload\n        /* \"#utility.yul\":607:636   */\n      swap1\n      pop\n        /* \"#utility.yul\":645:678   */\n      tag_72\n        /* \"#utility.yul\":672:677   */\n      dup2\n        /* \"#utility.yul\":645:678   */\n      tag_36\n      jump\t// in\n    tag_72:\n        /* \"#utility.yul\":545:684   */\n      swap3\n      swap2\n      pop\n      pop\n      jump\t// out\n        /* \"#utility.yul\":690:1019   */\n    tag_8:\n        /* \"#utility.yul\":749:755   */\n      0x00\n        /* \"#utility.yul\":798:800   */\n      0x20\n        /* \"#utility.yul\":786:795   */\n      dup3\n        /* \"#utility.yul\":777:784   */\n      dup5\n        /* \"#utility.yul\":773:796   */\n      sub\n        /* \"#utility.yul\":769:801   */\n      slt\n        /* \"#utility.yul\":766:885   */\n      iszero\n      tag_74\n      jumpi\n        /* \"#utility.yul\":804:883   */\n      tag_75\n      tag_33\n      jump\t// in\n    tag_75:\n        /* \"#utility.yul\":766:885   */\n    tag_74:\n        /* \"#utility.yul\":924:925   */\n      0x00\n        /* \"#utility.yul\":949:1002   */\n      tag_76\n        /* \"#utility.yul\":994:1001   */\n      dup5\n        /* \"#utility.yul\":985:991   */\n      dup3\n        /* \"#utility.yul\":974:983   */\n      dup6\n        /* \"#utility.yul\":970:992   */\n      add\n        /* \"#utility.yul\":949:1002   */\n      tag_37\n      jump\t// in\n    tag_76:\n        /* \"#utility.yul\":939:1002   */\n      swap2\n      pop\n        /* \"#utility.yul\":895:1012   */\n      pop\n        /* \"#utility.yul\":690:1019   */\n      swap3\n      swap2\n      pop\n      pop\n      jump\t// out\n        /* \"#utility.yul\":1025:1151   */\n    tag_38:\n        /* \"#utility.yul\":1062:1069   */\n      0x00\n        /* \"#utility.yul\":1102:1144   */\n      0xffffffffffffffffffffffffffffffffffffffff\n        /* \"#utility.yul\":1095:1100   */\n      dup3\n        /* \"#utility.yul\":1091:1145   */\n      and\n        /* \"#utility.yul\":1080:1145   */\n      swap1\n      pop\n        /* \"#utility.yul\":1025:1151   */\n      swap2\n      swap1\n      pop\n      jump\t// out\n        /* \"#utility.yul\":1157:1253   */\n    tag_39:\n        /* \"#utility.yul\":1194:1201   */\n      0x00\n        /* \"#utility.yul\":1223:1247   */\n      tag_79\n        /* \"#utility.yul\":1241:1246   */\n      dup3\n        /* \"#utility.yul\":1223:1247   */\n      tag_38\n      jump\t// in\n    tag_79:\n        /* \"#utility.yul\":1212:1247   */\n      swap1\n      pop\n        /* \"#utility.yul\":1157:1253   */\n      swap2\n      swap1\n      pop\n      jump\t// out\n        /* \"#utility.yul\":1259:1377   */\n    tag_40:\n        /* \"#utility.yul\":1346:1370   */\n      tag_81\n        /* \"#utility.yul\":1364:1369   */\n      dup2\n        /* \"#utility.yul\":1346:1370   */\n      tag_39\n      jump\t// in\n    tag_81:\n        /* \"#utility.yul\":1341:1344   */\n      dup3\n        /* \"#utility.yul\":1334:1371   */\n      mstore\n        /* \"#utility.yul\":1259:1377   */\n      pop\n      pop\n      jump\t// out\n        /* \"#utility.yul\":1383:1605   */\n    tag_11:\n        /* \"#utility.yul\":1476:1480   */\n      0x00\n        /* \"#utility.yul\":1514:1516   */\n      0x20\n        /* \"#utility.yul\":1503:1512   */\n      dup3\n        /* \"#utility.yul\":1499:1517   */\n      add\n        /* \"#utility.yul\":1491:1517   */\n      swap1\n      pop\n        /* \"#utility.yul\":1527:1598   */\n      tag_83\n        /* \"#utility.yul\":1595:1596   */\n      0x00\n        /* \"#utility.yul\":1584:1593   */\n      dup4\n        /* \"#utility.yul\":1580:1597   */\n      add\n        /* \"#utility.yul\":1571:1577   */\n      dup5\n        /* \"#utility.yul\":1527:1598   */\n      tag_40\n      jump\t// in\n    tag_83:\n        /* \"#utility.yul\":1383:1605   */\n      swap3\n      swap2\n      pop\n      pop\n      jump\t// out\n        /* \"#utility.yul\":1611:1728   */\n    tag_41:\n        /* \"#utility.yul\":1720:1721   */\n      0x00\n        /* \"#utility.yul\":1717:1718   */\n      dup1\n        /* \"#utility.yul\":1710:1722   */\n      revert\n        /* \"#utility.yul\":1734:1851   */\n    tag_42:\n        /* \"#utility.yul\":1843:1844   */\n      0x00\n        /* \"#utility.yul\":1840:1841   */\n      dup1\n        /* \"#utility.yul\":1833:1845   */\n      revert\n        /* \"#utility.yul\":1857:1959   */\n    tag_43:\n        /* \"#utility.yul\":1898:1904   */\n      0x00\n        /* \"#utility.yul\":1949:1951   */\n      0x1f\n        /* \"#utility.yul\":1945:1952   */\n      not\n        /* \"#utility.yul\":1940:1942   */\n      0x1f\n        /* \"#utility.yul\":1933:1938   */\n      dup4\n        /* \"#utility.yul\":1929:1943   */\n      add\n        /* \"#utility.yul\":1925:1953   */\n      and\n        /* \"#utility.yul\":1915:1953   */\n      swap1\n      pop\n        /* \"#utility.yul\":1857:1959   */\n      swap2\n      swap1\n      pop\n      jump\t// out\n        /* \"#utility.yul\":1965:2145   */\n    tag_44:\n        /* \"#utility.yul\":2013:2090   */\n      0x4e487b7100000000000000000000000000000000000000000000000000000000\n        /* \"#utility.yul\":2010:2011   */\n      0x00\n        /* \"#utility.yul\":2003:2091   */\n      mstore\n        /* \"#utility.yul\":2110:2114   */\n      0x41\n        /* \"#utility.yul\":2107:2108   */\n      0x04\n        /* \"#utility.yul\":2100:2115   */\n      mstore\n        /* \"#utility.yul\":2134:2138   */\n      0x24\n        /* \"#utility.yul\":2131:2132   */\n      0x00\n        /* \"#utility.yul\":2124:2139   */\n      revert\n        /* \"#utility.yul\":2151:2432   */\n    tag_45:\n        /* \"#utility.yul\":2234:2261   */\n      tag_89\n        /* \"#utility.yul\":2256:2260   */\n      dup3\n        /* \"#utility.yul\":2234:2261   */\n      tag_43\n      jump\t// in\n    tag_89:\n        /* \"#utility.yul\":2226:2232   */\n      dup2\n        /* \"#utility.yul\":2222:2262   */\n      add\n        /* \"#utility.yul\":2364:2370   */\n      dup2\n        /* \"#utility.yul\":2352:2362   */\n      dup2\n        /* \"#utility.yul\":2349:2371   */\n      lt\n        /* \"#utility.yul\":2328:2346   */\n      0xffffffffffffffff\n        /* \"#utility.yul\":2316:2326   */\n      dup3\n        /* \"#utility.yul\":2313:2347   */\n      gt\n        /* \"#utility.yul\":2310:2372   */\n      or\n        /* \"#utility.yul\":2307:2395   */\n      iszero\n      tag_90\n      jumpi\n        /* \"#utility.yul\":2375:2393   */\n      tag_91\n      tag_44\n      jump\t// in\n    tag_91:\n        /* \"#utility.yul\":2307:2395   */\n    tag_90:\n        /* \"#utility.yul\":2415:2425   */\n      dup1\n        /* \"#utility.yul\":2411:2413   */\n      0x40\n        /* \"#utility.yul\":2404:2426   */\n      mstore\n        /* \"#utility.yul\":2194:2432   */\n      pop\n        /* \"#utility.yul\":2151:2432   */\n      pop\n      pop\n      jump\t// out\n        /* \"#utility.yul\":2438:2567   */\n    tag_46:\n        /* \"#utility.yul\":2472:2478   */\n      0x00\n        /* \"#utility.yul\":2499:2519   */\n      tag_93\n      tag_32\n      jump\t// in\n    tag_93:\n        /* \"#utility.yul\":2489:2519   */\n      swap1\n      pop\n        /* \"#utility.yul\":2528:2561   */\n      tag_94\n        /* \"#utility.yul\":2556:2560   */\n      dup3\n        /* \"#utility.yul\":2548:2554   */\n      dup3\n        /* \"#utility.yul\":2528:2561   */\n      tag_45\n      jump\t// in\n    tag_94:\n        /* \"#utility.yul\":2438:2567   */\n      swap2\n      swap1\n      pop\n      jump\t// out\n        /* \"#utility.yul\":2573:2881   */\n    tag_47:\n        /* \"#utility.yul\":2635:2639   */\n      0x00\n        /* \"#utility.yul\":2725:2743   */\n      0xffffffffffffffff\n        /* \"#utility.yul\":2717:2723   */\n      dup3\n        /* \"#utility.yul\":2714:2744   */\n      gt\n        /* \"#utility.yul\":2711:2767   */\n      iszero\n      tag_96\n      jumpi\n        /* \"#utility.yul\":2747:2765   */\n      tag_97\n      tag_44\n      jump\t// in\n    tag_97:\n        /* \"#utility.yul\":2711:2767   */\n    tag_96:\n        /* \"#utility.yul\":2785:2814   */\n      tag_98\n        /* \"#utility.yul\":2807:2813   */\n      dup3\n        /* \"#utility.yul\":2785:2814   */\n      tag_43\n      jump\t// in\n    tag_98:\n        /* \"#utility.yul\":2777:2814   */\n      swap1\n      pop\n        /* \"#utility.yul\":2869:2873   */\n      0x20\n        /* \"#utility.yul\":2863:2867   */\n      dup2\n        /* \"#utility.yul\":2859:2874   */\n      add\n        /* \"#utility.yul\":2851:2874   */\n      swap1\n      pop\n        /* \"#utility.yul\":2573:2881   */\n      swap2\n      swap1\n      pop\n      jump\t// out\n        /* \"#utility.yul\":2887:3041   */\n    tag_48:\n        /* \"#utility.yul\":2971:2977   */\n      dup3\n        /* \"#utility.yul\":2966:2969   */\n      dup2\n        /* \"#utility.yul\":2961:2964   */\n      dup4\n        /* \"#utility.yul\":2948:2978   */\n      calldatacopy\n        /* \"#utility.yul\":3033:3034   */\n      0x00\n        /* \"#utility.yul\":3024:3030   */\n      dup4\n        /* \"#utility.yul\":3019:3022   */\n      dup4\n        /* \"#utility.yul\":3015:3031   */\n      add\n        /* \"#utility.yul\":3008:3035   */\n      mstore\n        /* \"#utility.yul\":2887:3041   */\n      pop\n      pop\n      pop\n      jump\t// out\n        /* \"#utility.yul\":3047:3459   */\n    tag_49:\n        /* \"#utility.yul\":3125:3130   */\n      0x00\n        /* \"#utility.yul\":3150:3216   */\n      tag_101\n        /* \"#utility.yul\":3166:3215   */\n      tag_102\n        /* \"#utility.yul\":3208:3214   */\n      dup5\n        /* \"#utility.yul\":3166:3215   */\n      tag_47\n      jump\t// in\n    tag_102:\n        /* \"#utility.yul\":3150:3216   */\n      tag_46\n      jump\t// in\n    tag_101:\n        /* \"#utility.yul\":3141:3216   */\n      swap1\n      pop\n        /* \"#utility.yul\":3239:3245   */\n      dup3\n        /* \"#utility.yul\":3232:3237   */\n      dup2\n        /* \"#utility.yul\":3225:3246   */\n      mstore\n        /* \"#utility.yul\":3277:3281   */\n      0x20\n        /* \"#utility.yul\":3270:3275   */\n      dup2\n        /* \"#utility.yul\":3266:3282   */\n      add\n        /* \"#utility.yul\":3315:3318   */\n      dup5\n        /* \"#utility.yul\":3306:3312   */\n      dup5\n        /* \"#utility.yul\":3301:3304   */\n      dup5\n        /* \"#utility.yul\":3297:3313   */\n      add\n        /* \"#utility.yul\":3294:3319   */\n      gt\n        /* \"#utility.yul\":3291:3403   */\n      iszero\n      tag_103\n      jumpi\n        /* \"#utility.yul\":3322:3401   */\n      tag_104\n      tag_42\n      jump\t// in\n    tag_104:\n        /* \"#utility.yul\":3291:3403   */\n    tag_103:\n        /* \"#utility.yul\":3412:3453   */\n      tag_105\n        /* \"#utility.yul\":3446:3452   */\n      dup5\n        /* \"#utility.yul\":3441:3444   */\n      dup3\n        /* \"#utility.yul\":3436:3439   */\n      dup6\n        /* \"#utility.yul\":3412:3453   */\n      tag_48\n      jump\t// in\n    tag_105:\n        /* \"#utility.yul\":3131:3459   */\n      pop\n        /* \"#utility.yul\":3047:3459   */\n      swap4\n      swap3\n      pop\n      pop\n      pop\n      jump\t// out\n        /* \"#utility.yul\":3479:3819   */\n    tag_50:\n        /* \"#utility.yul\":3535:3540   */\n      0x00\n        /* \"#utility.yul\":3584:3587   */\n      dup3\n        /* \"#utility.yul\":3577:3581   */\n      0x1f\n        /* \"#utility.yul\":3569:3575   */\n      dup4\n        /* \"#utility.yul\":3565:3582   */\n      add\n        /* \"#utility.yul\":3561:3588   */\n      slt\n        /* \"#utility.yul\":3551:3673   */\n      tag_107\n      jumpi\n        /* \"#utility.yul\":3592:3671   */\n      tag_108\n      tag_41\n      jump\t// in\n    tag_108:\n        /* \"#utility.yul\":3551:3673   */\n    tag_107:\n        /* \"#utility.yul\":3709:3715   */\n      dup2\n        /* \"#utility.yul\":3696:3716   */\n      calldataload\n        /* \"#utility.yul\":3734:3813   */\n      tag_109\n        /* \"#utility.yul\":3809:3812   */\n      dup5\n        /* \"#utility.yul\":3801:3807   */\n      dup3\n        /* \"#utility.yul\":3794:3798   */\n      0x20\n        /* \"#utility.yul\":3786:3792   */\n      dup7\n        /* \"#utility.yul\":3782:3799   */\n      add\n        /* \"#utility.yul\":3734:3813   */\n      tag_49\n      jump\t// in\n    tag_109:\n        /* \"#utility.yul\":3725:3813   */\n      swap2\n      pop\n        /* \"#utility.yul\":3541:3819   */\n      pop\n        /* \"#utility.yul\":3479:3819   */\n      swap3\n      swap2\n      pop\n      pop\n      jump\t// out\n        /* \"#utility.yul\":3825:4479   */\n    tag_14:\n        /* \"#utility.yul\":3903:3909   */\n      0x00\n        /* \"#utility.yul\":3911:3917   */\n      dup1\n        /* \"#utility.yul\":3960:3962   */\n      0x40\n        /* \"#utility.yul\":3948:3957   */\n      dup4\n        /* \"#utility.yul\":3939:3946   */\n      dup6\n        /* \"#utility.yul\":3935:3958   */\n      sub\n        /* \"#utility.yul\":3931:3963   */\n      slt\n        /* \"#utility.yul\":3928:4047   */\n      iszero\n      tag_111\n      jumpi\n        /* \"#utility.yul\":3966:4045   */\n      tag_112\n      tag_33\n      jump\t// in\n    tag_112:\n        /* \"#utility.yul\":3928:4047   */\n    tag_111:\n        /* \"#utility.yul\":4086:4087   */\n      0x00\n        /* \"#utility.yul\":4111:4164   */\n      tag_113\n        /* \"#utility.yul\":4156:4163   */\n      dup6\n        /* \"#utility.yul\":4147:4153   */\n      dup3\n        /* \"#utility.yul\":4136:4145   */\n      dup7\n        /* \"#utility.yul\":4132:4154   */\n      add\n        /* \"#utility.yul\":4111:4164   */\n      tag_37\n      jump\t// in\n    tag_113:\n        /* \"#utility.yul\":4101:4164   */\n      swap3\n      pop\n        /* \"#utility.yul\":4057:4174   */\n      pop\n        /* \"#utility.yul\":4241:4243   */\n      0x20\n        /* \"#utility.yul\":4230:4239   */\n      dup4\n        /* \"#utility.yul\":4226:4244   */\n      add\n        /* \"#utility.yul\":4213:4245   */\n      calldataload\n        /* \"#utility.yul\":4272:4290   */\n      0xffffffffffffffff\n        /* \"#utility.yul\":4264:4270   */\n      dup2\n        /* \"#utility.yul\":4261:4291   */\n      gt\n        /* \"#utility.yul\":4258:4375   */\n      iszero\n      tag_114\n      jumpi\n        /* \"#utility.yul\":4294:4373   */\n      tag_115\n      tag_34\n      jump\t// in\n    tag_115:\n        /* \"#utility.yul\":4258:4375   */\n    tag_114:\n        /* \"#utility.yul\":4399:4462   */\n      tag_116\n        /* \"#utility.yul\":4454:4461   */\n      dup6\n        /* \"#utility.yul\":4445:4451   */\n      dup3\n        /* \"#utility.yul\":4434:4443   */\n      dup7\n        /* \"#utility.yul\":4430:4452   */\n      add\n        /* \"#utility.yul\":4399:4462   */\n      tag_50\n      jump\t// in\n    tag_116:\n        /* \"#utility.yul\":4389:4462   */\n      swap2\n      pop\n        /* \"#utility.yul\":4184:4472   */\n      pop\n        /* \"#utility.yul\":3825:4479   */\n      swap3\n      pop\n      swap3\n      swap1\n      pop\n      jump\t// out\n        /* \"#utility.yul\":4485:4599   */\n    tag_51:\n        /* \"#utility.yul\":4552:4558   */\n      0x00\n        /* \"#utility.yul\":4586:4591   */\n      dup2\n        /* \"#utility.yul\":4580:4592   */\n      mload\n        /* \"#utility.yul\":4570:4592   */\n      swap1\n      pop\n        /* \"#utility.yul\":4485:4599   */\n      swap2\n      swap1\n      pop\n      jump\t// out\n        /* \"#utility.yul\":4605:4789   */\n    tag_52:\n        /* \"#utility.yul\":4704:4715   */\n      0x00\n        /* \"#utility.yul\":4738:4744   */\n      dup3\n        /* \"#utility.yul\":4733:4736   */\n      dup3\n        /* \"#utility.yul\":4726:4745   */\n      mstore\n        /* \"#utility.yul\":4778:4782   */\n      0x20\n        /* \"#utility.yul\":4773:4776   */\n      dup3\n        /* \"#utility.yul\":4769:4783   */\n      add\n        /* \"#utility.yul\":4754:4783   */\n      swap1\n      pop\n        /* \"#utility.yul\":4605:4789   */\n      swap3\n      swap2\n      pop\n      pop\n      jump\t// out\n        /* \"#utility.yul\":4795:4927   */\n    tag_53:\n        /* \"#utility.yul\":4862:4866   */\n      0x00\n        /* \"#utility.yul\":4885:4888   */\n      dup2\n        /* \"#utility.yul\":4877:4888   */\n      swap1\n      pop\n        /* \"#utility.yul\":4915:4919   */\n      0x20\n        /* \"#utility.yul\":4910:4913   */\n      dup3\n        /* \"#utility.yul\":4906:4920   */\n      add\n        /* \"#utility.yul\":4898:4920   */\n      swap1\n      pop\n        /* \"#utility.yul\":4795:4927   */\n      swap2\n      swap1\n      pop\n      jump\t// out\n        /* \"#utility.yul\":4933:5041   */\n    tag_54:\n        /* \"#utility.yul\":5010:5034   */\n      tag_121\n        /* \"#utility.yul\":5028:5033   */\n      dup2\n        /* \"#utility.yul\":5010:5034   */\n      tag_39\n      jump\t// in\n    tag_121:\n        /* \"#utility.yul\":5005:5008   */\n      dup3\n        /* \"#utility.yul\":4998:5035   */\n      mstore\n        /* \"#utility.yul\":4933:5041   */\n      pop\n      pop\n      jump\t// out\n        /* \"#utility.yul\":5047:5226   */\n    tag_55:\n        /* \"#utility.yul\":5116:5126   */\n      0x00\n        /* \"#utility.yul\":5137:5183   */\n      tag_123\n        /* \"#utility.yul\":5179:5182   */\n      dup4\n        /* \"#utility.yul\":5171:5177   */\n      dup4\n        /* \"#utility.yul\":5137:5183   */\n      tag_54\n      jump\t// in\n    tag_123:\n        /* \"#utility.yul\":5215:5219   */\n      0x20\n        /* \"#utility.yul\":5210:5213   */\n      dup4\n        /* \"#utility.yul\":5206:5220   */\n      add\n        /* \"#utility.yul\":5192:5220   */\n      swap1\n      pop\n        /* \"#utility.yul\":5047:5226   */\n      swap3\n      swap2\n      pop\n      pop\n      jump\t// out\n        /* \"#utility.yul\":5232:5345   */\n    tag_56:\n        /* \"#utility.yul\":5302:5306   */\n      0x00\n        /* \"#utility.yul\":5334:5338   */\n      0x20\n        /* \"#utility.yul\":5329:5332   */\n      dup3\n        /* \"#utility.yul\":5325:5339   */\n      add\n        /* \"#utility.yul\":5317:5339   */\n      swap1\n      pop\n        /* \"#utility.yul\":5232:5345   */\n      swap2\n      swap1\n      pop\n      jump\t// out\n        /* \"#utility.yul\":5381:6113   */\n    tag_57:\n        /* \"#utility.yul\":5500:5503   */\n      0x00\n        /* \"#utility.yul\":5529:5583   */\n      tag_126\n        /* \"#utility.yul\":5577:5582   */\n      dup3\n        /* \"#utility.yul\":5529:5583   */\n      tag_51\n      jump\t// in\n    tag_126:\n        /* \"#utility.yul\":5599:5685   */\n      tag_127\n        /* \"#utility.yul\":5678:5684   */\n      dup2\n        /* \"#utility.yul\":5673:5676   */\n      dup6\n        /* \"#utility.yul\":5599:5685   */\n      tag_52\n      jump\t// in\n    tag_127:\n        /* \"#utility.yul\":5592:5685   */\n      swap4\n      pop\n        /* \"#utility.yul\":5709:5765   */\n      tag_128\n        /* \"#utility.yul\":5759:5764   */\n      dup4\n        /* \"#utility.yul\":5709:5765   */\n      tag_53\n      jump\t// in\n    tag_128:\n        /* \"#utility.yul\":5788:5795   */\n      dup1\n        /* \"#utility.yul\":5819:5820   */\n      0x00\n        /* \"#utility.yul\":5804:6088   */\n    tag_129:\n        /* \"#utility.yul\":5829:5835   */\n      dup4\n        /* \"#utility.yul\":5826:5827   */\n      dup2\n        /* \"#utility.yul\":5823:5836   */\n      lt\n        /* \"#utility.yul\":5804:6088   */\n      iszero\n      tag_131\n      jumpi\n        /* \"#utility.yul\":5905:5911   */\n      dup2\n        /* \"#utility.yul\":5899:5912   */\n      mload\n        /* \"#utility.yul\":5932:5995   */\n      tag_132\n        /* \"#utility.yul\":5991:5994   */\n      dup9\n        /* \"#utility.yul\":5976:5989   */\n      dup3\n        /* \"#utility.yul\":5932:5995   */\n      tag_55\n      jump\t// in\n    tag_132:\n        /* \"#utility.yul\":5925:5995   */\n      swap8\n      pop\n        /* \"#utility.yul\":6018:6078   */\n      tag_133\n        /* \"#utility.yul\":6071:6077   */\n      dup4\n        /* \"#utility.yul\":6018:6078   */\n      tag_56\n      jump\t// in\n    tag_133:\n        /* \"#utility.yul\":6008:6078   */\n      swap3\n      pop\n        /* \"#utility.yul\":5864:6088   */\n      pop\n        /* \"#utility.yul\":5851:5852   */\n      0x01\n        /* \"#utility.yul\":5848:5849   */\n      dup2\n        /* \"#utility.yul\":5844:5853   */\n      add\n        /* \"#utility.yul\":5839:5853   */\n      swap1\n      pop\n        /* \"#utility.yul\":5804:6088   */\n      jump(tag_129)\n    tag_131:\n        /* \"#utility.yul\":5808:5822   */\n      pop\n        /* \"#utility.yul\":6104:6107   */\n      dup6\n        /* \"#utility.yul\":6097:6107   */\n      swap4\n      pop\n        /* \"#utility.yul\":5505:6113   */\n      pop\n      pop\n      pop\n        /* \"#utility.yul\":5381:6113   */\n      swap3\n      swap2\n      pop\n      pop\n      jump\t// out\n        /* \"#utility.yul\":6119:6492   */\n    tag_19:\n        /* \"#utility.yul\":6262:6266   */\n      0x00\n        /* \"#utility.yul\":6300:6302   */\n      0x20\n        /* \"#utility.yul\":6289:6298   */\n      dup3\n        /* \"#utility.yul\":6285:6303   */\n      add\n        /* \"#utility.yul\":6277:6303   */\n      swap1\n      pop\n        /* \"#utility.yul\":6349:6358   */\n      dup2\n        /* \"#utility.yul\":6343:6347   */\n      dup2\n        /* \"#utility.yul\":6339:6359   */\n      sub\n        /* \"#utility.yul\":6335:6336   */\n      0x00\n        /* \"#utility.yul\":6324:6333   */\n      dup4\n        /* \"#utility.yul\":6320:6337   */\n      add\n        /* \"#utility.yul\":6313:6360   */\n      mstore\n        /* \"#utility.yul\":6377:6485   */\n      tag_135\n        /* \"#utility.yul\":6480:6484   */\n      dup2\n        /* \"#utility.yul\":6471:6477   */\n      dup5\n        /* \"#utility.yul\":6377:6485   */\n      tag_57\n      jump\t// in\n    tag_135:\n        /* \"#utility.yul\":6369:6485   */\n      swap1\n      pop\n        /* \"#utility.yul\":6119:6492   */\n      swap3\n      swap2\n      pop\n      pop\n      jump\t// out\n        /* \"#utility.yul\":6498:6616   */\n    tag_58:\n        /* \"#utility.yul\":6585:6609   */\n      tag_137\n        /* \"#utility.yul\":6603:6608   */\n      dup2\n        /* \"#utility.yul\":6585:6609   */\n      tag_35\n      jump\t// in\n    tag_137:\n        /* \"#utility.yul\":6580:6583   */\n      dup3\n        /* \"#utility.yul\":6573:6610   */\n      mstore\n        /* \"#utility.yul\":6498:6616   */\n      pop\n      pop\n      jump\t// out\n        /* \"#utility.yul\":6622:6721   */\n    tag_59:\n        /* \"#utility.yul\":6674:6680   */\n      0x00\n        /* \"#utility.yul\":6708:6713   */\n      dup2\n        /* \"#utility.yul\":6702:6714   */\n      mload\n        /* \"#utility.yul\":6692:6714   */\n      swap1\n      pop\n        /* \"#utility.yul\":6622:6721   */\n      swap2\n      swap1\n      pop\n      jump\t// out\n        /* \"#utility.yul\":6727:6896   */\n    tag_60:\n        /* \"#utility.yul\":6811:6822   */\n      0x00\n        /* \"#utility.yul\":6845:6851   */\n      dup3\n        /* \"#utility.yul\":6840:6843   */\n      dup3\n        /* \"#utility.yul\":6833:6852   */\n      mstore\n        /* \"#utility.yul\":6885:6889   */\n      0x20\n        /* \"#utility.yul\":6880:6883   */\n      dup3\n        /* \"#utility.yul\":6876:6890   */\n      add\n        /* \"#utility.yul\":6861:6890   */\n      swap1\n      pop\n        /* \"#utility.yul\":6727:6896   */\n      swap3\n      swap2\n      pop\n      pop\n      jump\t// out\n        /* \"#utility.yul\":6902:7209   */\n    tag_61:\n        /* \"#utility.yul\":6970:6971   */\n      0x00\n        /* \"#utility.yul\":6980:7093   */\n    tag_141:\n        /* \"#utility.yul\":6994:7000   */\n      dup4\n        /* \"#utility.yul\":6991:6992   */\n      dup2\n        /* \"#utility.yul\":6988:7001   */\n      lt\n        /* \"#utility.yul\":6980:7093   */\n      iszero\n      tag_143\n      jumpi\n        /* \"#utility.yul\":7079:7080   */\n      dup1\n        /* \"#utility.yul\":7074:7077   */\n      dup3\n        /* \"#utility.yul\":7070:7081   */\n      add\n        /* \"#utility.yul\":7064:7082   */\n      mload\n        /* \"#utility.yul\":7060:7061   */\n      dup2\n        /* \"#utility.yul\":7055:7058   */\n      dup5\n        /* \"#utility.yul\":7051:7062   */\n      add\n        /* \"#utility.yul\":7044:7083   */\n      mstore\n        /* \"#utility.yul\":7016:7018   */\n      0x20\n        /* \"#utility.yul\":7013:7014   */\n      dup2\n        /* \"#utility.yul\":7009:7019   */\n      add\n        /* \"#utility.yul\":7004:7019   */\n      swap1\n      pop\n        /* \"#utility.yul\":6980:7093   */\n      jump(tag_141)\n    tag_143:\n        /* \"#utility.yul\":7111:7117   */\n      dup4\n        /* \"#utility.yul\":7108:7109   */\n      dup2\n        /* \"#utility.yul\":7105:7118   */\n      gt\n        /* \"#utility.yul\":7102:7203   */\n      iszero\n      tag_144\n      jumpi\n        /* \"#utility.yul\":7191:7192   */\n      0x00\n        /* \"#utility.yul\":7182:7188   */\n      dup5\n        /* \"#utility.yul\":7177:7180   */\n      dup5\n        /* \"#utility.yul\":7173:7189   */\n      add\n        /* \"#utility.yul\":7166:7193   */\n      mstore\n        /* \"#utility.yul\":7102:7203   */\n    tag_144:\n        /* \"#utility.yul\":6951:7209   */\n      pop\n        /* \"#utility.yul\":6902:7209   */\n      pop\n      pop\n      pop\n      jump\t// out\n        /* \"#utility.yul\":7215:7579   */\n    tag_62:\n        /* \"#utility.yul\":7303:7306   */\n      0x00\n        /* \"#utility.yul\":7331:7370   */\n      tag_146\n        /* \"#utility.yul\":7364:7369   */\n      dup3\n        /* \"#utility.yul\":7331:7370   */\n      tag_59\n      jump\t// in\n    tag_146:\n        /* \"#utility.yul\":7386:7457   */\n      tag_147\n        /* \"#utility.yul\":7450:7456   */\n      dup2\n        /* \"#utility.yul\":7445:7448   */\n      dup6\n        /* \"#utility.yul\":7386:7457   */\n      tag_60\n      jump\t// in\n    tag_147:\n        /* \"#utility.yul\":7379:7457   */\n      swap4\n      pop\n        /* \"#utility.yul\":7466:7518   */\n      tag_148\n        /* \"#utility.yul\":7511:7517   */\n      dup2\n        /* \"#utility.yul\":7506:7509   */\n      dup6\n        /* \"#utility.yul\":7499:7503   */\n      0x20\n        /* \"#utility.yul\":7492:7497   */\n      dup7\n        /* \"#utility.yul\":7488:7504   */\n      add\n        /* \"#utility.yul\":7466:7518   */\n      tag_61\n      jump\t// in\n    tag_148:\n        /* \"#utility.yul\":7543:7572   */\n      tag_149\n        /* \"#utility.yul\":7565:7571   */\n      dup2\n        /* \"#utility.yul\":7543:7572   */\n      tag_43\n      jump\t// in\n    tag_149:\n        /* \"#utility.yul\":7538:7541   */\n      dup5\n        /* \"#utility.yul\":7534:7573   */\n      add\n        /* \"#utility.yul\":7527:7573   */\n      swap2\n      pop\n        /* \"#utility.yul\":7307:7579   */\n      pop\n        /* \"#utility.yul\":7215:7579   */\n      swap3\n      swap2\n      pop\n      pop\n      jump\t// out\n        /* \"#utility.yul\":7585:8118   */\n    tag_26:\n        /* \"#utility.yul\":7754:7758   */\n      0x00\n        /* \"#utility.yul\":7792:7794   */\n      0x60\n        /* \"#utility.yul\":7781:7790   */\n      dup3\n        /* \"#utility.yul\":7777:7795   */\n      add\n        /* \"#utility.yul\":7769:7795   */\n      swap1\n      pop\n        /* \"#utility.yul\":7805:7876   */\n      tag_151\n        /* \"#utility.yul\":7873:7874   */\n      0x00\n        /* \"#utility.yul\":7862:7871   */\n      dup4\n        /* \"#utility.yul\":7858:7875   */\n      add\n        /* \"#utility.yul\":7849:7855   */\n      dup7\n        /* \"#utility.yul\":7805:7876   */\n      tag_58\n      jump\t// in\n    tag_151:\n        /* \"#utility.yul\":7923:7932   */\n      dup2\n        /* \"#utility.yul\":7917:7921   */\n      dup2\n        /* \"#utility.yul\":7913:7933   */\n      sub\n        /* \"#utility.yul\":7908:7910   */\n      0x20\n        /* \"#utility.yul\":7897:7906   */\n      dup4\n        /* \"#utility.yul\":7893:7911   */\n      add\n        /* \"#utility.yul\":7886:7934   */\n      mstore\n        /* \"#utility.yul\":7951:8029   */\n      tag_152\n        /* \"#utility.yul\":8024:8028   */\n      dup2\n        /* \"#utility.yul\":8015:8021   */\n      dup6\n        /* \"#utility.yul\":7951:8029   */\n      tag_62\n      jump\t// in\n    tag_152:\n        /* \"#utility.yul\":7943:8029   */\n      swap1\n      pop\n        /* \"#utility.yul\":8039:8111   */\n      tag_153\n        /* \"#utility.yul\":8107:8109   */\n      0x40\n        /* \"#utility.yul\":8096:8105   */\n      dup4\n        /* \"#utility.yul\":8092:8110   */\n      add\n        /* \"#utility.yul\":8083:8089   */\n      dup5\n        /* \"#utility.yul\":8039:8111   */\n      tag_40\n      jump\t// in\n    tag_153:\n        /* \"#utility.yul\":7585:8118   */\n      swap5\n      swap4\n      pop\n      pop\n      pop\n      pop\n      jump\t// out\n    stop\n\n    sub_0: assembly {\n            /* \"Campaing.sol\":464:2743  contract Campaign {... */\n          mstore(0x40, 0x80)\n            /* \"Campaing.sol\":981:1146  constructor(uint minimun, string memory name, address creator) {... */\n          callvalue\n          dup1\n          iszero\n          tag_1\n          jumpi\n          0x00\n          dup1\n          revert\n        tag_1:\n          pop\n          mload(0x40)\n          sub(codesize, bytecodeSize)\n          dup1\n          bytecodeSize\n          dup4\n          codecopy\n          dup2\n          dup2\n          add\n          0x40\n          mstore\n          dup2\n          add\n          swap1\n          tag_2\n          swap2\n          swap1\n          tag_3\n          jump\t// in\n        tag_2:\n            /* \"Campaing.sol\":1064:1071  creator */\n          dup1\n            /* \"Campaing.sol\":1054:1061  manager */\n          0x00\n          dup1\n            /* \"Campaing.sol\":1054:1071  manager = creator */\n          0x0100\n          exp\n          dup2\n          sload\n          dup2\n          0xffffffffffffffffffffffffffffffffffffffff\n          mul\n          not\n          and\n          swap1\n          dup4\n          0xffffffffffffffffffffffffffffffffffffffff\n          and\n          mul\n          or\n          swap1\n          sstore\n          pop\n            /* \"Campaing.sol\":1103:1110  minimun */\n          dup3\n            /* \"Campaing.sol\":1081:1100  minimunContribution */\n          0x01\n            /* \"Campaing.sol\":1081:1110  minimunContribution = minimun */\n          dup2\n          swap1\n          sstore\n          pop\n            /* \"Campaing.sol\":1135:1139  name */\n          dup2\n            /* \"Campaing.sol\":1120:1132  nameCampaign */\n          0x05\n            /* \"Campaing.sol\":1120:1139  nameCampaign = name */\n          swap1\n          dup1\n          mload\n          swap1\n          0x20\n          add\n          swap1\n          tag_6\n          swap3\n          swap2\n          swap1\n          tag_7\n          jump\t// in\n        tag_6:\n          pop\n            /* \"Campaing.sol\":981:1146  constructor(uint minimun, string memory name, address creator) {... */\n          pop\n          pop\n          pop\n            /* \"Campaing.sol\":464:2743  contract Campaign {... */\n          jump(tag_8)\n        tag_7:\n          dup3\n          dup1\n          sload\n          tag_9\n          swap1\n          tag_10\n          jump\t// in\n        tag_9:\n          swap1\n          0x00\n          mstore\n          keccak256(0x00, 0x20)\n          swap1\n          0x1f\n          add\n          0x20\n          swap1\n          div\n          dup2\n          add\n          swap3\n          dup3\n          tag_12\n          jumpi\n          0x00\n          dup6\n          sstore\n          jump(tag_11)\n        tag_12:\n          dup3\n          0x1f\n          lt\n          tag_13\n          jumpi\n          dup1\n          mload\n          not(0xff)\n          and\n          dup4\n          dup1\n          add\n          or\n          dup6\n          sstore\n          jump(tag_11)\n        tag_13:\n          dup3\n          dup1\n          add\n          0x01\n          add\n          dup6\n          sstore\n          dup3\n          iszero\n          tag_11\n          jumpi\n          swap2\n          dup3\n          add\n        tag_14:\n          dup3\n          dup2\n          gt\n          iszero\n          tag_15\n          jumpi\n          dup3\n          mload\n          dup3\n          sstore\n          swap2\n          0x20\n          add\n          swap2\n          swap1\n          0x01\n          add\n          swap1\n          jump(tag_14)\n        tag_15:\n        tag_11:\n          pop\n          swap1\n          pop\n          tag_16\n          swap2\n          swap1\n          tag_17\n          jump\t// in\n        tag_16:\n          pop\n          swap1\n          jump\t// out\n        tag_17:\n        tag_18:\n          dup1\n          dup3\n          gt\n          iszero\n          tag_19\n          jumpi\n          0x00\n          dup2\n          0x00\n          swap1\n          sstore\n          pop\n          0x01\n          add\n          jump(tag_18)\n        tag_19:\n          pop\n          swap1\n          jump\t// out\n            /* \"#utility.yul\":7:82   */\n        tag_20:\n            /* \"#utility.yul\":40:46   */\n          0x00\n            /* \"#utility.yul\":73:75   */\n          0x40\n            /* \"#utility.yul\":67:76   */\n          mload\n            /* \"#utility.yul\":57:76   */\n          swap1\n          pop\n            /* \"#utility.yul\":7:82   */\n          swap1\n          jump\t// out\n            /* \"#utility.yul\":88:205   */\n        tag_21:\n            /* \"#utility.yul\":197:198   */\n          0x00\n            /* \"#utility.yul\":194:195   */\n          dup1\n            /* \"#utility.yul\":187:199   */\n          revert\n            /* \"#utility.yul\":211:328   */\n        tag_22:\n            /* \"#utility.yul\":320:321   */\n          0x00\n            /* \"#utility.yul\":317:318   */\n          dup1\n            /* \"#utility.yul\":310:322   */\n          revert\n            /* \"#utility.yul\":334:411   */\n        tag_23:\n            /* \"#utility.yul\":371:378   */\n          0x00\n            /* \"#utility.yul\":400:405   */\n          dup2\n            /* \"#utility.yul\":389:405   */\n          swap1\n          pop\n            /* \"#utility.yul\":334:411   */\n          swap2\n          swap1\n          pop\n          jump\t// out\n            /* \"#utility.yul\":417:539   */\n        tag_24:\n            /* \"#utility.yul\":490:514   */\n          tag_47\n            /* \"#utility.yul\":508:513   */\n          dup2\n            /* \"#utility.yul\":490:514   */\n          tag_23\n          jump\t// in\n        tag_47:\n            /* \"#utility.yul\":483:488   */\n          dup2\n            /* \"#utility.yul\":480:515   */\n          eq\n            /* \"#utility.yul\":470:533   */\n          tag_48\n          jumpi\n            /* \"#utility.yul\":529:530   */\n          0x00\n            /* \"#utility.yul\":526:527   */\n          dup1\n            /* \"#utility.yul\":519:531   */\n          revert\n            /* \"#utility.yul\":470:533   */\n        tag_48:\n            /* \"#utility.yul\":417:539   */\n          pop\n          jump\t// out\n            /* \"#utility.yul\":545:688   */\n        tag_25:\n            /* \"#utility.yul\":602:607   */\n          0x00\n            /* \"#utility.yul\":633:639   */\n          dup2\n            /* \"#utility.yul\":627:640   */\n          mload\n            /* \"#utility.yul\":618:640   */\n          swap1\n          pop\n            /* \"#utility.yul\":649:682   */\n          tag_50\n            /* \"#utility.yul\":676:681   */\n          dup2\n            /* \"#utility.yul\":649:682   */\n          tag_24\n          jump\t// in\n        tag_50:\n            /* \"#utility.yul\":545:688   */\n          swap3\n          swap2\n          pop\n          pop\n          jump\t// out\n            /* \"#utility.yul\":694:811   */\n        tag_26:\n            /* \"#utility.yul\":803:804   */\n          0x00\n            /* \"#utility.yul\":800:801   */\n          dup1\n            /* \"#utility.yul\":793:805   */\n          revert\n            /* \"#utility.yul\":817:934   */\n        tag_27:\n            /* \"#utility.yul\":926:927   */\n          0x00\n            /* \"#utility.yul\":923:924   */\n          dup1\n            /* \"#utility.yul\":916:928   */\n          revert\n            /* \"#utility.yul\":940:1042   */\n        tag_28:\n            /* \"#utility.yul\":981:987   */\n          0x00\n            /* \"#utility.yul\":1032:1034   */\n          0x1f\n            /* \"#utility.yul\":1028:1035   */\n          not\n            /* \"#utility.yul\":1023:1025   */\n          0x1f\n            /* \"#utility.yul\":1016:1021   */\n          dup4\n            /* \"#utility.yul\":1012:1026   */\n          add\n            /* \"#utility.yul\":1008:1036   */\n          and\n            /* \"#utility.yul\":998:1036   */\n          swap1\n          pop\n            /* \"#utility.yul\":940:1042   */\n          swap2\n          swap1\n          pop\n          jump\t// out\n            /* \"#utility.yul\":1048:1228   */\n        tag_29:\n            /* \"#utility.yul\":1096:1173   */\n          0x4e487b7100000000000000000000000000000000000000000000000000000000\n            /* \"#utility.yul\":1093:1094   */\n          0x00\n            /* \"#utility.yul\":1086:1174   */\n          mstore\n            /* \"#utility.yul\":1193:1197   */\n          0x41\n            /* \"#utility.yul\":1190:1191   */\n          0x04\n            /* \"#utility.yul\":1183:1198   */\n          mstore\n            /* \"#utility.yul\":1217:1221   */\n          0x24\n            /* \"#utility.yul\":1214:1215   */\n          0x00\n            /* \"#utility.yul\":1207:1222   */\n          revert\n            /* \"#utility.yul\":1234:1515   */\n        tag_30:\n            /* \"#utility.yul\":1317:1344   */\n          tag_56\n            /* \"#utility.yul\":1339:1343   */\n          dup3\n            /* \"#utility.yul\":1317:1344   */\n          tag_28\n          jump\t// in\n        tag_56:\n            /* \"#utility.yul\":1309:1315   */\n          dup2\n            /* \"#utility.yul\":1305:1345   */\n          add\n            /* \"#utility.yul\":1447:1453   */\n          dup2\n            /* \"#utility.yul\":1435:1445   */\n          dup2\n            /* \"#utility.yul\":1432:1454   */\n          lt\n            /* \"#utility.yul\":1411:1429   */\n          0xffffffffffffffff\n            /* \"#utility.yul\":1399:1409   */\n          dup3\n            /* \"#utility.yul\":1396:1430   */\n          gt\n            /* \"#utility.yul\":1393:1455   */\n          or\n            /* \"#utility.yul\":1390:1478   */\n          iszero\n          tag_57\n          jumpi\n            /* \"#utility.yul\":1458:1476   */\n          tag_58\n          tag_29\n          jump\t// in\n        tag_58:\n            /* \"#utility.yul\":1390:1478   */\n        tag_57:\n            /* \"#utility.yul\":1498:1508   */\n          dup1\n            /* \"#utility.yul\":1494:1496   */\n          0x40\n            /* \"#utility.yul\":1487:1509   */\n          mstore\n            /* \"#utility.yul\":1277:1515   */\n          pop\n            /* \"#utility.yul\":1234:1515   */\n          pop\n          pop\n          jump\t// out\n            /* \"#utility.yul\":1521:1650   */\n        tag_31:\n            /* \"#utility.yul\":1555:1561   */\n          0x00\n            /* \"#utility.yul\":1582:1602   */\n          tag_60\n          tag_20\n          jump\t// in\n        tag_60:\n            /* \"#utility.yul\":1572:1602   */\n          swap1\n          pop\n            /* \"#utility.yul\":1611:1644   */\n          tag_61\n            /* \"#utility.yul\":1639:1643   */\n          dup3\n            /* \"#utility.yul\":1631:1637   */\n          dup3\n            /* \"#utility.yul\":1611:1644   */\n          tag_30\n          jump\t// in\n        tag_61:\n            /* \"#utility.yul\":1521:1650   */\n          swap2\n          swap1\n          pop\n          jump\t// out\n            /* \"#utility.yul\":1656:1964   */\n        tag_32:\n            /* \"#utility.yul\":1718:1722   */\n          0x00\n            /* \"#utility.yul\":1808:1826   */\n          0xffffffffffffffff\n            /* \"#utility.yul\":1800:1806   */\n          dup3\n            /* \"#utility.yul\":1797:1827   */\n          gt\n            /* \"#utility.yul\":1794:1850   */\n          iszero\n          tag_63\n          jumpi\n            /* \"#utility.yul\":1830:1848   */\n          tag_64\n          tag_29\n          jump\t// in\n        tag_64:\n            /* \"#utility.yul\":1794:1850   */\n        tag_63:\n            /* \"#utility.yul\":1868:1897   */\n          tag_65\n            /* \"#utility.yul\":1890:1896   */\n          dup3\n            /* \"#utility.yul\":1868:1897   */\n          tag_28\n          jump\t// in\n        tag_65:\n            /* \"#utility.yul\":1860:1897   */\n          swap1\n          pop\n            /* \"#utility.yul\":1952:1956   */\n          0x20\n            /* \"#utility.yul\":1946:1950   */\n          dup2\n            /* \"#utility.yul\":1942:1957   */\n          add\n            /* \"#utility.yul\":1934:1957   */\n          swap1\n          pop\n            /* \"#utility.yul\":1656:1964   */\n          swap2\n          swap1\n          pop\n          jump\t// out\n            /* \"#utility.yul\":1970:2277   */\n        tag_33:\n            /* \"#utility.yul\":2038:2039   */\n          0x00\n            /* \"#utility.yul\":2048:2161   */\n        tag_67:\n            /* \"#utility.yul\":2062:2068   */\n          dup4\n            /* \"#utility.yul\":2059:2060   */\n          dup2\n            /* \"#utility.yul\":2056:2069   */\n          lt\n            /* \"#utility.yul\":2048:2161   */\n          iszero\n          tag_69\n          jumpi\n            /* \"#utility.yul\":2147:2148   */\n          dup1\n            /* \"#utility.yul\":2142:2145   */\n          dup3\n            /* \"#utility.yul\":2138:2149   */\n          add\n            /* \"#utility.yul\":2132:2150   */\n          mload\n            /* \"#utility.yul\":2128:2129   */\n          dup2\n            /* \"#utility.yul\":2123:2126   */\n          dup5\n            /* \"#utility.yul\":2119:2130   */\n          add\n            /* \"#utility.yul\":2112:2151   */\n          mstore\n            /* \"#utility.yul\":2084:2086   */\n          0x20\n            /* \"#utility.yul\":2081:2082   */\n          dup2\n            /* \"#utility.yul\":2077:2087   */\n          add\n            /* \"#utility.yul\":2072:2087   */\n          swap1\n          pop\n            /* \"#utility.yul\":2048:2161   */\n          jump(tag_67)\n        tag_69:\n            /* \"#utility.yul\":2179:2185   */\n          dup4\n            /* \"#utility.yul\":2176:2177   */\n          dup2\n            /* \"#utility.yul\":2173:2186   */\n          gt\n            /* \"#utility.yul\":2170:2271   */\n          iszero\n          tag_70\n          jumpi\n            /* \"#utility.yul\":2259:2260   */\n          0x00\n            /* \"#utility.yul\":2250:2256   */\n          dup5\n            /* \"#utility.yul\":2245:2248   */\n          dup5\n            /* \"#utility.yul\":2241:2257   */\n          add\n            /* \"#utility.yul\":2234:2261   */\n          mstore\n            /* \"#utility.yul\":2170:2271   */\n        tag_70:\n            /* \"#utility.yul\":2019:2277   */\n          pop\n            /* \"#utility.yul\":1970:2277   */\n          pop\n          pop\n          pop\n          jump\t// out\n            /* \"#utility.yul\":2283:2704   */\n        tag_34:\n            /* \"#utility.yul\":2372:2377   */\n          0x00\n            /* \"#utility.yul\":2397:2463   */\n          tag_72\n            /* \"#utility.yul\":2413:2462   */\n          tag_73\n            /* \"#utility.yul\":2455:2461   */\n          dup5\n            /* \"#utility.yul\":2413:2462   */\n          tag_32\n          jump\t// in\n        tag_73:\n            /* \"#utility.yul\":2397:2463   */\n          tag_31\n          jump\t// in\n        tag_72:\n            /* \"#utility.yul\":2388:2463   */\n          swap1\n          pop\n            /* \"#utility.yul\":2486:2492   */\n          dup3\n            /* \"#utility.yul\":2479:2484   */\n          dup2\n            /* \"#utility.yul\":2472:2493   */\n          mstore\n            /* \"#utility.yul\":2524:2528   */\n          0x20\n            /* \"#utility.yul\":2517:2522   */\n          dup2\n            /* \"#utility.yul\":2513:2529   */\n          add\n            /* \"#utility.yul\":2562:2565   */\n          dup5\n            /* \"#utility.yul\":2553:2559   */\n          dup5\n            /* \"#utility.yul\":2548:2551   */\n          dup5\n            /* \"#utility.yul\":2544:2560   */\n          add\n            /* \"#utility.yul\":2541:2566   */\n          gt\n            /* \"#utility.yul\":2538:2650   */\n          iszero\n          tag_74\n          jumpi\n            /* \"#utility.yul\":2569:2648   */\n          tag_75\n          tag_27\n          jump\t// in\n        tag_75:\n            /* \"#utility.yul\":2538:2650   */\n        tag_74:\n            /* \"#utility.yul\":2659:2698   */\n          tag_76\n            /* \"#utility.yul\":2691:2697   */\n          dup5\n            /* \"#utility.yul\":2686:2689   */\n          dup3\n            /* \"#utility.yul\":2681:2684   */\n          dup6\n            /* \"#utility.yul\":2659:2698   */\n          tag_33\n          jump\t// in\n        tag_76:\n            /* \"#utility.yul\":2378:2704   */\n          pop\n            /* \"#utility.yul\":2283:2704   */\n          swap4\n          swap3\n          pop\n          pop\n          pop\n          jump\t// out\n            /* \"#utility.yul\":2724:3079   */\n        tag_35:\n            /* \"#utility.yul\":2791:2796   */\n          0x00\n            /* \"#utility.yul\":2840:2843   */\n          dup3\n            /* \"#utility.yul\":2833:2837   */\n          0x1f\n            /* \"#utility.yul\":2825:2831   */\n          dup4\n            /* \"#utility.yul\":2821:2838   */\n          add\n            /* \"#utility.yul\":2817:2844   */\n          slt\n            /* \"#utility.yul\":2807:2929   */\n          tag_78\n          jumpi\n            /* \"#utility.yul\":2848:2927   */\n          tag_79\n          tag_26\n          jump\t// in\n        tag_79:\n            /* \"#utility.yul\":2807:2929   */\n        tag_78:\n            /* \"#utility.yul\":2958:2964   */\n          dup2\n            /* \"#utility.yul\":2952:2965   */\n          mload\n            /* \"#utility.yul\":2983:3073   */\n          tag_80\n            /* \"#utility.yul\":3069:3072   */\n          dup5\n            /* \"#utility.yul\":3061:3067   */\n          dup3\n            /* \"#utility.yul\":3054:3058   */\n          0x20\n            /* \"#utility.yul\":3046:3052   */\n          dup7\n            /* \"#utility.yul\":3042:3059   */\n          add\n            /* \"#utility.yul\":2983:3073   */\n          tag_34\n          jump\t// in\n        tag_80:\n            /* \"#utility.yul\":2974:3073   */\n          swap2\n          pop\n            /* \"#utility.yul\":2797:3079   */\n          pop\n            /* \"#utility.yul\":2724:3079   */\n          swap3\n          swap2\n          pop\n          pop\n          jump\t// out\n            /* \"#utility.yul\":3085:3211   */\n        tag_36:\n            /* \"#utility.yul\":3122:3129   */\n          0x00\n            /* \"#utility.yul\":3162:3204   */\n          0xffffffffffffffffffffffffffffffffffffffff\n            /* \"#utility.yul\":3155:3160   */\n          dup3\n            /* \"#utility.yul\":3151:3205   */\n          and\n            /* \"#utility.yul\":3140:3205   */\n          swap1\n          pop\n            /* \"#utility.yul\":3085:3211   */\n          swap2\n          swap1\n          pop\n          jump\t// out\n            /* \"#utility.yul\":3217:3313   */\n        tag_37:\n            /* \"#utility.yul\":3254:3261   */\n          0x00\n            /* \"#utility.yul\":3283:3307   */\n          tag_83\n            /* \"#utility.yul\":3301:3306   */\n          dup3\n            /* \"#utility.yul\":3283:3307   */\n          tag_36\n          jump\t// in\n        tag_83:\n            /* \"#utility.yul\":3272:3307   */\n          swap1\n          pop\n            /* \"#utility.yul\":3217:3313   */\n          swap2\n          swap1\n          pop\n          jump\t// out\n            /* \"#utility.yul\":3319:3441   */\n        tag_38:\n            /* \"#utility.yul\":3392:3416   */\n          tag_85\n            /* \"#utility.yul\":3410:3415   */\n          dup2\n            /* \"#utility.yul\":3392:3416   */\n          tag_37\n          jump\t// in\n        tag_85:\n            /* \"#utility.yul\":3385:3390   */\n          dup2\n            /* \"#utility.yul\":3382:3417   */\n          eq\n            /* \"#utility.yul\":3372:3435   */\n          tag_86\n          jumpi\n            /* \"#utility.yul\":3431:3432   */\n          0x00\n            /* \"#utility.yul\":3428:3429   */\n          dup1\n            /* \"#utility.yul\":3421:3433   */\n          revert\n            /* \"#utility.yul\":3372:3435   */\n        tag_86:\n            /* \"#utility.yul\":3319:3441   */\n          pop\n          jump\t// out\n            /* \"#utility.yul\":3447:3590   */\n        tag_39:\n            /* \"#utility.yul\":3504:3509   */\n          0x00\n            /* \"#utility.yul\":3535:3541   */\n          dup2\n            /* \"#utility.yul\":3529:3542   */\n          mload\n            /* \"#utility.yul\":3520:3542   */\n          swap1\n          pop\n            /* \"#utility.yul\":3551:3584   */\n          tag_88\n            /* \"#utility.yul\":3578:3583   */\n          dup2\n            /* \"#utility.yul\":3551:3584   */\n          tag_38\n          jump\t// in\n        tag_88:\n            /* \"#utility.yul\":3447:3590   */\n          swap3\n          swap2\n          pop\n          pop\n          jump\t// out\n            /* \"#utility.yul\":3596:4432   */\n        tag_3:\n            /* \"#utility.yul\":3694:3700   */\n          0x00\n            /* \"#utility.yul\":3702:3708   */\n          dup1\n            /* \"#utility.yul\":3710:3716   */\n          0x00\n            /* \"#utility.yul\":3759:3761   */\n          0x60\n            /* \"#utility.yul\":3747:3756   */\n          dup5\n            /* \"#utility.yul\":3738:3745   */\n          dup7\n            /* \"#utility.yul\":3734:3757   */\n          sub\n            /* \"#utility.yul\":3730:3762   */\n          slt\n            /* \"#utility.yul\":3727:3846   */\n          iszero\n          tag_90\n          jumpi\n            /* \"#utility.yul\":3765:3844   */\n          tag_91\n          tag_21\n          jump\t// in\n        tag_91:\n            /* \"#utility.yul\":3727:3846   */\n        tag_90:\n            /* \"#utility.yul\":3885:3886   */\n          0x00\n            /* \"#utility.yul\":3910:3974   */\n          tag_92\n            /* \"#utility.yul\":3966:3973   */\n          dup7\n            /* \"#utility.yul\":3957:3963   */\n          dup3\n            /* \"#utility.yul\":3946:3955   */\n          dup8\n            /* \"#utility.yul\":3942:3964   */\n          add\n            /* \"#utility.yul\":3910:3974   */\n          tag_25\n          jump\t// in\n        tag_92:\n            /* \"#utility.yul\":3900:3974   */\n          swap4\n          pop\n            /* \"#utility.yul\":3856:3984   */\n          pop\n            /* \"#utility.yul\":4044:4046   */\n          0x20\n            /* \"#utility.yul\":4033:4042   */\n          dup5\n            /* \"#utility.yul\":4029:4047   */\n          add\n            /* \"#utility.yul\":4023:4048   */\n          mload\n            /* \"#utility.yul\":4075:4093   */\n          0xffffffffffffffff\n            /* \"#utility.yul\":4067:4073   */\n          dup2\n            /* \"#utility.yul\":4064:4094   */\n          gt\n            /* \"#utility.yul\":4061:4178   */\n          iszero\n          tag_93\n          jumpi\n            /* \"#utility.yul\":4097:4176   */\n          tag_94\n          tag_22\n          jump\t// in\n        tag_94:\n            /* \"#utility.yul\":4061:4178   */\n        tag_93:\n            /* \"#utility.yul\":4202:4276   */\n          tag_95\n            /* \"#utility.yul\":4268:4275   */\n          dup7\n            /* \"#utility.yul\":4259:4265   */\n          dup3\n            /* \"#utility.yul\":4248:4257   */\n          dup8\n            /* \"#utility.yul\":4244:4266   */\n          add\n            /* \"#utility.yul\":4202:4276   */\n          tag_35\n          jump\t// in\n        tag_95:\n            /* \"#utility.yul\":4192:4276   */\n          swap3\n          pop\n            /* \"#utility.yul\":3994:4286   */\n          pop\n            /* \"#utility.yul\":4325:4327   */\n          0x40\n            /* \"#utility.yul\":4351:4415   */\n          tag_96\n            /* \"#utility.yul\":4407:4414   */\n          dup7\n            /* \"#utility.yul\":4398:4404   */\n          dup3\n            /* \"#utility.yul\":4387:4396   */\n          dup8\n            /* \"#utility.yul\":4383:4405   */\n          add\n            /* \"#utility.yul\":4351:4415   */\n          tag_39\n          jump\t// in\n        tag_96:\n            /* \"#utility.yul\":4341:4415   */\n          swap2\n          pop\n            /* \"#utility.yul\":4296:4425   */\n          pop\n            /* \"#utility.yul\":3596:4432   */\n          swap3\n          pop\n          swap3\n          pop\n          swap3\n          jump\t// out\n            /* \"#utility.yul\":4438:4618   */\n        tag_40:\n            /* \"#utility.yul\":4486:4563   */\n          0x4e487b7100000000000000000000000000000000000000000000000000000000\n            /* \"#utility.yul\":4483:4484   */\n          0x00\n            /* \"#utility.yul\":4476:4564   */\n          mstore\n            /* \"#utility.yul\":4583:4587   */\n          0x22\n            /* \"#utility.yul\":4580:4581   */\n          0x04\n            /* \"#utility.yul\":4573:4588   */\n          mstore\n            /* \"#utility.yul\":4607:4611   */\n          0x24\n            /* \"#utility.yul\":4604:4605   */\n          0x00\n            /* \"#utility.yul\":4597:4612   */\n          revert\n            /* \"#utility.yul\":4624:4944   */\n        tag_10:\n            /* \"#utility.yul\":4668:4674   */\n          0x00\n            /* \"#utility.yul\":4705:4706   */\n          0x02\n            /* \"#utility.yul\":4699:4703   */\n          dup3\n            /* \"#utility.yul\":4695:4707   */\n          div\n            /* \"#utility.yul\":4685:4707   */\n          swap1\n          pop\n            /* \"#utility.yul\":4752:4753   */\n          0x01\n            /* \"#utility.yul\":4746:4750   */\n          dup3\n            /* \"#utility.yul\":4742:4754   */\n          and\n            /* \"#utility.yul\":4773:4791   */\n          dup1\n            /* \"#utility.yul\":4763:4844   */\n          tag_99\n          jumpi\n            /* \"#utility.yul\":4829:4833   */\n          0x7f\n            /* \"#utility.yul\":4821:4827   */\n          dup3\n            /* \"#utility.yul\":4817:4834   */\n          and\n            /* \"#utility.yul\":4807:4834   */\n          swap2\n          pop\n            /* \"#utility.yul\":4763:4844   */\n        tag_99:\n            /* \"#utility.yul\":4891:4893   */\n          0x20\n            /* \"#utility.yul\":4883:4889   */\n          dup3\n            /* \"#utility.yul\":4880:4894   */\n          lt\n            /* \"#utility.yul\":4860:4878   */\n          dup2\n            /* \"#utility.yul\":4857:4895   */\n          eq\n            /* \"#utility.yul\":4854:4938   */\n          iszero\n          tag_100\n          jumpi\n            /* \"#utility.yul\":4910:4928   */\n          tag_101\n          tag_40\n          jump\t// in\n        tag_101:\n            /* \"#utility.yul\":4854:4938   */\n        tag_100:\n            /* \"#utility.yul\":4675:4944   */\n          pop\n            /* \"#utility.yul\":4624:4944   */\n          swap2\n          swap1\n          pop\n          jump\t// out\n            /* \"Campaing.sol\":464:2743  contract Campaign {... */\n        tag_8:\n          dataSize(sub_0)\n          dup1\n          dataOffset(sub_0)\n          0x00\n          codecopy\n          0x00\n          return\n        stop\n\n        sub_0: assembly {\n                /* \"Campaing.sol\":464:2743  contract Campaign {... */\n              mstore(0x40, 0x80)\n              jumpi(tag_1, lt(calldatasize, 0x04))\n              shr(0xe0, calldataload(0x00))\n              dup1\n              0x82fde093\n              gt\n              tag_14\n              jumpi\n              dup1\n              0x82fde093\n              eq\n              tag_8\n              jumpi\n              dup1\n              0x8a9cfd55\n              eq\n              tag_9\n              jumpi\n              dup1\n              0xa7f33715\n              eq\n              tag_10\n              jumpi\n              dup1\n              0xb02a8016\n              eq\n              tag_11\n              jumpi\n              dup1\n              0xd7bb99ba\n              eq\n              tag_12\n              jumpi\n              dup1\n              0xd7d1bbdb\n              eq\n              tag_13\n              jumpi\n              jump(tag_1)\n            tag_14:\n              dup1\n              0x03441006\n              eq\n              tag_2\n              jumpi\n              dup1\n              0x0a144391\n              eq\n              tag_3\n              jumpi\n              dup1\n              0x3410452a\n              eq\n              tag_4\n              jumpi\n              dup1\n              0x4051ddac\n              eq\n              tag_5\n              jumpi\n              dup1\n              0x481c6a75\n              eq\n              tag_6\n              jumpi\n              dup1\n              0x81d12c58\n              eq\n              tag_7\n              jumpi\n            tag_1:\n              0x00\n              dup1\n              revert\n                /* \"Campaing.sol\":2063:2370  function finalizeRequest(uint index) public onlyManager {... */\n            tag_2:\n              callvalue\n              dup1\n              iszero\n              tag_15\n              jumpi\n              0x00\n              dup1\n              revert\n            tag_15:\n              pop\n              tag_16\n              0x04\n              dup1\n              calldatasize\n              sub\n              dup2\n              add\n              swap1\n              tag_17\n              swap2\n              swap1\n              tag_18\n              jump\t// in\n            tag_17:\n              tag_19\n              jump\t// in\n            tag_16:\n              stop\n                /* \"Campaing.sol\":751:792  mapping(address => bool) public approvers */\n            tag_3:\n              callvalue\n              dup1\n              iszero\n              tag_20\n              jumpi\n              0x00\n              dup1\n              revert\n            tag_20:\n              pop\n              tag_21\n              0x04\n              dup1\n              calldatasize\n              sub\n              dup2\n              add\n              swap1\n              tag_22\n              swap2\n              swap1\n              tag_23\n              jump\t// in\n            tag_22:\n              tag_24\n              jump\t// in\n            tag_21:\n              mload(0x40)\n              tag_25\n              swap2\n              swap1\n              tag_26\n              jump\t// in\n            tag_25:\n              mload(0x40)\n              dup1\n              swap2\n              sub\n              swap1\n              return\n                /* \"Campaing.sol\":2646:2740  function getRequestsCount() public view returns (uint) {... */\n            tag_4:\n              callvalue\n              dup1\n              iszero\n              tag_27\n              jumpi\n              0x00\n              dup1\n              revert\n            tag_27:\n              pop\n              tag_28\n              tag_29\n              jump\t// in\n            tag_28:\n              mload(0x40)\n              tag_30\n              swap2\n              swap1\n              tag_31\n              jump\t// in\n            tag_30:\n              mload(0x40)\n              dup1\n              swap2\n              sub\n              swap1\n              return\n                /* \"Campaing.sol\":2376:2636  function getSummary() public view returns (... */\n            tag_5:\n              callvalue\n              dup1\n              iszero\n              tag_32\n              jumpi\n              0x00\n              dup1\n              revert\n            tag_32:\n              pop\n              tag_33\n              tag_34\n              jump\t// in\n            tag_33:\n              mload(0x40)\n              tag_35\n              swap6\n              swap5\n              swap4\n              swap3\n              swap2\n              swap1\n              tag_36\n              jump\t// in\n            tag_35:\n              mload(0x40)\n              dup1\n              swap2\n              sub\n              swap1\n              return\n                /* \"Campaing.sol\":686:708  address public manager */\n            tag_6:\n              callvalue\n              dup1\n              iszero\n              tag_37\n              jumpi\n              0x00\n              dup1\n              revert\n            tag_37:\n              pop\n              tag_38\n              tag_39\n              jump\t// in\n            tag_38:\n              mload(0x40)\n              tag_40\n              swap2\n              swap1\n              tag_41\n              jump\t// in\n            tag_40:\n              mload(0x40)\n              dup1\n              swap2\n              sub\n              swap1\n              return\n                /* \"Campaing.sol\":798:823  Request[] public requests */\n            tag_7:\n              callvalue\n              dup1\n              iszero\n              tag_42\n              jumpi\n              0x00\n              dup1\n              revert\n            tag_42:\n              pop\n              tag_43\n              0x04\n              dup1\n              calldatasize\n              sub\n              dup2\n              add\n              swap1\n              tag_44\n              swap2\n              swap1\n              tag_18\n              jump\t// in\n            tag_44:\n              tag_45\n              jump\t// in\n            tag_43:\n              mload(0x40)\n              tag_46\n              swap6\n              swap5\n              swap4\n              swap3\n              swap2\n              swap1\n              tag_47\n              jump\t// in\n            tag_46:\n              mload(0x40)\n              dup1\n              swap2\n              sub\n              swap1\n              return\n                /* \"Campaing.sol\":829:855  uint public approversCount */\n            tag_8:\n              callvalue\n              dup1\n              iszero\n              tag_48\n              jumpi\n              0x00\n              dup1\n              revert\n            tag_48:\n              pop\n              tag_49\n              tag_50\n              jump\t// in\n            tag_49:\n              mload(0x40)\n              tag_51\n              swap2\n              swap1\n              tag_31\n              jump\t// in\n            tag_51:\n              mload(0x40)\n              dup1\n              swap2\n              sub\n              swap1\n              return\n                /* \"Campaing.sol\":1351:1780  function createRequest(string memory description, uint value, address recipient)... */\n            tag_9:\n              callvalue\n              dup1\n              iszero\n              tag_52\n              jumpi\n              0x00\n              dup1\n              revert\n            tag_52:\n              pop\n              tag_53\n              0x04\n              dup1\n              calldatasize\n              sub\n              dup2\n              add\n              swap1\n              tag_54\n              swap2\n              swap1\n              tag_55\n              jump\t// in\n            tag_54:\n              tag_56\n              jump\t// in\n            tag_53:\n              stop\n                /* \"Campaing.sol\":714:745  uint public minimunContribution */\n            tag_10:\n              callvalue\n              dup1\n              iszero\n              tag_57\n              jumpi\n              0x00\n              dup1\n              revert\n            tag_57:\n              pop\n              tag_58\n              tag_59\n              jump\t// in\n            tag_58:\n              mload(0x40)\n              tag_60\n              swap2\n              swap1\n              tag_31\n              jump\t// in\n            tag_60:\n              mload(0x40)\n              dup1\n              swap2\n              sub\n              swap1\n              return\n                /* \"Campaing.sol\":861:887  string public nameCampaign */\n            tag_11:\n              callvalue\n              dup1\n              iszero\n              tag_61\n              jumpi\n              0x00\n              dup1\n              revert\n            tag_61:\n              pop\n              tag_62\n              tag_63\n              jump\t// in\n            tag_62:\n              mload(0x40)\n              tag_64\n              swap2\n              swap1\n              tag_65\n              jump\t// in\n            tag_64:\n              mload(0x40)\n              dup1\n              swap2\n              sub\n              swap1\n              return\n                /* \"Campaing.sol\":1152:1345  function contribute() public payable { //donare, contribuire al progetto... */\n            tag_12:\n              tag_66\n              tag_67\n              jump\t// in\n            tag_66:\n              stop\n                /* \"Campaing.sol\":1786:2056  function approveRequest(uint index) public {... */\n            tag_13:\n              callvalue\n              dup1\n              iszero\n              tag_68\n              jumpi\n              0x00\n              dup1\n              revert\n            tag_68:\n              pop\n              tag_69\n              0x04\n              dup1\n              calldatasize\n              sub\n              dup2\n              add\n              swap1\n              tag_70\n              swap2\n              swap1\n              tag_18\n              jump\t// in\n            tag_70:\n              tag_71\n              jump\t// in\n            tag_69:\n              stop\n                /* \"Campaing.sol\":2063:2370  function finalizeRequest(uint index) public onlyManager {... */\n            tag_19:\n                /* \"Campaing.sol\":949:956  manager */\n              0x00\n              dup1\n              sload\n              swap1\n              0x0100\n              exp\n              swap1\n              div\n              0xffffffffffffffffffffffffffffffffffffffff\n              and\n                /* \"Campaing.sol\":935:956  msg.sender == manager */\n              0xffffffffffffffffffffffffffffffffffffffff\n              and\n                /* \"Campaing.sol\":935:945  msg.sender */\n              caller\n                /* \"Campaing.sol\":935:956  msg.sender == manager */\n              0xffffffffffffffffffffffffffffffffffffffff\n              and\n              eq\n                /* \"Campaing.sol\":927:957  require(msg.sender == manager) */\n              tag_73\n              jumpi\n              0x00\n              dup1\n              revert\n            tag_73:\n                /* \"Campaing.sol\":2129:2152  Request storage request */\n              0x00\n                /* \"Campaing.sol\":2155:2163  requests */\n              0x03\n                /* \"Campaing.sol\":2164:2169  index */\n              dup3\n                /* \"Campaing.sol\":2155:2170  requests[index] */\n              dup2\n              sload\n              dup2\n              lt\n              tag_75\n              jumpi\n              tag_76\n              tag_77\n              jump\t// in\n            tag_76:\n            tag_75:\n              swap1\n              0x00\n              mstore\n              keccak256(0x00, 0x20)\n              swap1\n              0x05\n              mul\n              add\n                /* \"Campaing.sol\":2129:2170  Request storage request = requests[index] */\n              swap1\n              pop\n                /* \"Campaing.sol\":2230:2231  2 */\n              0x02\n                /* \"Campaing.sol\":2213:2227  approversCount */\n              sload(0x04)\n                /* \"Campaing.sol\":2213:2231  approversCount / 2 */\n              tag_79\n              swap2\n              swap1\n              tag_80\n              jump\t// in\n            tag_79:\n                /* \"Campaing.sol\":2188:2195  request */\n              dup2\n                /* \"Campaing.sol\":2188:2209  request.approvalCount */\n              0x03\n              add\n              sload\n                /* \"Campaing.sol\":2188:2232  request.approvalCount > (approversCount / 2) */\n              gt\n                /* \"Campaing.sol\":2180:2233  require(request.approvalCount > (approversCount / 2)) */\n              tag_81\n              jumpi\n              0x00\n              dup1\n              revert\n            tag_81:\n                /* \"Campaing.sol\":2252:2259  request */\n              dup1\n                /* \"Campaing.sol\":2252:2268  request.complete */\n              0x02\n              add\n              0x14\n              swap1\n              sload\n              swap1\n              0x0100\n              exp\n              swap1\n              div\n              0xff\n              and\n                /* \"Campaing.sol\":2251:2268  !request.complete */\n              iszero\n                /* \"Campaing.sol\":2243:2269  require(!request.complete) */\n              tag_82\n              jumpi\n              0x00\n              dup1\n              revert\n            tag_82:\n                /* \"Campaing.sol\":2288:2295  request */\n              dup1\n                /* \"Campaing.sol\":2288:2305  request.recipient */\n              0x02\n              add\n              0x00\n              swap1\n              sload\n              swap1\n              0x0100\n              exp\n              swap1\n              div\n              0xffffffffffffffffffffffffffffffffffffffff\n              and\n                /* \"Campaing.sol\":2280:2315  payable(request.recipient).transfer */\n              0xffffffffffffffffffffffffffffffffffffffff\n              and\n                /* \"Campaing.sol\":2280:2330  payable(request.recipient).transfer(request.value) */\n              0x08fc\n                /* \"Campaing.sol\":2316:2323  request */\n              dup3\n                /* \"Campaing.sol\":2316:2329  request.value */\n              0x01\n              add\n              sload\n                /* \"Campaing.sol\":2280:2330  payable(request.recipient).transfer(request.value) */\n              swap1\n              dup2\n              iszero\n              mul\n              swap1\n              mload(0x40)\n              0x00\n              mload(0x40)\n              dup1\n              dup4\n              sub\n              dup2\n              dup6\n              dup9\n              dup9\n              call\n              swap4\n              pop\n              pop\n              pop\n              pop\n              iszero\n              dup1\n              iszero\n              tag_84\n              jumpi\n              returndatasize\n              0x00\n              dup1\n              returndatacopy\n              revert(0x00, returndatasize)\n            tag_84:\n              pop\n                /* \"Campaing.sol\":2359:2363  true */\n              0x01\n                /* \"Campaing.sol\":2340:2347  request */\n              dup2\n                /* \"Campaing.sol\":2340:2356  request.complete */\n              0x02\n              add\n              0x14\n                /* \"Campaing.sol\":2340:2363  request.complete = true */\n              0x0100\n              exp\n              dup2\n              sload\n              dup2\n              0xff\n              mul\n              not\n              and\n              swap1\n              dup4\n              iszero\n              iszero\n              mul\n              or\n              swap1\n              sstore\n              pop\n                /* \"Campaing.sol\":2119:2370  {... */\n              pop\n                /* \"Campaing.sol\":2063:2370  function finalizeRequest(uint index) public onlyManager {... */\n              pop\n              jump\t// out\n                /* \"Campaing.sol\":751:792  mapping(address => bool) public approvers */\n            tag_24:\n              mstore(0x20, 0x02)\n              dup1\n              0x00\n              mstore\n              keccak256(0x00, 0x40)\n              0x00\n              swap2\n              pop\n              sload\n              swap1\n              0x0100\n              exp\n              swap1\n              div\n              0xff\n              and\n              dup2\n              jump\t// out\n                /* \"Campaing.sol\":2646:2740  function getRequestsCount() public view returns (uint) {... */\n            tag_29:\n                /* \"Campaing.sol\":2695:2699  uint */\n              0x00\n                /* \"Campaing.sol\":2718:2726  requests */\n              0x03\n                /* \"Campaing.sol\":2718:2733  requests.length */\n              dup1\n              sload\n              swap1\n              pop\n                /* \"Campaing.sol\":2711:2733  return requests.length */\n              swap1\n              pop\n                /* \"Campaing.sol\":2646:2740  function getRequestsCount() public view returns (uint) {... */\n              swap1\n              jump\t// out\n                /* \"Campaing.sol\":2376:2636  function getSummary() public view returns (... */\n            tag_34:\n                /* \"Campaing.sol\":2426:2430  uint */\n              0x00\n                /* \"Campaing.sol\":2432:2436  uint */\n              dup1\n                /* \"Campaing.sol\":2438:2442  uint */\n              0x00\n                /* \"Campaing.sol\":2444:2448  uint */\n              dup1\n                /* \"Campaing.sol\":2450:2457  address */\n              0x00\n                /* \"Campaing.sol\":2495:2514  minimunContribution */\n              sload(0x01)\n                /* \"Campaing.sol\":2526:2547  address(this).balance */\n              selfbalance\n                /* \"Campaing.sol\":2559:2567  requests */\n              0x03\n                /* \"Campaing.sol\":2559:2574  requests.length */\n              dup1\n              sload\n              swap1\n              pop\n                /* \"Campaing.sol\":2586:2600  approversCount */\n              sload(0x04)\n                /* \"Campaing.sol\":2612:2619  manager */\n              0x00\n              dup1\n              sload\n              swap1\n              0x0100\n              exp\n              swap1\n              div\n              0xffffffffffffffffffffffffffffffffffffffff\n              and\n                /* \"Campaing.sol\":2476:2629  return (... */\n              swap5\n              pop\n              swap5\n              pop\n              swap5\n              pop\n              swap5\n              pop\n              swap5\n              pop\n                /* \"Campaing.sol\":2376:2636  function getSummary() public view returns (... */\n              swap1\n              swap2\n              swap3\n              swap4\n              swap5\n              jump\t// out\n                /* \"Campaing.sol\":686:708  address public manager */\n            tag_39:\n              0x00\n              dup1\n              sload\n              swap1\n              0x0100\n              exp\n              swap1\n              div\n              0xffffffffffffffffffffffffffffffffffffffff\n              and\n              dup2\n              jump\t// out\n                /* \"Campaing.sol\":798:823  Request[] public requests */\n            tag_45:\n              0x03\n              dup2\n              dup2\n              sload\n              dup2\n              lt\n              tag_87\n              jumpi\n              0x00\n              dup1\n              revert\n            tag_87:\n              swap1\n              0x00\n              mstore\n              keccak256(0x00, 0x20)\n              swap1\n              0x05\n              mul\n              add\n              0x00\n              swap2\n              pop\n              swap1\n              pop\n              dup1\n              0x00\n              add\n              dup1\n              sload\n              tag_89\n              swap1\n              tag_90\n              jump\t// in\n            tag_89:\n              dup1\n              0x1f\n              add\n              0x20\n              dup1\n              swap2\n              div\n              mul\n              0x20\n              add\n              mload(0x40)\n              swap1\n              dup2\n              add\n              0x40\n              mstore\n              dup1\n              swap3\n              swap2\n              swap1\n              dup2\n              dup2\n              mstore\n              0x20\n              add\n              dup3\n              dup1\n              sload\n              tag_91\n              swap1\n              tag_90\n              jump\t// in\n            tag_91:\n              dup1\n              iszero\n              tag_92\n              jumpi\n              dup1\n              0x1f\n              lt\n              tag_93\n              jumpi\n              0x0100\n              dup1\n              dup4\n              sload\n              div\n              mul\n              dup4\n              mstore\n              swap2\n              0x20\n              add\n              swap2\n              jump(tag_92)\n            tag_93:\n              dup3\n              add\n              swap2\n              swap1\n              0x00\n              mstore\n              keccak256(0x00, 0x20)\n              swap1\n            tag_94:\n              dup2\n              sload\n              dup2\n              mstore\n              swap1\n              0x01\n              add\n              swap1\n              0x20\n              add\n              dup1\n              dup4\n              gt\n              tag_94\n              jumpi\n              dup3\n              swap1\n              sub\n              0x1f\n              and\n              dup3\n              add\n              swap2\n            tag_92:\n              pop\n              pop\n              pop\n              pop\n              pop\n              swap1\n              dup1\n              0x01\n              add\n              sload\n              swap1\n              dup1\n              0x02\n              add\n              0x00\n              swap1\n              sload\n              swap1\n              0x0100\n              exp\n              swap1\n              div\n              0xffffffffffffffffffffffffffffffffffffffff\n              and\n              swap1\n              dup1\n              0x02\n              add\n              0x14\n              swap1\n              sload\n              swap1\n              0x0100\n              exp\n              swap1\n              div\n              0xff\n              and\n              swap1\n              dup1\n              0x03\n              add\n              sload\n              swap1\n              pop\n              dup6\n              jump\t// out\n                /* \"Campaing.sol\":829:855  uint public approversCount */\n            tag_50:\n              sload(0x04)\n              dup2\n              jump\t// out\n                /* \"Campaing.sol\":1351:1780  function createRequest(string memory description, uint value, address recipient)... */\n            tag_56:\n                /* \"Campaing.sol\":949:956  manager */\n              0x00\n              dup1\n              sload\n              swap1\n              0x0100\n              exp\n              swap1\n              div\n              0xffffffffffffffffffffffffffffffffffffffff\n              and\n                /* \"Campaing.sol\":935:956  msg.sender == manager */\n              0xffffffffffffffffffffffffffffffffffffffff\n              and\n                /* \"Campaing.sol\":935:945  msg.sender */\n              caller\n                /* \"Campaing.sol\":935:956  msg.sender == manager */\n              0xffffffffffffffffffffffffffffffffffffffff\n              and\n              eq\n                /* \"Campaing.sol\":927:957  require(msg.sender == manager) */\n              tag_96\n              jumpi\n              0x00\n              dup1\n              revert\n            tag_96:\n                /* \"Campaing.sol\":1515:1541  Request storage newRequest */\n              0x00\n                /* \"Campaing.sol\":1544:1552  requests */\n              0x03\n                /* \"Campaing.sol\":1544:1559  requests.push() */\n              0x01\n              dup2\n              0x01\n              dup2\n              sload\n              add\n              dup1\n              dup3\n              sstore\n              dup1\n              swap2\n              pop\n              pop\n              sub\n              swap1\n              0x00\n              mstore\n              keccak256(0x00, 0x20)\n              swap1\n              0x05\n              mul\n              add\n                /* \"Campaing.sol\":1515:1559  Request storage newRequest = requests.push() */\n              swap1\n              pop\n                /* \"Campaing.sol\":1599:1610  description */\n              dup4\n                /* \"Campaing.sol\":1574:1584  newRequest */\n              dup2\n                /* \"Campaing.sol\":1574:1596  newRequest.description */\n              0x00\n              add\n                /* \"Campaing.sol\":1574:1610  newRequest.description = description */\n              swap1\n              dup1\n              mload\n              swap1\n              0x20\n              add\n              swap1\n              tag_99\n              swap3\n              swap2\n              swap1\n              tag_100\n              jump\t// in\n            tag_99:\n              pop\n                /* \"Campaing.sol\":1642:1647  value */\n              dup3\n                /* \"Campaing.sol\":1624:1634  newRequest */\n              dup2\n                /* \"Campaing.sol\":1624:1640  newRequest.value */\n              0x01\n              add\n                /* \"Campaing.sol\":1624:1647  newRequest.value= value */\n              dup2\n              swap1\n              sstore\n              pop\n                /* \"Campaing.sol\":1683:1692  recipient */\n              dup2\n                /* \"Campaing.sol\":1661:1671  newRequest */\n              dup2\n                /* \"Campaing.sol\":1661:1681  newRequest.recipient */\n              0x02\n              add\n              0x00\n                /* \"Campaing.sol\":1661:1692  newRequest.recipient= recipient */\n              0x0100\n              exp\n              dup2\n              sload\n              dup2\n              0xffffffffffffffffffffffffffffffffffffffff\n              mul\n              not\n              and\n              swap1\n              dup4\n              0xffffffffffffffffffffffffffffffffffffffff\n              and\n              mul\n              or\n              swap1\n              sstore\n              pop\n                /* \"Campaing.sol\":1727:1732  false */\n              0x00\n                /* \"Campaing.sol\":1706:1716  newRequest */\n              dup2\n                /* \"Campaing.sol\":1706:1725  newRequest.complete */\n              0x02\n              add\n              0x14\n                /* \"Campaing.sol\":1706:1732  newRequest.complete= false */\n              0x0100\n              exp\n              dup2\n              sload\n              dup2\n              0xff\n              mul\n              not\n              and\n              swap1\n              dup4\n              iszero\n              iszero\n              mul\n              or\n              swap1\n              sstore\n              pop\n                /* \"Campaing.sol\":1772:1773  0 */\n              0x00\n                /* \"Campaing.sol\":1746:1756  newRequest */\n              dup2\n                /* \"Campaing.sol\":1746:1770  newRequest.approvalCount */\n              0x03\n              add\n                /* \"Campaing.sol\":1746:1773  newRequest.approvalCount= 0 */\n              dup2\n              swap1\n              sstore\n              pop\n                /* \"Campaing.sol\":1459:1780  { //manager pu creare una nuova richiesta... */\n              pop\n                /* \"Campaing.sol\":1351:1780  function createRequest(string memory description, uint value, address recipient)... */\n              pop\n              pop\n              pop\n              jump\t// out\n                /* \"Campaing.sol\":714:745  uint public minimunContribution */\n            tag_59:\n              sload(0x01)\n              dup2\n              jump\t// out\n                /* \"Campaing.sol\":861:887  string public nameCampaign */\n            tag_63:\n              0x05\n              dup1\n              sload\n              tag_101\n              swap1\n              tag_90\n              jump\t// in\n            tag_101:\n              dup1\n              0x1f\n              add\n              0x20\n              dup1\n              swap2\n              div\n              mul\n              0x20\n              add\n              mload(0x40)\n              swap1\n              dup2\n              add\n              0x40\n              mstore\n              dup1\n              swap3\n              swap2\n              swap1\n              dup2\n              dup2\n              mstore\n              0x20\n              add\n              dup3\n              dup1\n              sload\n              tag_102\n              swap1\n              tag_90\n              jump\t// in\n            tag_102:\n              dup1\n              iszero\n              tag_103\n              jumpi\n              dup1\n              0x1f\n              lt\n              tag_104\n              jumpi\n              0x0100\n              dup1\n              dup4\n              sload\n              div\n              mul\n              dup4\n              mstore\n              swap2\n              0x20\n              add\n              swap2\n              jump(tag_103)\n            tag_104:\n              dup3\n              add\n              swap2\n              swap1\n              0x00\n              mstore\n              keccak256(0x00, 0x20)\n              swap1\n            tag_105:\n              dup2\n              sload\n              dup2\n              mstore\n              swap1\n              0x01\n              add\n              swap1\n              0x20\n              add\n              dup1\n              dup4\n              gt\n              tag_105\n              jumpi\n              dup3\n              swap1\n              sub\n              0x1f\n              and\n              dup3\n              add\n              swap2\n            tag_103:\n              pop\n              pop\n              pop\n              pop\n              pop\n              dup2\n              jump\t// out\n                /* \"Campaing.sol\":1152:1345  function contribute() public payable { //donare, contribuire al progetto... */\n            tag_67:\n                /* \"Campaing.sol\":1253:1272  minimunContribution */\n              sload(0x01)\n                /* \"Campaing.sol\":1241:1250  msg.value */\n              callvalue\n                /* \"Campaing.sol\":1241:1272  msg.value > minimunContribution */\n              gt\n                /* \"Campaing.sol\":1233:1273  require(msg.value > minimunContribution) */\n              tag_107\n              jumpi\n              0x00\n              dup1\n              revert\n            tag_107:\n                /* \"Campaing.sol\":1308:1312  true */\n              0x01\n                /* \"Campaing.sol\":1284:1293  approvers */\n              0x02\n                /* \"Campaing.sol\":1284:1305  approvers[msg.sender] */\n              0x00\n                /* \"Campaing.sol\":1294:1304  msg.sender */\n              caller\n                /* \"Campaing.sol\":1284:1305  approvers[msg.sender] */\n              0xffffffffffffffffffffffffffffffffffffffff\n              and\n              0xffffffffffffffffffffffffffffffffffffffff\n              and\n              dup2\n              mstore\n              0x20\n              add\n              swap1\n              dup2\n              mstore\n              0x20\n              add\n              0x00\n              keccak256\n              0x00\n                /* \"Campaing.sol\":1284:1312  approvers[msg.sender] = true */\n              0x0100\n              exp\n              dup2\n              sload\n              dup2\n              0xff\n              mul\n              not\n              and\n              swap1\n              dup4\n              iszero\n              iszero\n              mul\n              or\n              swap1\n              sstore\n              pop\n                /* \"Campaing.sol\":1322:1336  approversCount */\n              0x04\n              0x00\n                /* \"Campaing.sol\":1322:1338  approversCount++ */\n              dup2\n              sload\n              dup1\n              swap3\n              swap2\n              swap1\n              tag_108\n              swap1\n              tag_109\n              jump\t// in\n            tag_108:\n              swap2\n              swap1\n              pop\n              sstore\n              pop\n                /* \"Campaing.sol\":1152:1345  function contribute() public payable { //donare, contribuire al progetto... */\n              jump\t// out\n                /* \"Campaing.sol\":1786:2056  function approveRequest(uint index) public {... */\n            tag_71:\n                /* \"Campaing.sol\":1839:1862  Request storage request */\n              0x00\n                /* \"Campaing.sol\":1865:1873  requests */\n              0x03\n                /* \"Campaing.sol\":1874:1879  index */\n              dup3\n                /* \"Campaing.sol\":1865:1880  requests[index] */\n              dup2\n              sload\n              dup2\n              lt\n              tag_111\n              jumpi\n              tag_112\n              tag_77\n              jump\t// in\n            tag_112:\n            tag_111:\n              swap1\n              0x00\n              mstore\n              keccak256(0x00, 0x20)\n              swap1\n              0x05\n              mul\n              add\n                /* \"Campaing.sol\":1839:1880  Request storage request = requests[index] */\n              swap1\n              pop\n                /* \"Campaing.sol\":1898:1907  approvers */\n              0x02\n                /* \"Campaing.sol\":1898:1919  approvers[msg.sender] */\n              0x00\n                /* \"Campaing.sol\":1908:1918  msg.sender */\n              caller\n                /* \"Campaing.sol\":1898:1919  approvers[msg.sender] */\n              0xffffffffffffffffffffffffffffffffffffffff\n              and\n              0xffffffffffffffffffffffffffffffffffffffff\n              and\n              dup2\n              mstore\n              0x20\n              add\n              swap1\n              dup2\n              mstore\n              0x20\n              add\n              0x00\n              keccak256\n              0x00\n              swap1\n              sload\n              swap1\n              0x0100\n              exp\n              swap1\n              div\n              0xff\n              and\n                /* \"Campaing.sol\":1890:1920  require(approvers[msg.sender]) */\n              tag_114\n              jumpi\n              0x00\n              dup1\n              revert\n            tag_114:\n                /* \"Campaing.sol\":1939:1946  request */\n              dup1\n                /* \"Campaing.sol\":1939:1956  request.approvals */\n              0x04\n              add\n                /* \"Campaing.sol\":1939:1968  request.approvals[msg.sender] */\n              0x00\n                /* \"Campaing.sol\":1957:1967  msg.sender */\n              caller\n                /* \"Campaing.sol\":1939:1968  request.approvals[msg.sender] */\n              0xffffffffffffffffffffffffffffffffffffffff\n              and\n              0xffffffffffffffffffffffffffffffffffffffff\n              and\n              dup2\n              mstore\n              0x20\n              add\n              swap1\n              dup2\n              mstore\n              0x20\n              add\n              0x00\n              keccak256\n              0x00\n              swap1\n              sload\n              swap1\n              0x0100\n              exp\n              swap1\n              div\n              0xff\n              and\n                /* \"Campaing.sol\":1938:1968  !request.approvals[msg.sender] */\n              iszero\n                /* \"Campaing.sol\":1930:1969  require(!request.approvals[msg.sender]) */\n              tag_115\n              jumpi\n              0x00\n              dup1\n              revert\n            tag_115:\n                /* \"Campaing.sol\":2012:2016  true */\n              0x01\n                /* \"Campaing.sol\":1980:1987  request */\n              dup2\n                /* \"Campaing.sol\":1980:1997  request.approvals */\n              0x04\n              add\n                /* \"Campaing.sol\":1980:2009  request.approvals[msg.sender] */\n              0x00\n                /* \"Campaing.sol\":1998:2008  msg.sender */\n              caller\n                /* \"Campaing.sol\":1980:2009  request.approvals[msg.sender] */\n              0xffffffffffffffffffffffffffffffffffffffff\n              and\n              0xffffffffffffffffffffffffffffffffffffffff\n              and\n              dup2\n              mstore\n              0x20\n              add\n              swap1\n              dup2\n              mstore\n              0x20\n              add\n              0x00\n              keccak256\n              0x00\n                /* \"Campaing.sol\":1980:2016  request.approvals[msg.sender] = true */\n              0x0100\n              exp\n              dup2\n              sload\n              dup2\n              0xff\n              mul\n              not\n              and\n              swap1\n              dup4\n              iszero\n              iszero\n              mul\n              or\n              swap1\n              sstore\n              pop\n                /* \"Campaing.sol\":2026:2033  request */\n              dup1\n                /* \"Campaing.sol\":2026:2047  request.approvalCount */\n              0x03\n              add\n              0x00\n                /* \"Campaing.sol\":2026:2049  request.approvalCount++ */\n              dup2\n              sload\n              dup1\n              swap3\n              swap2\n              swap1\n              tag_116\n              swap1\n              tag_109\n              jump\t// in\n            tag_116:\n              swap2\n              swap1\n              pop\n              sstore\n              pop\n                /* \"Campaing.sol\":1829:2056  {... */\n              pop\n                /* \"Campaing.sol\":1786:2056  function approveRequest(uint index) public {... */\n              pop\n              jump\t// out\n            tag_100:\n              dup3\n              dup1\n              sload\n              tag_117\n              swap1\n              tag_90\n              jump\t// in\n            tag_117:\n              swap1\n              0x00\n              mstore\n              keccak256(0x00, 0x20)\n              swap1\n              0x1f\n              add\n              0x20\n              swap1\n              div\n              dup2\n              add\n              swap3\n              dup3\n              tag_119\n              jumpi\n              0x00\n              dup6\n              sstore\n              jump(tag_118)\n            tag_119:\n              dup3\n              0x1f\n              lt\n              tag_120\n              jumpi\n              dup1\n              mload\n              not(0xff)\n              and\n              dup4\n              dup1\n              add\n              or\n              dup6\n              sstore\n              jump(tag_118)\n            tag_120:\n              dup3\n              dup1\n              add\n              0x01\n              add\n              dup6\n              sstore\n              dup3\n              iszero\n              tag_118\n              jumpi\n              swap2\n              dup3\n              add\n            tag_121:\n              dup3\n              dup2\n              gt\n              iszero\n              tag_122\n              jumpi\n              dup3\n              mload\n              dup3\n              sstore\n              swap2\n              0x20\n              add\n              swap2\n              swap1\n              0x01\n              add\n              swap1\n              jump(tag_121)\n            tag_122:\n            tag_118:\n              pop\n              swap1\n              pop\n              tag_123\n              swap2\n              swap1\n              tag_124\n              jump\t// in\n            tag_123:\n              pop\n              swap1\n              jump\t// out\n            tag_124:\n            tag_125:\n              dup1\n              dup3\n              gt\n              iszero\n              tag_126\n              jumpi\n              0x00\n              dup2\n              0x00\n              swap1\n              sstore\n              pop\n              0x01\n              add\n              jump(tag_125)\n            tag_126:\n              pop\n              swap1\n              jump\t// out\n                /* \"#utility.yul\":7:82   */\n            tag_127:\n                /* \"#utility.yul\":40:46   */\n              0x00\n                /* \"#utility.yul\":73:75   */\n              0x40\n                /* \"#utility.yul\":67:76   */\n              mload\n                /* \"#utility.yul\":57:76   */\n              swap1\n              pop\n                /* \"#utility.yul\":7:82   */\n              swap1\n              jump\t// out\n                /* \"#utility.yul\":88:205   */\n            tag_128:\n                /* \"#utility.yul\":197:198   */\n              0x00\n                /* \"#utility.yul\":194:195   */\n              dup1\n                /* \"#utility.yul\":187:199   */\n              revert\n                /* \"#utility.yul\":211:328   */\n            tag_129:\n                /* \"#utility.yul\":320:321   */\n              0x00\n                /* \"#utility.yul\":317:318   */\n              dup1\n                /* \"#utility.yul\":310:322   */\n              revert\n                /* \"#utility.yul\":334:411   */\n            tag_130:\n                /* \"#utility.yul\":371:378   */\n              0x00\n                /* \"#utility.yul\":400:405   */\n              dup2\n                /* \"#utility.yul\":389:405   */\n              swap1\n              pop\n                /* \"#utility.yul\":334:411   */\n              swap2\n              swap1\n              pop\n              jump\t// out\n                /* \"#utility.yul\":417:539   */\n            tag_131:\n                /* \"#utility.yul\":490:514   */\n              tag_164\n                /* \"#utility.yul\":508:513   */\n              dup2\n                /* \"#utility.yul\":490:514   */\n              tag_130\n              jump\t// in\n            tag_164:\n                /* \"#utility.yul\":483:488   */\n              dup2\n                /* \"#utility.yul\":480:515   */\n              eq\n                /* \"#utility.yul\":470:533   */\n              tag_165\n              jumpi\n                /* \"#utility.yul\":529:530   */\n              0x00\n                /* \"#utility.yul\":526:527   */\n              dup1\n                /* \"#utility.yul\":519:531   */\n              revert\n                /* \"#utility.yul\":470:533   */\n            tag_165:\n                /* \"#utility.yul\":417:539   */\n              pop\n              jump\t// out\n                /* \"#utility.yul\":545:684   */\n            tag_132:\n                /* \"#utility.yul\":591:596   */\n              0x00\n                /* \"#utility.yul\":629:635   */\n              dup2\n                /* \"#utility.yul\":616:636   */\n              calldataload\n                /* \"#utility.yul\":607:636   */\n              swap1\n              pop\n                /* \"#utility.yul\":645:678   */\n              tag_167\n                /* \"#utility.yul\":672:677   */\n              dup2\n                /* \"#utility.yul\":645:678   */\n              tag_131\n              jump\t// in\n            tag_167:\n                /* \"#utility.yul\":545:684   */\n              swap3\n              swap2\n              pop\n              pop\n              jump\t// out\n                /* \"#utility.yul\":690:1019   */\n            tag_18:\n                /* \"#utility.yul\":749:755   */\n              0x00\n                /* \"#utility.yul\":798:800   */\n              0x20\n                /* \"#utility.yul\":786:795   */\n              dup3\n                /* \"#utility.yul\":777:784   */\n              dup5\n                /* \"#utility.yul\":773:796   */\n              sub\n                /* \"#utility.yul\":769:801   */\n              slt\n                /* \"#utility.yul\":766:885   */\n              iszero\n              tag_169\n              jumpi\n                /* \"#utility.yul\":804:883   */\n              tag_170\n              tag_128\n              jump\t// in\n            tag_170:\n                /* \"#utility.yul\":766:885   */\n            tag_169:\n                /* \"#utility.yul\":924:925   */\n              0x00\n                /* \"#utility.yul\":949:1002   */\n              tag_171\n                /* \"#utility.yul\":994:1001   */\n              dup5\n                /* \"#utility.yul\":985:991   */\n              dup3\n                /* \"#utility.yul\":974:983   */\n              dup6\n                /* \"#utility.yul\":970:992   */\n              add\n                /* \"#utility.yul\":949:1002   */\n              tag_132\n              jump\t// in\n            tag_171:\n                /* \"#utility.yul\":939:1002   */\n              swap2\n              pop\n                /* \"#utility.yul\":895:1012   */\n              pop\n                /* \"#utility.yul\":690:1019   */\n              swap3\n              swap2\n              pop\n              pop\n              jump\t// out\n                /* \"#utility.yul\":1025:1151   */\n            tag_133:\n                /* \"#utility.yul\":1062:1069   */\n              0x00\n                /* \"#utility.yul\":1102:1144   */\n              0xffffffffffffffffffffffffffffffffffffffff\n                /* \"#utility.yul\":1095:1100   */\n              dup3\n                /* \"#utility.yul\":1091:1145   */\n              and\n                /* \"#utility.yul\":1080:1145   */\n              swap1\n              pop\n                /* \"#utility.yul\":1025:1151   */\n              swap2\n              swap1\n              pop\n              jump\t// out\n                /* \"#utility.yul\":1157:1253   */\n            tag_134:\n                /* \"#utility.yul\":1194:1201   */\n              0x00\n                /* \"#utility.yul\":1223:1247   */\n              tag_174\n                /* \"#utility.yul\":1241:1246   */\n              dup3\n                /* \"#utility.yul\":1223:1247   */\n              tag_133\n              jump\t// in\n            tag_174:\n                /* \"#utility.yul\":1212:1247   */\n              swap1\n              pop\n                /* \"#utility.yul\":1157:1253   */\n              swap2\n              swap1\n              pop\n              jump\t// out\n                /* \"#utility.yul\":1259:1381   */\n            tag_135:\n                /* \"#utility.yul\":1332:1356   */\n              tag_176\n                /* \"#utility.yul\":1350:1355   */\n              dup2\n                /* \"#utility.yul\":1332:1356   */\n              tag_134\n              jump\t// in\n            tag_176:\n                /* \"#utility.yul\":1325:1330   */\n              dup2\n                /* \"#utility.yul\":1322:1357   */\n              eq\n                /* \"#utility.yul\":1312:1375   */\n              tag_177\n              jumpi\n                /* \"#utility.yul\":1371:1372   */\n              0x00\n                /* \"#utility.yul\":1368:1369   */\n              dup1\n                /* \"#utility.yul\":1361:1373   */\n              revert\n                /* \"#utility.yul\":1312:1375   */\n            tag_177:\n                /* \"#utility.yul\":1259:1381   */\n              pop\n              jump\t// out\n                /* \"#utility.yul\":1387:1526   */\n            tag_136:\n                /* \"#utility.yul\":1433:1438   */\n              0x00\n                /* \"#utility.yul\":1471:1477   */\n              dup2\n                /* \"#utility.yul\":1458:1478   */\n              calldataload\n                /* \"#utility.yul\":1449:1478   */\n              swap1\n              pop\n                /* \"#utility.yul\":1487:1520   */\n              tag_179\n                /* \"#utility.yul\":1514:1519   */\n              dup2\n                /* \"#utility.yul\":1487:1520   */\n              tag_135\n              jump\t// in\n            tag_179:\n                /* \"#utility.yul\":1387:1526   */\n              swap3\n              swap2\n              pop\n              pop\n              jump\t// out\n                /* \"#utility.yul\":1532:1861   */\n            tag_23:\n                /* \"#utility.yul\":1591:1597   */\n              0x00\n                /* \"#utility.yul\":1640:1642   */\n              0x20\n                /* \"#utility.yul\":1628:1637   */\n              dup3\n                /* \"#utility.yul\":1619:1626   */\n              dup5\n                /* \"#utility.yul\":1615:1638   */\n              sub\n                /* \"#utility.yul\":1611:1643   */\n              slt\n                /* \"#utility.yul\":1608:1727   */\n              iszero\n              tag_181\n              jumpi\n                /* \"#utility.yul\":1646:1725   */\n              tag_182\n              tag_128\n              jump\t// in\n            tag_182:\n                /* \"#utility.yul\":1608:1727   */\n            tag_181:\n                /* \"#utility.yul\":1766:1767   */\n              0x00\n                /* \"#utility.yul\":1791:1844   */\n              tag_183\n                /* \"#utility.yul\":1836:1843   */\n              dup5\n                /* \"#utility.yul\":1827:1833   */\n              dup3\n                /* \"#utility.yul\":1816:1825   */\n              dup6\n                /* \"#utility.yul\":1812:1834   */\n              add\n                /* \"#utility.yul\":1791:1844   */\n              tag_136\n              jump\t// in\n            tag_183:\n                /* \"#utility.yul\":1781:1844   */\n              swap2\n              pop\n                /* \"#utility.yul\":1737:1854   */\n              pop\n                /* \"#utility.yul\":1532:1861   */\n              swap3\n              swap2\n              pop\n              pop\n              jump\t// out\n                /* \"#utility.yul\":1867:1957   */\n            tag_137:\n                /* \"#utility.yul\":1901:1908   */\n              0x00\n                /* \"#utility.yul\":1944:1949   */\n              dup2\n                /* \"#utility.yul\":1937:1950   */\n              iszero\n                /* \"#utility.yul\":1930:1951   */\n              iszero\n                /* \"#utility.yul\":1919:1951   */\n              swap1\n              pop\n                /* \"#utility.yul\":1867:1957   */\n              swap2\n              swap1\n              pop\n              jump\t// out\n                /* \"#utility.yul\":1963:2072   */\n            tag_138:\n                /* \"#utility.yul\":2044:2065   */\n              tag_186\n                /* \"#utility.yul\":2059:2064   */\n              dup2\n                /* \"#utility.yul\":2044:2065   */\n              tag_137\n              jump\t// in\n            tag_186:\n                /* \"#utility.yul\":2039:2042   */\n              dup3\n                /* \"#utility.yul\":2032:2066   */\n              mstore\n                /* \"#utility.yul\":1963:2072   */\n              pop\n              pop\n              jump\t// out\n                /* \"#utility.yul\":2078:2288   */\n            tag_26:\n                /* \"#utility.yul\":2165:2169   */\n              0x00\n                /* \"#utility.yul\":2203:2205   */\n              0x20\n                /* \"#utility.yul\":2192:2201   */\n              dup3\n                /* \"#utility.yul\":2188:2206   */\n              add\n                /* \"#utility.yul\":2180:2206   */\n              swap1\n              pop\n                /* \"#utility.yul\":2216:2281   */\n              tag_188\n                /* \"#utility.yul\":2278:2279   */\n              0x00\n                /* \"#utility.yul\":2267:2276   */\n              dup4\n                /* \"#utility.yul\":2263:2280   */\n              add\n                /* \"#utility.yul\":2254:2260   */\n              dup5\n                /* \"#utility.yul\":2216:2281   */\n              tag_138\n              jump\t// in\n            tag_188:\n                /* \"#utility.yul\":2078:2288   */\n              swap3\n              swap2\n              pop\n              pop\n              jump\t// out\n                /* \"#utility.yul\":2294:2412   */\n            tag_139:\n                /* \"#utility.yul\":2381:2405   */\n              tag_190\n                /* \"#utility.yul\":2399:2404   */\n              dup2\n                /* \"#utility.yul\":2381:2405   */\n              tag_130\n              jump\t// in\n            tag_190:\n                /* \"#utility.yul\":2376:2379   */\n              dup3\n                /* \"#utility.yul\":2369:2406   */\n              mstore\n                /* \"#utility.yul\":2294:2412   */\n              pop\n              pop\n              jump\t// out\n                /* \"#utility.yul\":2418:2640   */\n            tag_31:\n                /* \"#utility.yul\":2511:2515   */\n              0x00\n                /* \"#utility.yul\":2549:2551   */\n              0x20\n                /* \"#utility.yul\":2538:2547   */\n              dup3\n                /* \"#utility.yul\":2534:2552   */\n              add\n                /* \"#utility.yul\":2526:2552   */\n              swap1\n              pop\n                /* \"#utility.yul\":2562:2633   */\n              tag_192\n                /* \"#utility.yul\":2630:2631   */\n              0x00\n                /* \"#utility.yul\":2619:2628   */\n              dup4\n                /* \"#utility.yul\":2615:2632   */\n              add\n                /* \"#utility.yul\":2606:2612   */\n              dup5\n                /* \"#utility.yul\":2562:2633   */\n              tag_139\n              jump\t// in\n            tag_192:\n                /* \"#utility.yul\":2418:2640   */\n              swap3\n              swap2\n              pop\n              pop\n              jump\t// out\n                /* \"#utility.yul\":2646:2764   */\n            tag_140:\n                /* \"#utility.yul\":2733:2757   */\n              tag_194\n                /* \"#utility.yul\":2751:2756   */\n              dup2\n                /* \"#utility.yul\":2733:2757   */\n              tag_134\n              jump\t// in\n            tag_194:\n                /* \"#utility.yul\":2728:2731   */\n              dup3\n                /* \"#utility.yul\":2721:2758   */\n              mstore\n                /* \"#utility.yul\":2646:2764   */\n              pop\n              pop\n              jump\t// out\n                /* \"#utility.yul\":2770:3434   */\n            tag_36:\n                /* \"#utility.yul\":2975:2979   */\n              0x00\n                /* \"#utility.yul\":3013:3016   */\n              0xa0\n                /* \"#utility.yul\":3002:3011   */\n              dup3\n                /* \"#utility.yul\":2998:3017   */\n              add\n                /* \"#utility.yul\":2990:3017   */\n              swap1\n              pop\n                /* \"#utility.yul\":3027:3098   */\n              tag_196\n                /* \"#utility.yul\":3095:3096   */\n              0x00\n                /* \"#utility.yul\":3084:3093   */\n              dup4\n                /* \"#utility.yul\":3080:3097   */\n              add\n                /* \"#utility.yul\":3071:3077   */\n              dup9\n                /* \"#utility.yul\":3027:3098   */\n              tag_139\n              jump\t// in\n            tag_196:\n                /* \"#utility.yul\":3108:3180   */\n              tag_197\n                /* \"#utility.yul\":3176:3178   */\n              0x20\n                /* \"#utility.yul\":3165:3174   */\n              dup4\n                /* \"#utility.yul\":3161:3179   */\n              add\n                /* \"#utility.yul\":3152:3158   */\n              dup8\n                /* \"#utility.yul\":3108:3180   */\n              tag_139\n              jump\t// in\n            tag_197:\n                /* \"#utility.yul\":3190:3262   */\n              tag_198\n                /* \"#utility.yul\":3258:3260   */\n              0x40\n                /* \"#utility.yul\":3247:3256   */\n              dup4\n                /* \"#utility.yul\":3243:3261   */\n              add\n                /* \"#utility.yul\":3234:3240   */\n              dup7\n                /* \"#utility.yul\":3190:3262   */\n              tag_139\n              jump\t// in\n            tag_198:\n                /* \"#utility.yul\":3272:3344   */\n              tag_199\n                /* \"#utility.yul\":3340:3342   */\n              0x60\n                /* \"#utility.yul\":3329:3338   */\n              dup4\n                /* \"#utility.yul\":3325:3343   */\n              add\n                /* \"#utility.yul\":3316:3322   */\n              dup6\n                /* \"#utility.yul\":3272:3344   */\n              tag_139\n              jump\t// in\n            tag_199:\n                /* \"#utility.yul\":3354:3427   */\n              tag_200\n                /* \"#utility.yul\":3422:3425   */\n              0x80\n                /* \"#utility.yul\":3411:3420   */\n              dup4\n                /* \"#utility.yul\":3407:3426   */\n              add\n                /* \"#utility.yul\":3398:3404   */\n              dup5\n                /* \"#utility.yul\":3354:3427   */\n              tag_140\n              jump\t// in\n            tag_200:\n                /* \"#utility.yul\":2770:3434   */\n              swap7\n              swap6\n              pop\n              pop\n              pop\n              pop\n              pop\n              pop\n              jump\t// out\n                /* \"#utility.yul\":3440:3662   */\n            tag_41:\n                /* \"#utility.yul\":3533:3537   */\n              0x00\n                /* \"#utility.yul\":3571:3573   */\n              0x20\n                /* \"#utility.yul\":3560:3569   */\n              dup3\n                /* \"#utility.yul\":3556:3574   */\n              add\n                /* \"#utility.yul\":3548:3574   */\n              swap1\n              pop\n                /* \"#utility.yul\":3584:3655   */\n              tag_202\n                /* \"#utility.yul\":3652:3653   */\n              0x00\n                /* \"#utility.yul\":3641:3650   */\n              dup4\n                /* \"#utility.yul\":3637:3654   */\n              add\n                /* \"#utility.yul\":3628:3634   */\n              dup5\n                /* \"#utility.yul\":3584:3655   */\n              tag_140\n              jump\t// in\n            tag_202:\n                /* \"#utility.yul\":3440:3662   */\n              swap3\n              swap2\n              pop\n              pop\n              jump\t// out\n                /* \"#utility.yul\":3668:3767   */\n            tag_141:\n                /* \"#utility.yul\":3720:3726   */\n              0x00\n                /* \"#utility.yul\":3754:3759   */\n              dup2\n                /* \"#utility.yul\":3748:3760   */\n              mload\n                /* \"#utility.yul\":3738:3760   */\n              swap1\n              pop\n                /* \"#utility.yul\":3668:3767   */\n              swap2\n              swap1\n              pop\n              jump\t// out\n                /* \"#utility.yul\":3773:3942   */\n            tag_142:\n                /* \"#utility.yul\":3857:3868   */\n              0x00\n                /* \"#utility.yul\":3891:3897   */\n              dup3\n                /* \"#utility.yul\":3886:3889   */\n              dup3\n                /* \"#utility.yul\":3879:3898   */\n              mstore\n                /* \"#utility.yul\":3931:3935   */\n              0x20\n                /* \"#utility.yul\":3926:3929   */\n              dup3\n                /* \"#utility.yul\":3922:3936   */\n              add\n                /* \"#utility.yul\":3907:3936   */\n              swap1\n              pop\n                /* \"#utility.yul\":3773:3942   */\n              swap3\n              swap2\n              pop\n              pop\n              jump\t// out\n                /* \"#utility.yul\":3948:4255   */\n            tag_143:\n                /* \"#utility.yul\":4016:4017   */\n              0x00\n                /* \"#utility.yul\":4026:4139   */\n            tag_206:\n                /* \"#utility.yul\":4040:4046   */\n              dup4\n                /* \"#utility.yul\":4037:4038   */\n              dup2\n                /* \"#utility.yul\":4034:4047   */\n              lt\n                /* \"#utility.yul\":4026:4139   */\n              iszero\n              tag_208\n              jumpi\n                /* \"#utility.yul\":4125:4126   */\n              dup1\n                /* \"#utility.yul\":4120:4123   */\n              dup3\n                /* \"#utility.yul\":4116:4127   */\n              add\n                /* \"#utility.yul\":4110:4128   */\n              mload\n                /* \"#utility.yul\":4106:4107   */\n              dup2\n                /* \"#utility.yul\":4101:4104   */\n              dup5\n                /* \"#utility.yul\":4097:4108   */\n              add\n                /* \"#utility.yul\":4090:4129   */\n              mstore\n                /* \"#utility.yul\":4062:4064   */\n              0x20\n                /* \"#utility.yul\":4059:4060   */\n              dup2\n                /* \"#utility.yul\":4055:4065   */\n              add\n                /* \"#utility.yul\":4050:4065   */\n              swap1\n              pop\n                /* \"#utility.yul\":4026:4139   */\n              jump(tag_206)\n            tag_208:\n                /* \"#utility.yul\":4157:4163   */\n              dup4\n                /* \"#utility.yul\":4154:4155   */\n              dup2\n                /* \"#utility.yul\":4151:4164   */\n              gt\n                /* \"#utility.yul\":4148:4249   */\n              iszero\n              tag_209\n              jumpi\n                /* \"#utility.yul\":4237:4238   */\n              0x00\n                /* \"#utility.yul\":4228:4234   */\n              dup5\n                /* \"#utility.yul\":4223:4226   */\n              dup5\n                /* \"#utility.yul\":4219:4235   */\n              add\n                /* \"#utility.yul\":4212:4239   */\n              mstore\n                /* \"#utility.yul\":4148:4249   */\n            tag_209:\n                /* \"#utility.yul\":3997:4255   */\n              pop\n                /* \"#utility.yul\":3948:4255   */\n              pop\n              pop\n              pop\n              jump\t// out\n                /* \"#utility.yul\":4261:4363   */\n            tag_144:\n                /* \"#utility.yul\":4302:4308   */\n              0x00\n                /* \"#utility.yul\":4353:4355   */\n              0x1f\n                /* \"#utility.yul\":4349:4356   */\n              not\n                /* \"#utility.yul\":4344:4346   */\n              0x1f\n                /* \"#utility.yul\":4337:4342   */\n              dup4\n                /* \"#utility.yul\":4333:4347   */\n              add\n                /* \"#utility.yul\":4329:4357   */\n              and\n                /* \"#utility.yul\":4319:4357   */\n              swap1\n              pop\n                /* \"#utility.yul\":4261:4363   */\n              swap2\n              swap1\n              pop\n              jump\t// out\n                /* \"#utility.yul\":4369:4733   */\n            tag_145:\n                /* \"#utility.yul\":4457:4460   */\n              0x00\n                /* \"#utility.yul\":4485:4524   */\n              tag_212\n                /* \"#utility.yul\":4518:4523   */\n              dup3\n                /* \"#utility.yul\":4485:4524   */\n              tag_141\n              jump\t// in\n            tag_212:\n                /* \"#utility.yul\":4540:4611   */\n              tag_213\n                /* \"#utility.yul\":4604:4610   */\n              dup2\n                /* \"#utility.yul\":4599:4602   */\n              dup6\n                /* \"#utility.yul\":4540:4611   */\n              tag_142\n              jump\t// in\n            tag_213:\n                /* \"#utility.yul\":4533:4611   */\n              swap4\n              pop\n                /* \"#utility.yul\":4620:4672   */\n              tag_214\n                /* \"#utility.yul\":4665:4671   */\n              dup2\n                /* \"#utility.yul\":4660:4663   */\n              dup6\n                /* \"#utility.yul\":4653:4657   */\n              0x20\n                /* \"#utility.yul\":4646:4651   */\n              dup7\n                /* \"#utility.yul\":4642:4658   */\n              add\n                /* \"#utility.yul\":4620:4672   */\n              tag_143\n              jump\t// in\n            tag_214:\n                /* \"#utility.yul\":4697:4726   */\n              tag_215\n                /* \"#utility.yul\":4719:4725   */\n              dup2\n                /* \"#utility.yul\":4697:4726   */\n              tag_144\n              jump\t// in\n            tag_215:\n                /* \"#utility.yul\":4692:4695   */\n              dup5\n                /* \"#utility.yul\":4688:4727   */\n              add\n                /* \"#utility.yul\":4681:4727   */\n              swap2\n              pop\n                /* \"#utility.yul\":4461:4733   */\n              pop\n                /* \"#utility.yul\":4369:4733   */\n              swap3\n              swap2\n              pop\n              pop\n              jump\t// out\n                /* \"#utility.yul\":4739:5482   */\n            tag_47:\n                /* \"#utility.yul\":4958:4962   */\n              0x00\n                /* \"#utility.yul\":4996:4999   */\n              0xa0\n                /* \"#utility.yul\":4985:4994   */\n              dup3\n                /* \"#utility.yul\":4981:5000   */\n              add\n                /* \"#utility.yul\":4973:5000   */\n              swap1\n              pop\n                /* \"#utility.yul\":5046:5055   */\n              dup2\n                /* \"#utility.yul\":5040:5044   */\n              dup2\n                /* \"#utility.yul\":5036:5056   */\n              sub\n                /* \"#utility.yul\":5032:5033   */\n              0x00\n                /* \"#utility.yul\":5021:5030   */\n              dup4\n                /* \"#utility.yul\":5017:5034   */\n              add\n                /* \"#utility.yul\":5010:5057   */\n              mstore\n                /* \"#utility.yul\":5074:5152   */\n              tag_217\n                /* \"#utility.yul\":5147:5151   */\n              dup2\n                /* \"#utility.yul\":5138:5144   */\n              dup9\n                /* \"#utility.yul\":5074:5152   */\n              tag_145\n              jump\t// in\n            tag_217:\n                /* \"#utility.yul\":5066:5152   */\n              swap1\n              pop\n                /* \"#utility.yul\":5162:5234   */\n              tag_218\n                /* \"#utility.yul\":5230:5232   */\n              0x20\n                /* \"#utility.yul\":5219:5228   */\n              dup4\n                /* \"#utility.yul\":5215:5233   */\n              add\n                /* \"#utility.yul\":5206:5212   */\n              dup8\n                /* \"#utility.yul\":5162:5234   */\n              tag_139\n              jump\t// in\n            tag_218:\n                /* \"#utility.yul\":5244:5316   */\n              tag_219\n                /* \"#utility.yul\":5312:5314   */\n              0x40\n                /* \"#utility.yul\":5301:5310   */\n              dup4\n                /* \"#utility.yul\":5297:5315   */\n              add\n                /* \"#utility.yul\":5288:5294   */\n              dup7\n                /* \"#utility.yul\":5244:5316   */\n              tag_140\n              jump\t// in\n            tag_219:\n                /* \"#utility.yul\":5326:5392   */\n              tag_220\n                /* \"#utility.yul\":5388:5390   */\n              0x60\n                /* \"#utility.yul\":5377:5386   */\n              dup4\n                /* \"#utility.yul\":5373:5391   */\n              add\n                /* \"#utility.yul\":5364:5370   */\n              dup6\n                /* \"#utility.yul\":5326:5392   */\n              tag_138\n              jump\t// in\n            tag_220:\n                /* \"#utility.yul\":5402:5475   */\n              tag_221\n                /* \"#utility.yul\":5470:5473   */\n              0x80\n                /* \"#utility.yul\":5459:5468   */\n              dup4\n                /* \"#utility.yul\":5455:5474   */\n              add\n                /* \"#utility.yul\":5446:5452   */\n              dup5\n                /* \"#utility.yul\":5402:5475   */\n              tag_139\n              jump\t// in\n            tag_221:\n                /* \"#utility.yul\":4739:5482   */\n              swap7\n              swap6\n              pop\n              pop\n              pop\n              pop\n              pop\n              pop\n              jump\t// out\n                /* \"#utility.yul\":5488:5605   */\n            tag_146:\n                /* \"#utility.yul\":5597:5598   */\n              0x00\n                /* \"#utility.yul\":5594:5595   */\n              dup1\n                /* \"#utility.yul\":5587:5599   */\n              revert\n                /* \"#utility.yul\":5611:5728   */\n            tag_147:\n                /* \"#utility.yul\":5720:5721   */\n              0x00\n                /* \"#utility.yul\":5717:5718   */\n              dup1\n                /* \"#utility.yul\":5710:5722   */\n              revert\n                /* \"#utility.yul\":5734:5914   */\n            tag_148:\n                /* \"#utility.yul\":5782:5859   */\n              0x4e487b7100000000000000000000000000000000000000000000000000000000\n                /* \"#utility.yul\":5779:5780   */\n              0x00\n                /* \"#utility.yul\":5772:5860   */\n              mstore\n                /* \"#utility.yul\":5879:5883   */\n              0x41\n                /* \"#utility.yul\":5876:5877   */\n              0x04\n                /* \"#utility.yul\":5869:5884   */\n              mstore\n                /* \"#utility.yul\":5903:5907   */\n              0x24\n                /* \"#utility.yul\":5900:5901   */\n              0x00\n                /* \"#utility.yul\":5893:5908   */\n              revert\n                /* \"#utility.yul\":5920:6201   */\n            tag_149:\n                /* \"#utility.yul\":6003:6030   */\n              tag_226\n                /* \"#utility.yul\":6025:6029   */\n              dup3\n                /* \"#utility.yul\":6003:6030   */\n              tag_144\n              jump\t// in\n            tag_226:\n                /* \"#utility.yul\":5995:6001   */\n              dup2\n                /* \"#utility.yul\":5991:6031   */\n              add\n                /* \"#utility.yul\":6133:6139   */\n              dup2\n                /* \"#utility.yul\":6121:6131   */\n              dup2\n                /* \"#utility.yul\":6118:6140   */\n              lt\n                /* \"#utility.yul\":6097:6115   */\n              0xffffffffffffffff\n                /* \"#utility.yul\":6085:6095   */\n              dup3\n                /* \"#utility.yul\":6082:6116   */\n              gt\n                /* \"#utility.yul\":6079:6141   */\n              or\n                /* \"#utility.yul\":6076:6164   */\n              iszero\n              tag_227\n              jumpi\n                /* \"#utility.yul\":6144:6162   */\n              tag_228\n              tag_148\n              jump\t// in\n            tag_228:\n                /* \"#utility.yul\":6076:6164   */\n            tag_227:\n                /* \"#utility.yul\":6184:6194   */\n              dup1\n                /* \"#utility.yul\":6180:6182   */\n              0x40\n                /* \"#utility.yul\":6173:6195   */\n              mstore\n                /* \"#utility.yul\":5963:6201   */\n              pop\n                /* \"#utility.yul\":5920:6201   */\n              pop\n              pop\n              jump\t// out\n                /* \"#utility.yul\":6207:6336   */\n            tag_150:\n                /* \"#utility.yul\":6241:6247   */\n              0x00\n                /* \"#utility.yul\":6268:6288   */\n              tag_230\n              tag_127\n              jump\t// in\n            tag_230:\n                /* \"#utility.yul\":6258:6288   */\n              swap1\n              pop\n                /* \"#utility.yul\":6297:6330   */\n              tag_231\n                /* \"#utility.yul\":6325:6329   */\n              dup3\n                /* \"#utility.yul\":6317:6323   */\n              dup3\n                /* \"#utility.yul\":6297:6330   */\n              tag_149\n              jump\t// in\n            tag_231:\n                /* \"#utility.yul\":6207:6336   */\n              swap2\n              swap1\n              pop\n              jump\t// out\n                /* \"#utility.yul\":6342:6650   */\n            tag_151:\n                /* \"#utility.yul\":6404:6408   */\n              0x00\n                /* \"#utility.yul\":6494:6512   */\n              0xffffffffffffffff\n                /* \"#utility.yul\":6486:6492   */\n              dup3\n                /* \"#utility.yul\":6483:6513   */\n              gt\n                /* \"#utility.yul\":6480:6536   */\n              iszero\n              tag_233\n              jumpi\n                /* \"#utility.yul\":6516:6534   */\n              tag_234\n              tag_148\n              jump\t// in\n            tag_234:\n                /* \"#utility.yul\":6480:6536   */\n            tag_233:\n                /* \"#utility.yul\":6554:6583   */\n              tag_235\n                /* \"#utility.yul\":6576:6582   */\n              dup3\n                /* \"#utility.yul\":6554:6583   */\n              tag_144\n              jump\t// in\n            tag_235:\n                /* \"#utility.yul\":6546:6583   */\n              swap1\n              pop\n                /* \"#utility.yul\":6638:6642   */\n              0x20\n                /* \"#utility.yul\":6632:6636   */\n              dup2\n                /* \"#utility.yul\":6628:6643   */\n              add\n                /* \"#utility.yul\":6620:6643   */\n              swap1\n              pop\n                /* \"#utility.yul\":6342:6650   */\n              swap2\n              swap1\n              pop\n              jump\t// out\n                /* \"#utility.yul\":6656:6810   */\n            tag_152:\n                /* \"#utility.yul\":6740:6746   */\n              dup3\n                /* \"#utility.yul\":6735:6738   */\n              dup2\n                /* \"#utility.yul\":6730:6733   */\n              dup4\n                /* \"#utility.yul\":6717:6747   */\n              calldatacopy\n                /* \"#utility.yul\":6802:6803   */\n              0x00\n                /* \"#utility.yul\":6793:6799   */\n              dup4\n                /* \"#utility.yul\":6788:6791   */\n              dup4\n                /* \"#utility.yul\":6784:6800   */\n              add\n                /* \"#utility.yul\":6777:6804   */\n              mstore\n                /* \"#utility.yul\":6656:6810   */\n              pop\n              pop\n              pop\n              jump\t// out\n                /* \"#utility.yul\":6816:7228   */\n            tag_153:\n                /* \"#utility.yul\":6894:6899   */\n              0x00\n                /* \"#utility.yul\":6919:6985   */\n              tag_238\n                /* \"#utility.yul\":6935:6984   */\n              tag_239\n                /* \"#utility.yul\":6977:6983   */\n              dup5\n                /* \"#utility.yul\":6935:6984   */\n              tag_151\n              jump\t// in\n            tag_239:\n                /* \"#utility.yul\":6919:6985   */\n              tag_150\n              jump\t// in\n            tag_238:\n                /* \"#utility.yul\":6910:6985   */\n              swap1\n              pop\n                /* \"#utility.yul\":7008:7014   */\n              dup3\n                /* \"#utility.yul\":7001:7006   */\n              dup2\n                /* \"#utility.yul\":6994:7015   */\n              mstore\n                /* \"#utility.yul\":7046:7050   */\n              0x20\n                /* \"#utility.yul\":7039:7044   */\n              dup2\n                /* \"#utility.yul\":7035:7051   */\n              add\n                /* \"#utility.yul\":7084:7087   */\n              dup5\n                /* \"#utility.yul\":7075:7081   */\n              dup5\n                /* \"#utility.yul\":7070:7073   */\n              dup5\n                /* \"#utility.yul\":7066:7082   */\n              add\n                /* \"#utility.yul\":7063:7088   */\n              gt\n                /* \"#utility.yul\":7060:7172   */\n              iszero\n              tag_240\n              jumpi\n                /* \"#utility.yul\":7091:7170   */\n              tag_241\n              tag_147\n              jump\t// in\n            tag_241:\n                /* \"#utility.yul\":7060:7172   */\n            tag_240:\n                /* \"#utility.yul\":7181:7222   */\n              tag_242\n                /* \"#utility.yul\":7215:7221   */\n              dup5\n                /* \"#utility.yul\":7210:7213   */\n              dup3\n                /* \"#utility.yul\":7205:7208   */\n              dup6\n                /* \"#utility.yul\":7181:7222   */\n              tag_152\n              jump\t// in\n            tag_242:\n                /* \"#utility.yul\":6900:7228   */\n              pop\n                /* \"#utility.yul\":6816:7228   */\n              swap4\n              swap3\n              pop\n              pop\n              pop\n              jump\t// out\n                /* \"#utility.yul\":7248:7588   */\n            tag_154:\n                /* \"#utility.yul\":7304:7309   */\n              0x00\n                /* \"#utility.yul\":7353:7356   */\n              dup3\n                /* \"#utility.yul\":7346:7350   */\n              0x1f\n                /* \"#utility.yul\":7338:7344   */\n              dup4\n                /* \"#utility.yul\":7334:7351   */\n              add\n                /* \"#utility.yul\":7330:7357   */\n              slt\n                /* \"#utility.yul\":7320:7442   */\n              tag_244\n              jumpi\n                /* \"#utility.yul\":7361:7440   */\n              tag_245\n              tag_146\n              jump\t// in\n            tag_245:\n                /* \"#utility.yul\":7320:7442   */\n            tag_244:\n                /* \"#utility.yul\":7478:7484   */\n              dup2\n                /* \"#utility.yul\":7465:7485   */\n              calldataload\n                /* \"#utility.yul\":7503:7582   */\n              tag_246\n                /* \"#utility.yul\":7578:7581   */\n              dup5\n                /* \"#utility.yul\":7570:7576   */\n              dup3\n                /* \"#utility.yul\":7563:7567   */\n              0x20\n                /* \"#utility.yul\":7555:7561   */\n              dup7\n                /* \"#utility.yul\":7551:7568   */\n              add\n                /* \"#utility.yul\":7503:7582   */\n              tag_153\n              jump\t// in\n            tag_246:\n                /* \"#utility.yul\":7494:7582   */\n              swap2\n              pop\n                /* \"#utility.yul\":7310:7588   */\n              pop\n                /* \"#utility.yul\":7248:7588   */\n              swap3\n              swap2\n              pop\n              pop\n              jump\t// out\n                /* \"#utility.yul\":7594:8393   */\n            tag_55:\n                /* \"#utility.yul\":7681:7687   */\n              0x00\n                /* \"#utility.yul\":7689:7695   */\n              dup1\n                /* \"#utility.yul\":7697:7703   */\n              0x00\n                /* \"#utility.yul\":7746:7748   */\n              0x60\n                /* \"#utility.yul\":7734:7743   */\n              dup5\n                /* \"#utility.yul\":7725:7732   */\n              dup7\n                /* \"#utility.yul\":7721:7744   */\n              sub\n                /* \"#utility.yul\":7717:7749   */\n              slt\n                /* \"#utility.yul\":7714:7833   */\n              iszero\n              tag_248\n              jumpi\n                /* \"#utility.yul\":7752:7831   */\n              tag_249\n              tag_128\n              jump\t// in\n            tag_249:\n                /* \"#utility.yul\":7714:7833   */\n            tag_248:\n                /* \"#utility.yul\":7900:7901   */\n              0x00\n                /* \"#utility.yul\":7889:7898   */\n              dup5\n                /* \"#utility.yul\":7885:7902   */\n              add\n                /* \"#utility.yul\":7872:7903   */\n              calldataload\n                /* \"#utility.yul\":7930:7948   */\n              0xffffffffffffffff\n                /* \"#utility.yul\":7922:7928   */\n              dup2\n                /* \"#utility.yul\":7919:7949   */\n              gt\n                /* \"#utility.yul\":7916:8033   */\n              iszero\n              tag_250\n              jumpi\n                /* \"#utility.yul\":7952:8031   */\n              tag_251\n              tag_129\n              jump\t// in\n            tag_251:\n                /* \"#utility.yul\":7916:8033   */\n            tag_250:\n                /* \"#utility.yul\":8057:8120   */\n              tag_252\n                /* \"#utility.yul\":8112:8119   */\n              dup7\n                /* \"#utility.yul\":8103:8109   */\n              dup3\n                /* \"#utility.yul\":8092:8101   */\n              dup8\n                /* \"#utility.yul\":8088:8110   */\n              add\n                /* \"#utility.yul\":8057:8120   */\n              tag_154\n              jump\t// in\n            tag_252:\n                /* \"#utility.yul\":8047:8120   */\n              swap4\n              pop\n                /* \"#utility.yul\":7843:8130   */\n              pop\n                /* \"#utility.yul\":8169:8171   */\n              0x20\n                /* \"#utility.yul\":8195:8248   */\n              tag_253\n                /* \"#utility.yul\":8240:8247   */\n              dup7\n                /* \"#utility.yul\":8231:8237   */\n              dup3\n                /* \"#utility.yul\":8220:8229   */\n              dup8\n                /* \"#utility.yul\":8216:8238   */\n              add\n                /* \"#utility.yul\":8195:8248   */\n              tag_132\n              jump\t// in\n            tag_253:\n                /* \"#utility.yul\":8185:8248   */\n              swap3\n              pop\n                /* \"#utility.yul\":8140:8258   */\n              pop\n                /* \"#utility.yul\":8297:8299   */\n              0x40\n                /* \"#utility.yul\":8323:8376   */\n              tag_254\n                /* \"#utility.yul\":8368:8375   */\n              dup7\n                /* \"#utility.yul\":8359:8365   */\n              dup3\n                /* \"#utility.yul\":8348:8357   */\n              dup8\n                /* \"#utility.yul\":8344:8366   */\n              add\n                /* \"#utility.yul\":8323:8376   */\n              tag_136\n              jump\t// in\n            tag_254:\n                /* \"#utility.yul\":8313:8376   */\n              swap2\n              pop\n                /* \"#utility.yul\":8268:8386   */\n              pop\n                /* \"#utility.yul\":7594:8393   */\n              swap3\n              pop\n              swap3\n              pop\n              swap3\n              jump\t// out\n                /* \"#utility.yul\":8399:8712   */\n            tag_65:\n                /* \"#utility.yul\":8512:8516   */\n              0x00\n                /* \"#utility.yul\":8550:8552   */\n              0x20\n                /* \"#utility.yul\":8539:8548   */\n              dup3\n                /* \"#utility.yul\":8535:8553   */\n              add\n                /* \"#utility.yul\":8527:8553   */\n              swap1\n              pop\n                /* \"#utility.yul\":8599:8608   */\n              dup2\n                /* \"#utility.yul\":8593:8597   */\n              dup2\n                /* \"#utility.yul\":8589:8609   */\n              sub\n                /* \"#utility.yul\":8585:8586   */\n              0x00\n                /* \"#utility.yul\":8574:8583   */\n              dup4\n                /* \"#utility.yul\":8570:8587   */\n              add\n                /* \"#utility.yul\":8563:8610   */\n              mstore\n                /* \"#utility.yul\":8627:8705   */\n              tag_256\n                /* \"#utility.yul\":8700:8704   */\n              dup2\n                /* \"#utility.yul\":8691:8697   */\n              dup5\n                /* \"#utility.yul\":8627:8705   */\n              tag_145\n              jump\t// in\n            tag_256:\n                /* \"#utility.yul\":8619:8705   */\n              swap1\n              pop\n                /* \"#utility.yul\":8399:8712   */\n              swap3\n              swap2\n              pop\n              pop\n              jump\t// out\n                /* \"#utility.yul\":8718:8898   */\n            tag_77:\n                /* \"#utility.yul\":8766:8843   */\n              0x4e487b7100000000000000000000000000000000000000000000000000000000\n                /* \"#utility.yul\":8763:8764   */\n              0x00\n                /* \"#utility.yul\":8756:8844   */\n              mstore\n                /* \"#utility.yul\":8863:8867   */\n              0x32\n                /* \"#utility.yul\":8860:8861   */\n              0x04\n                /* \"#utility.yul\":8853:8868   */\n              mstore\n                /* \"#utility.yul\":8887:8891   */\n              0x24\n                /* \"#utility.yul\":8884:8885   */\n              0x00\n                /* \"#utility.yul\":8877:8892   */\n              revert\n                /* \"#utility.yul\":8904:9084   */\n            tag_155:\n                /* \"#utility.yul\":8952:9029   */\n              0x4e487b7100000000000000000000000000000000000000000000000000000000\n                /* \"#utility.yul\":8949:8950   */\n              0x00\n                /* \"#utility.yul\":8942:9030   */\n              mstore\n                /* \"#utility.yul\":9049:9053   */\n              0x12\n                /* \"#utility.yul\":9046:9047   */\n              0x04\n                /* \"#utility.yul\":9039:9054   */\n              mstore\n                /* \"#utility.yul\":9073:9077   */\n              0x24\n                /* \"#utility.yul\":9070:9071   */\n              0x00\n                /* \"#utility.yul\":9063:9078   */\n              revert\n                /* \"#utility.yul\":9090:9270   */\n            tag_156:\n                /* \"#utility.yul\":9138:9215   */\n              0x4e487b7100000000000000000000000000000000000000000000000000000000\n                /* \"#utility.yul\":9135:9136   */\n              0x00\n                /* \"#utility.yul\":9128:9216   */\n              mstore\n                /* \"#utility.yul\":9235:9239   */\n              0x11\n                /* \"#utility.yul\":9232:9233   */\n              0x04\n                /* \"#utility.yul\":9225:9240   */\n              mstore\n                /* \"#utility.yul\":9259:9263   */\n              0x24\n                /* \"#utility.yul\":9256:9257   */\n              0x00\n                /* \"#utility.yul\":9249:9264   */\n              revert\n                /* \"#utility.yul\":9276:9461   */\n            tag_80:\n                /* \"#utility.yul\":9316:9317   */\n              0x00\n                /* \"#utility.yul\":9333:9353   */\n              tag_261\n                /* \"#utility.yul\":9351:9352   */\n              dup3\n                /* \"#utility.yul\":9333:9353   */\n              tag_130\n              jump\t// in\n            tag_261:\n                /* \"#utility.yul\":9328:9353   */\n              swap2\n              pop\n                /* \"#utility.yul\":9367:9387   */\n              tag_262\n                /* \"#utility.yul\":9385:9386   */\n              dup4\n                /* \"#utility.yul\":9367:9387   */\n              tag_130\n              jump\t// in\n            tag_262:\n                /* \"#utility.yul\":9362:9387   */\n              swap3\n              pop\n                /* \"#utility.yul\":9406:9407   */\n              dup3\n                /* \"#utility.yul\":9396:9431   */\n              tag_263\n              jumpi\n                /* \"#utility.yul\":9411:9429   */\n              tag_264\n              tag_155\n              jump\t// in\n            tag_264:\n                /* \"#utility.yul\":9396:9431   */\n            tag_263:\n                /* \"#utility.yul\":9453:9454   */\n              dup3\n                /* \"#utility.yul\":9450:9451   */\n              dup3\n                /* \"#utility.yul\":9446:9455   */\n              div\n                /* \"#utility.yul\":9441:9455   */\n              swap1\n              pop\n                /* \"#utility.yul\":9276:9461   */\n              swap3\n              swap2\n              pop\n              pop\n              jump\t// out\n                /* \"#utility.yul\":9467:9647   */\n            tag_157:\n                /* \"#utility.yul\":9515:9592   */\n              0x4e487b7100000000000000000000000000000000000000000000000000000000\n                /* \"#utility.yul\":9512:9513   */\n              0x00\n                /* \"#utility.yul\":9505:9593   */\n              mstore\n                /* \"#utility.yul\":9612:9616   */\n              0x22\n                /* \"#utility.yul\":9609:9610   */\n              0x04\n                /* \"#utility.yul\":9602:9617   */\n              mstore\n                /* \"#utility.yul\":9636:9640   */\n              0x24\n                /* \"#utility.yul\":9633:9634   */\n              0x00\n                /* \"#utility.yul\":9626:9641   */\n              revert\n                /* \"#utility.yul\":9653:9973   */\n            tag_90:\n                /* \"#utility.yul\":9697:9703   */\n              0x00\n                /* \"#utility.yul\":9734:9735   */\n              0x02\n                /* \"#utility.yul\":9728:9732   */\n              dup3\n                /* \"#utility.yul\":9724:9736   */\n              div\n                /* \"#utility.yul\":9714:9736   */\n              swap1\n              pop\n                /* \"#utility.yul\":9781:9782   */\n              0x01\n                /* \"#utility.yul\":9775:9779   */\n              dup3\n                /* \"#utility.yul\":9771:9783   */\n              and\n                /* \"#utility.yul\":9802:9820   */\n              dup1\n                /* \"#utility.yul\":9792:9873   */\n              tag_267\n              jumpi\n                /* \"#utility.yul\":9858:9862   */\n              0x7f\n                /* \"#utility.yul\":9850:9856   */\n              dup3\n                /* \"#utility.yul\":9846:9863   */\n              and\n                /* \"#utility.yul\":9836:9863   */\n              swap2\n              pop\n                /* \"#utility.yul\":9792:9873   */\n            tag_267:\n                /* \"#utility.yul\":9920:9922   */\n              0x20\n                /* \"#utility.yul\":9912:9918   */\n              dup3\n                /* \"#utility.yul\":9909:9923   */\n              lt\n                /* \"#utility.yul\":9889:9907   */\n              dup2\n                /* \"#utility.yul\":9886:9924   */\n              eq\n                /* \"#utility.yul\":9883:9967   */\n              iszero\n              tag_268\n              jumpi\n                /* \"#utility.yul\":9939:9957   */\n              tag_269\n              tag_157\n              jump\t// in\n            tag_269:\n                /* \"#utility.yul\":9883:9967   */\n            tag_268:\n                /* \"#utility.yul\":9704:9973   */\n              pop\n                /* \"#utility.yul\":9653:9973   */\n              swap2\n              swap1\n              pop\n              jump\t// out\n                /* \"#utility.yul\":9979:10212   */\n            tag_109:\n                /* \"#utility.yul\":10018:10021   */\n              0x00\n                /* \"#utility.yul\":10041:10065   */\n              tag_271\n                /* \"#utility.yul\":10059:10064   */\n              dup3\n                /* \"#utility.yul\":10041:10065   */\n              tag_130\n              jump\t// in\n            tag_271:\n                /* \"#utility.yul\":10032:10065   */\n              swap2\n              pop\n                /* \"#utility.yul\":10087:10153   */\n              0xffffffffffffffffffffffffffffffffffffffffffffffffffffffffffffffff\n                /* \"#utility.yul\":10080:10085   */\n              dup3\n                /* \"#utility.yul\":10077:10154   */\n              eq\n                /* \"#utility.yul\":10074:10177   */\n              iszero\n              tag_272\n              jumpi\n                /* \"#utility.yul\":10157:10175   */\n              tag_273\n              tag_156\n              jump\t// in\n            tag_273:\n                /* \"#utility.yul\":10074:10177   */\n            tag_272:\n                /* \"#utility.yul\":10204:10205   */\n              0x01\n                /* \"#utility.yul\":10197:10202   */\n              dup3\n                /* \"#utility.yul\":10193:10206   */\n              add\n                /* \"#utility.yul\":10186:10206   */\n              swap1\n              pop\n                /* \"#utility.yul\":9979:10212   */\n              swap2\n              swap1\n              pop\n              jump\t// out\n\n            auxdata: 0xa264697066735822122070c3174bd7157347144390da2238b6e3943ae05230aae8e38852940fd0f6fad064736f6c63430008090033\n        }\n    }\n\n    auxdata: 0xa2646970667358221220363fb45d6240e438d4b452174d3bcb8b613d1b99222c365696f3f7f891ebf3d364736f6c63430008090033\n}\n","bytecode":{"linkReferences":{},"object":"608060405234801561001057600080fd5b50611b60806100206000396000f3fe60806040523480156200001157600080fd5b5060043610620000465760003560e01c8063339d50a5146200004b5780634220d65614620000815780634acb9d4f14620000a1575b600080fd5b62000069600480360381019062000063919062000299565b620000c3565b60405162000078919062000310565b60405180910390f35b6200009f60048036038101906200009991906200048f565b62000103565b005b620000ab620001ac565b604051620000ba9190620005c3565b60405180910390f35b60008181548110620000d457600080fd5b906000526020600020016000915054906101000a900473ffffffffffffffffffffffffffffffffffffffff1681565b600082823360405162000116906200023c565b62000124939291906200068b565b604051809103906000f08015801562000141573d6000803e3d6000fd5b5090506000819080600181540180825580915050600190039060005260206000200160009091909190916101000a81548173ffffffffffffffffffffffffffffffffffffffff021916908373ffffffffffffffffffffffffffffffffffffffff160217905550505050565b606060008054806020026020016040519081016040528092919081815260200182805480156200023257602002820191906000526020600020905b8160009054906101000a900473ffffffffffffffffffffffffffffffffffffffff1673ffffffffffffffffffffffffffffffffffffffff1681526020019060010190808311620001e7575b5050505050905090565b61145b80620006d083390190565b6000604051905090565b600080fd5b600080fd5b6000819050919050565b62000273816200025e565b81146200027f57600080fd5b50565b600081359050620002938162000268565b92915050565b600060208284031215620002b257620002b162000254565b5b6000620002c28482850162000282565b91505092915050565b600073ffffffffffffffffffffffffffffffffffffffff82169050919050565b6000620002f882620002cb565b9050919050565b6200030a81620002eb565b82525050565b6000602082019050620003276000830184620002ff565b92915050565b600080fd5b600080fd5b6000601f19601f8301169050919050565b7f4e487b7100000000000000000000000000000000000000000000000000000000600052604160045260246000fd5b620003828262000337565b810181811067ffffffffffffffff82111715620003a457620003a362000348565b5b80604052505050565b6000620003b96200024a565b9050620003c7828262000377565b919050565b600067ffffffffffffffff821115620003ea57620003e962000348565b5b620003f58262000337565b9050602081019050919050565b82818337600083830152505050565b6000620004286200042284620003cc565b620003ad565b90508281526020810184848401111562000447576200044662000332565b5b6200045484828562000402565b509392505050565b600082601f8301126200047457620004736200032d565b5b81356200048684826020860162000411565b91505092915050565b60008060408385031215620004a957620004a862000254565b5b6000620004b98582860162000282565b925050602083013567ffffffffffffffff811115620004dd57620004dc62000259565b5b620004eb858286016200045c565b9150509250929050565b600081519050919050565b600082825260208201905092915050565b6000819050602082019050919050565b6200052c81620002eb565b82525050565b600062000540838362000521565b60208301905092915050565b6000602082019050919050565b60006200056682620004f5565b62000572818562000500565b93506200057f8362000511565b8060005b83811015620005b65781516200059a888262000532565b9750620005a7836200054c565b92505060018101905062000583565b5085935050505092915050565b60006020820190508181036000830152620005df818462000559565b905092915050565b620005f2816200025e565b82525050565b600081519050919050565b600082825260208201905092915050565b60005b838110156200063457808201518184015260208101905062000617565b8381111562000644576000848401525b50505050565b60006200065782620005f8565b62000663818562000603565b93506200067581856020860162000614565b620006808162000337565b840191505092915050565b6000606082019050620006a26000830186620005e7565b8181036020830152620006b681856200064a565b9050620006c76040830184620002ff565b94935050505056fe60806040523480156200001157600080fd5b506040516200145b3803806200145b83398181016040528101906200003791906200038d565b806000806101000a81548173ffffffffffffffffffffffffffffffffffffffff021916908373ffffffffffffffffffffffffffffffffffffffff16021790555082600181905550816005908051906020019062000096929190620000a0565b505050506200046d565b828054620000ae9062000437565b90600052602060002090601f016020900481019282620000d257600085556200011e565b82601f10620000ed57805160ff19168380011785556200011e565b828001600101855582156200011e579182015b828111156200011d57825182559160200191906001019062000100565b5b5090506200012d919062000131565b5090565b5b808211156200014c57600081600090555060010162000132565b5090565b6000604051905090565b600080fd5b600080fd5b6000819050919050565b620001798162000164565b81146200018557600080fd5b50565b60008151905062000199816200016e565b92915050565b600080fd5b600080fd5b6000601f19601f8301169050919050565b7f4e487b7100000000000000000000000000000000000000000000000000000000600052604160045260246000fd5b620001f482620001a9565b810181811067ffffffffffffffff82111715620002165762000215620001ba565b5b80604052505050565b60006200022b62000150565b9050620002398282620001e9565b919050565b600067ffffffffffffffff8211156200025c576200025b620001ba565b5b6200026782620001a9565b9050602081019050919050565b60005b838110156200029457808201518184015260208101905062000277565b83811115620002a4576000848401525b50505050565b6000620002c1620002bb846200023e565b6200021f565b905082815260208101848484011115620002e057620002df620001a4565b5b620002ed84828562000274565b509392505050565b600082601f8301126200030d576200030c6200019f565b5b81516200031f848260208601620002aa565b91505092915050565b600073ffffffffffffffffffffffffffffffffffffffff82169050919050565b6000620003558262000328565b9050919050565b620003678162000348565b81146200037357600080fd5b50565b60008151905062000387816200035c565b92915050565b600080600060608486031215620003a957620003a86200015a565b5b6000620003b98682870162000188565b935050602084015167ffffffffffffffff811115620003dd57620003dc6200015f565b5b620003eb86828701620002f5565b9250506040620003fe8682870162000376565b9150509250925092565b7f4e487b7100000000000000000000000000000000000000000000000000000000600052602260045260246000fd5b600060028204905060018216806200045057607f821691505b6020821081141562000467576200046662000408565b5b50919050565b610fde806200047d6000396000f3fe6080604052600436106100a75760003560e01c806382fde0931161006457806382fde093146101d85780638a9cfd5514610203578063a7f337151461022c578063b02a801614610257578063d7bb99ba14610282578063d7d1bbdb1461028c576100a7565b806303441006146100ac5780630a144391146100d55780633410452a146101125780634051ddac1461013d578063481c6a751461016c57806381d12c5814610197575b600080fd5b3480156100b857600080fd5b506100d360048036038101906100ce91906109f2565b6102b5565b005b3480156100e157600080fd5b506100fc60048036038101906100f79190610a7d565b6103fd565b6040516101099190610ac5565b60405180910390f35b34801561011e57600080fd5b5061012761041d565b6040516101349190610aef565b60405180910390f35b34801561014957600080fd5b5061015261042a565b604051610163959493929190610b19565b60405180910390f35b34801561017857600080fd5b50610181610471565b60405161018e9190610b6c565b60405180910390f35b3480156101a357600080fd5b506101be60048036038101906101b991906109f2565b610495565b6040516101cf959493929190610c20565b60405180910390f35b3480156101e457600080fd5b506101ed610590565b6040516101fa9190610aef565b60405180910390f35b34801561020f57600080fd5b5061022a60048036038101906102259190610daf565b610596565b005b34801561023857600080fd5b506102416106a4565b60405161024e9190610aef565b60405180910390f35b34801561026357600080fd5b5061026c6106aa565b6040516102799190610e1e565b60405180910390f35b61028a610738565b005b34801561029857600080fd5b506102b360048036038101906102ae91906109f2565b6107b8565b005b60008054906101000a900473ffffffffffffffffffffffffffffffffffffffff1673ffffffffffffffffffffffffffffffffffffffff163373ffffffffffffffffffffffffffffffffffffffff161461030d57600080fd5b60006003828154811061032357610322610e40565b5b9060005260206000209060050201905060026004546103429190610ecd565b81600301541161035157600080fd5b8060020160149054906101000a900460ff161561036d57600080fd5b8060020160009054906101000a900473ffffffffffffffffffffffffffffffffffffffff1673ffffffffffffffffffffffffffffffffffffffff166108fc82600101549081150290604051600060405180830381858888f193505050501580156103db573d6000803e3d6000fd5b5060018160020160146101000a81548160ff0219169083151502179055505050565b60026020528060005260406000206000915054906101000a900460ff1681565b6000600380549050905090565b60008060008060006001544760038054905060045460008054906101000a900473ffffffffffffffffffffffffffffffffffffffff16945094509450945094509091929394565b60008054906101000a900473ffffffffffffffffffffffffffffffffffffffff1681565b600381815481106104a557600080fd5b90600052602060002090600502016000915090508060000180546104c890610f2d565b80601f01602080910402602001604051908101604052809291908181526020018280546104f490610f2d565b80156105415780601f1061051657610100808354040283529160200191610541565b820191906000526020600020905b81548152906001019060200180831161052457829003601f168201915b5050505050908060010154908060020160009054906101000a900473ffffffffffffffffffffffffffffffffffffffff16908060020160149054906101000a900460ff16908060030154905085565b60045481565b60008054906101000a900473ffffffffffffffffffffffffffffffffffffffff1673ffffffffffffffffffffffffffffffffffffffff163373ffffffffffffffffffffffffffffffffffffffff16146105ee57600080fd5b6000600360018160018154018082558091505003906000526020600020906005020190508381600001908051906020019061062a929190610905565b50828160010181905550818160020160006101000a81548173ffffffffffffffffffffffffffffffffffffffff021916908373ffffffffffffffffffffffffffffffffffffffff16021790555060008160020160146101000a81548160ff0219169083151502179055506000816003018190555050505050565b60015481565b600580546106b790610f2d565b80601f01602080910402602001604051908101604052809291908181526020018280546106e390610f2d565b80156107305780601f1061070557610100808354040283529160200191610730565b820191906000526020600020905b81548152906001019060200180831161071357829003601f168201915b505050505081565b600154341161074657600080fd5b6001600260003373ffffffffffffffffffffffffffffffffffffffff1673ffffffffffffffffffffffffffffffffffffffff16815260200190815260200160002060006101000a81548160ff021916908315150217905550600460008154809291906107b190610f5f565b9190505550565b6000600382815481106107ce576107cd610e40565b5b90600052602060002090600502019050600260003373ffffffffffffffffffffffffffffffffffffffff1673ffffffffffffffffffffffffffffffffffffffff16815260200190815260200160002060009054906101000a900460ff1661083457600080fd5b8060040160003373ffffffffffffffffffffffffffffffffffffffff1673ffffffffffffffffffffffffffffffffffffffff16815260200190815260200160002060009054906101000a900460ff161561088d57600080fd5b60018160040160003373ffffffffffffffffffffffffffffffffffffffff1673ffffffffffffffffffffffffffffffffffffffff16815260200190815260200160002060006101000a81548160ff0219169083151502179055508060030160008154809291906108fc90610f5f565b91905055505050565b82805461091190610f2d565b90600052602060002090601f016020900481019282610933576000855561097a565b82601f1061094c57805160ff191683800117855561097a565b8280016001018555821561097a579182015b8281111561097957825182559160200191906001019061095e565b5b509050610987919061098b565b5090565b5b808211156109a457600081600090555060010161098c565b5090565b6000604051905090565b600080fd5b600080fd5b6000819050919050565b6109cf816109bc565b81146109da57600080fd5b50565b6000813590506109ec816109c6565b92915050565b600060208284031215610a0857610a076109b2565b5b6000610a16848285016109dd565b91505092915050565b600073ffffffffffffffffffffffffffffffffffffffff82169050919050565b6000610a4a82610a1f565b9050919050565b610a5a81610a3f565b8114610a6557600080fd5b50565b600081359050610a7781610a51565b92915050565b600060208284031215610a9357610a926109b2565b5b6000610aa184828501610a68565b91505092915050565b60008115159050919050565b610abf81610aaa565b82525050565b6000602082019050610ada6000830184610ab6565b92915050565b610ae9816109bc565b82525050565b6000602082019050610b046000830184610ae0565b92915050565b610b1381610a3f565b82525050565b600060a082019050610b2e6000830188610ae0565b610b3b6020830187610ae0565b610b486040830186610ae0565b610b556060830185610ae0565b610b626080830184610b0a565b9695505050505050565b6000602082019050610b816000830184610b0a565b92915050565b600081519050919050565b600082825260208201905092915050565b60005b83811015610bc1578082015181840152602081019050610ba6565b83811115610bd0576000848401525b50505050565b6000601f19601f8301169050919050565b6000610bf282610b87565b610bfc8185610b92565b9350610c0c818560208601610ba3565b610c1581610bd6565b840191505092915050565b600060a0820190508181036000830152610c3a8188610be7565b9050610c496020830187610ae0565b610c566040830186610b0a565b610c636060830185610ab6565b610c706080830184610ae0565b9695505050505050565b600080fd5b600080fd5b7f4e487b7100000000000000000000000000000000000000000000000000000000600052604160045260246000fd5b610cbc82610bd6565b810181811067ffffffffffffffff82111715610cdb57610cda610c84565b5b80604052505050565b6000610cee6109a8565b9050610cfa8282610cb3565b919050565b600067ffffffffffffffff821115610d1a57610d19610c84565b5b610d2382610bd6565b9050602081019050919050565b82818337600083830152505050565b6000610d52610d4d84610cff565b610ce4565b905082815260208101848484011115610d6e57610d6d610c7f565b5b610d79848285610d30565b509392505050565b600082601f830112610d9657610d95610c7a565b5b8135610da6848260208601610d3f565b91505092915050565b600080600060608486031215610dc857610dc76109b2565b5b600084013567ffffffffffffffff811115610de657610de56109b7565b5b610df286828701610d81565b9350506020610e03868287016109dd565b9250506040610e1486828701610a68565b9150509250925092565b60006020820190508181036000830152610e388184610be7565b905092915050565b7f4e487b7100000000000000000000000000000000000000000000000000000000600052603260045260246000fd5b7f4e487b7100000000000000000000000000000000000000000000000000000000600052601260045260246000fd5b7f4e487b7100000000000000000000000000000000000000000000000000000000600052601160045260246000fd5b6000610ed8826109bc565b9150610ee3836109bc565b925082610ef357610ef2610e6f565b5b828204905092915050565b7f4e487b7100000000000000000000000000000000000000000000000000000000600052602260045260246000fd5b60006002820490506001821680610f4557607f821691505b60208210811415610f5957610f58610efe565b5b50919050565b6000610f6a826109bc565b91507fffffffffffffffffffffffffffffffffffffffffffffffffffffffffffffffff821415610f9d57610f9c610e9e565b5b60018201905091905056fea264697066735822122070c3174bd7157347144390da2238b6e3943ae05230aae8e38852940fd0f6fad064736f6c63430008090033a2646970667358221220363fb45d6240e438d4b452174d3bcb8b613d1b99222c365696f3f7f891ebf3d364736f6c63430008090033","opcodes":"PUSH1 0x80 PUSH1 0x40 MSTORE CALLVALUE DUP1 ISZERO PUSH2 0x10 JUMPI PUSH1 0x0 DUP1 REVERT JUMPDEST POP PUSH2 0x1B60 DUP1 PUSH2 0x20 PUSH1 0x0 CODECOPY PUSH1 0x0 RETURN INVALID PUSH1 0x80 PUSH1 0x40 MSTORE CALLVALUE DUP1 ISZERO PUSH3 0x11 JUMPI PUSH1 0x0 DUP1 REVERT JUMPDEST POP PUSH1 0x4 CALLDATASIZE LT PUSH3 0x46 JUMPI PUSH1 0x0 CALLDATALOAD PUSH1 0xE0 SHR DUP1 PUSH4 0x339D50A5 EQ PUSH3 0x4B JUMPI DUP1 PUSH4 0x4220D656 EQ PUSH3 0x81 JUMPI DUP1 PUSH4 0x4ACB9D4F EQ PUSH3 0xA1 JUMPI JUMPDEST PUSH1 0x0 DUP1 REVERT JUMPDEST PUSH3 0x69 PUSH1 0x4 DUP1 CALLDATASIZE SUB DUP2 ADD SWAP1 PUSH3 0x63 SWAP2 SWAP1 PUSH3 0x299 JUMP JUMPDEST PUSH3 0xC3 JUMP JUMPDEST PUSH1 0x40 MLOAD PUSH3 0x78 SWAP2 SWAP1 PUSH3 0x310 JUMP JUMPDEST PUSH1 0x40 MLOAD DUP1 SWAP2 SUB SWAP1 RETURN JUMPDEST PUSH3 0x9F PUSH1 0x4 DUP1 CALLDATASIZE SUB DUP2 ADD SWAP1 PUSH3 0x99 SWAP2 SWAP1 PUSH3 0x48F JUMP JUMPDEST PUSH3 0x103 JUMP JUMPDEST STOP JUMPDEST PUSH3 0xAB PUSH3 0x1AC JUMP JUMPDEST PUSH1 0x40 MLOAD PUSH3 0xBA SWAP2 SWAP1 PUSH3 0x5C3 JUMP JUMPDEST PUSH1 0x40 MLOAD DUP1 SWAP2 SUB SWAP1 RETURN JUMPDEST PUSH1 0x0 DUP2 DUP2 SLOAD DUP2 LT PUSH3 0xD4 JUMPI PUSH1 0x0 DUP1 REVERT JUMPDEST SWAP1 PUSH1 0x0 MSTORE PUSH1 0x20 PUSH1 0x0 KECCAK256 ADD PUSH1 0x0 SWAP2 POP SLOAD SWAP1 PUSH2 0x100 EXP SWAP1 DIV PUSH20 0xFFFFFFFFFFFFFFFFFFFFFFFFFFFFFFFFFFFFFFFF AND DUP2 JUMP JUMPDEST PUSH1 0x0 DUP3 DUP3 CALLER PUSH1 0x40 MLOAD PUSH3 0x116 SWAP1 PUSH3 0x23C JUMP JUMPDEST PUSH3 0x124 SWAP4 SWAP3 SWAP2 SWAP1 PUSH3 0x68B JUMP JUMPDEST PUSH1 0x40 MLOAD DUP1 SWAP2 SUB SWAP1 PUSH1 0x0 CREATE DUP1 ISZERO DUP1 ISZERO PUSH3 0x141 JUMPI RETURNDATASIZE PUSH1 0x0 DUP1 RETURNDATACOPY RETURNDATASIZE PUSH1 0x0 REVERT JUMPDEST POP SWAP1 POP PUSH1 0x0 DUP2 SWAP1 DUP1 PUSH1 0x1 DUP2 SLOAD ADD DUP1 DUP3 SSTORE DUP1 SWAP2 POP POP PUSH1 0x1 SWAP1 SUB SWAP1 PUSH1 0x0 MSTORE PUSH1 0x20 PUSH1 0x0 KECCAK256 ADD PUSH1 0x0 SWAP1 SWAP2 SWAP1 SWAP2 SWAP1 SWAP2 PUSH2 0x100 EXP DUP2 SLOAD DUP2 PUSH20 0xFFFFFFFFFFFFFFFFFFFFFFFFFFFFFFFFFFFFFFFF MUL NOT AND SWAP1 DUP4 PUSH20 0xFFFFFFFFFFFFFFFFFFFFFFFFFFFFFFFFFFFFFFFF AND MUL OR SWAP1 SSTORE POP POP POP POP JUMP JUMPDEST PUSH1 0x60 PUSH1 0x0 DUP1 SLOAD DUP1 PUSH1 0x20 MUL PUSH1 0x20 ADD PUSH1 0x40 MLOAD SWAP1 DUP2 ADD PUSH1 0x40 MSTORE DUP1 SWAP3 SWAP2 SWAP1 DUP2 DUP2 MSTORE PUSH1 0x20 ADD DUP3 DUP1 SLOAD DUP1 ISZERO PUSH3 0x232 JUMPI PUSH1 0x20 MUL DUP3 ADD SWAP2 SWAP1 PUSH1 0x0 MSTORE PUSH1 0x20 PUSH1 0x0 KECCAK256 SWAP1 JUMPDEST DUP2 PUSH1 0x0 SWAP1 SLOAD SWAP1 PUSH2 0x100 EXP SWAP1 DIV PUSH20 0xFFFFFFFFFFFFFFFFFFFFFFFFFFFFFFFFFFFFFFFF AND PUSH20 0xFFFFFFFFFFFFFFFFFFFFFFFFFFFFFFFFFFFFFFFF AND DUP2 MSTORE PUSH1 0x20 ADD SWAP1 PUSH1 0x1 ADD SWAP1 DUP1 DUP4 GT PUSH3 0x1E7 JUMPI JUMPDEST POP POP POP POP POP SWAP1 POP SWAP1 JUMP JUMPDEST PUSH2 0x145B DUP1 PUSH3 0x6D0 DUP4 CODECOPY ADD SWAP1 JUMP JUMPDEST PUSH1 0x0 PUSH1 0x40 MLOAD SWAP1 POP SWAP1 JUMP JUMPDEST PUSH1 0x0 DUP1 REVERT JUMPDEST PUSH1 0x0 DUP1 REVERT JUMPDEST PUSH1 0x0 DUP2 SWAP1 POP SWAP2 SWAP1 POP JUMP JUMPDEST PUSH3 0x273 DUP2 PUSH3 0x25E JUMP JUMPDEST DUP2 EQ PUSH3 0x27F JUMPI PUSH1 0x0 DUP1 REVERT JUMPDEST POP JUMP JUMPDEST PUSH1 0x0 DUP2 CALLDATALOAD SWAP1 POP PUSH3 0x293 DUP2 PUSH3 0x268 JUMP JUMPDEST SWAP3 SWAP2 POP POP JUMP JUMPDEST PUSH1 0x0 PUSH1 0x20 DUP3 DUP5 SUB SLT ISZERO PUSH3 0x2B2 JUMPI PUSH3 0x2B1 PUSH3 0x254 JUMP JUMPDEST JUMPDEST PUSH1 0x0 PUSH3 0x2C2 DUP5 DUP3 DUP6 ADD PUSH3 0x282 JUMP JUMPDEST SWAP2 POP POP SWAP3 SWAP2 POP POP JUMP JUMPDEST PUSH1 0x0 PUSH20 0xFFFFFFFFFFFFFFFFFFFFFFFFFFFFFFFFFFFFFFFF DUP3 AND SWAP1 POP SWAP2 SWAP1 POP JUMP JUMPDEST PUSH1 0x0 PUSH3 0x2F8 DUP3 PUSH3 0x2CB JUMP JUMPDEST SWAP1 POP SWAP2 SWAP1 POP JUMP JUMPDEST PUSH3 0x30A DUP2 PUSH3 0x2EB JUMP JUMPDEST DUP3 MSTORE POP POP JUMP JUMPDEST PUSH1 0x0 PUSH1 0x20 DUP3 ADD SWAP1 POP PUSH3 0x327 PUSH1 0x0 DUP4 ADD DUP5 PUSH3 0x2FF JUMP JUMPDEST SWAP3 SWAP2 POP POP JUMP JUMPDEST PUSH1 0x0 DUP1 REVERT JUMPDEST PUSH1 0x0 DUP1 REVERT JUMPDEST PUSH1 0x0 PUSH1 0x1F NOT PUSH1 0x1F DUP4 ADD AND SWAP1 POP SWAP2 SWAP1 POP JUMP JUMPDEST PUSH32 0x4E487B7100000000000000000000000000000000000000000000000000000000 PUSH1 0x0 MSTORE PUSH1 0x41 PUSH1 0x4 MSTORE PUSH1 0x24 PUSH1 0x0 REVERT JUMPDEST PUSH3 0x382 DUP3 PUSH3 0x337 JUMP JUMPDEST DUP2 ADD DUP2 DUP2 LT PUSH8 0xFFFFFFFFFFFFFFFF DUP3 GT OR ISZERO PUSH3 0x3A4 JUMPI PUSH3 0x3A3 PUSH3 0x348 JUMP JUMPDEST JUMPDEST DUP1 PUSH1 0x40 MSTORE POP POP POP JUMP JUMPDEST PUSH1 0x0 PUSH3 0x3B9 PUSH3 0x24A JUMP JUMPDEST SWAP1 POP PUSH3 0x3C7 DUP3 DUP3 PUSH3 0x377 JUMP JUMPDEST SWAP2 SWAP1 POP JUMP JUMPDEST PUSH1 0x0 PUSH8 0xFFFFFFFFFFFFFFFF DUP3 GT ISZERO PUSH3 0x3EA JUMPI PUSH3 0x3E9 PUSH3 0x348 JUMP JUMPDEST JUMPDEST PUSH3 0x3F5 DUP3 PUSH3 0x337 JUMP JUMPDEST SWAP1 POP PUSH1 0x20 DUP2 ADD SWAP1 POP SWAP2 SWAP1 POP JUMP JUMPDEST DUP3 DUP2 DUP4 CALLDATACOPY PUSH1 0x0 DUP4 DUP4 ADD MSTORE POP POP POP JUMP JUMPDEST PUSH1 0x0 PUSH3 0x428 PUSH3 0x422 DUP5 PUSH3 0x3CC JUMP JUMPDEST PUSH3 0x3AD JUMP JUMPDEST SWAP1 POP DUP3 DUP2 MSTORE PUSH1 0x20 DUP2 ADD DUP5 DUP5 DUP5 ADD GT ISZERO PUSH3 0x447 JUMPI PUSH3 0x446 PUSH3 0x332 JUMP JUMPDEST JUMPDEST PUSH3 0x454 DUP5 DUP3 DUP6 PUSH3 0x402 JUMP JUMPDEST POP SWAP4 SWAP3 POP POP POP JUMP JUMPDEST PUSH1 0x0 DUP3 PUSH1 0x1F DUP4 ADD SLT PUSH3 0x474 JUMPI PUSH3 0x473 PUSH3 0x32D JUMP JUMPDEST JUMPDEST DUP2 CALLDATALOAD PUSH3 0x486 DUP5 DUP3 PUSH1 0x20 DUP7 ADD PUSH3 0x411 JUMP JUMPDEST SWAP2 POP POP SWAP3 SWAP2 POP POP JUMP JUMPDEST PUSH1 0x0 DUP1 PUSH1 0x40 DUP4 DUP6 SUB SLT ISZERO PUSH3 0x4A9 JUMPI PUSH3 0x4A8 PUSH3 0x254 JUMP JUMPDEST JUMPDEST PUSH1 0x0 PUSH3 0x4B9 DUP6 DUP3 DUP7 ADD PUSH3 0x282 JUMP JUMPDEST SWAP3 POP POP PUSH1 0x20 DUP4 ADD CALLDATALOAD PUSH8 0xFFFFFFFFFFFFFFFF DUP2 GT ISZERO PUSH3 0x4DD JUMPI PUSH3 0x4DC PUSH3 0x259 JUMP JUMPDEST JUMPDEST PUSH3 0x4EB DUP6 DUP3 DUP7 ADD PUSH3 0x45C JUMP JUMPDEST SWAP2 POP POP SWAP3 POP SWAP3 SWAP1 POP JUMP JUMPDEST PUSH1 0x0 DUP2 MLOAD SWAP1 POP SWAP2 SWAP1 POP JUMP JUMPDEST PUSH1 0x0 DUP3 DUP3 MSTORE PUSH1 0x20 DUP3 ADD SWAP1 POP SWAP3 SWAP2 POP POP JUMP JUMPDEST PUSH1 0x0 DUP2 SWAP1 POP PUSH1 0x20 DUP3 ADD SWAP1 POP SWAP2 SWAP1 POP JUMP JUMPDEST PUSH3 0x52C DUP2 PUSH3 0x2EB JUMP JUMPDEST DUP3 MSTORE POP POP JUMP JUMPDEST PUSH1 0x0 PUSH3 0x540 DUP4 DUP4 PUSH3 0x521 JUMP JUMPDEST PUSH1 0x20 DUP4 ADD SWAP1 POP SWAP3 SWAP2 POP POP JUMP JUMPDEST PUSH1 0x0 PUSH1 0x20 DUP3 ADD SWAP1 POP SWAP2 SWAP1 POP JUMP JUMPDEST PUSH1 0x0 PUSH3 0x566 DUP3 PUSH3 0x4F5 JUMP JUMPDEST PUSH3 0x572 DUP2 DUP6 PUSH3 0x500 JUMP JUMPDEST SWAP4 POP PUSH3 0x57F DUP4 PUSH3 0x511 JUMP JUMPDEST DUP1 PUSH1 0x0 JUMPDEST DUP4 DUP2 LT ISZERO PUSH3 0x5B6 JUMPI DUP2 MLOAD PUSH3 0x59A DUP9 DUP3 PUSH3 0x532 JUMP JUMPDEST SWAP8 POP PUSH3 0x5A7 DUP4 PUSH3 0x54C JUMP JUMPDEST SWAP3 POP POP PUSH1 0x1 DUP2 ADD SWAP1 POP PUSH3 0x583 JUMP JUMPDEST POP DUP6 SWAP4 POP POP POP POP SWAP3 SWAP2 POP POP JUMP JUMPDEST PUSH1 0x0 PUSH1 0x20 DUP3 ADD SWAP1 POP DUP2 DUP2 SUB PUSH1 0x0 DUP4 ADD MSTORE PUSH3 0x5DF DUP2 DUP5 PUSH3 0x559 JUMP JUMPDEST SWAP1 POP SWAP3 SWAP2 POP POP JUMP JUMPDEST PUSH3 0x5F2 DUP2 PUSH3 0x25E JUMP JUMPDEST DUP3 MSTORE POP POP JUMP JUMPDEST PUSH1 0x0 DUP2 MLOAD SWAP1 POP SWAP2 SWAP1 POP JUMP JUMPDEST PUSH1 0x0 DUP3 DUP3 MSTORE PUSH1 0x20 DUP3 ADD SWAP1 POP SWAP3 SWAP2 POP POP JUMP JUMPDEST PUSH1 0x0 JUMPDEST DUP4 DUP2 LT ISZERO PUSH3 0x634 JUMPI DUP1 DUP3 ADD MLOAD DUP2 DUP5 ADD MSTORE PUSH1 0x20 DUP2 ADD SWAP1 POP PUSH3 0x617 JUMP JUMPDEST DUP4 DUP2 GT ISZERO PUSH3 0x644 JUMPI PUSH1 0x0 DUP5 DUP5 ADD MSTORE JUMPDEST POP POP POP POP JUMP JUMPDEST PUSH1 0x0 PUSH3 0x657 DUP3 PUSH3 0x5F8 JUMP JUMPDEST PUSH3 0x663 DUP2 DUP6 PUSH3 0x603 JUMP JUMPDEST SWAP4 POP PUSH3 0x675 DUP2 DUP6 PUSH1 0x20 DUP7 ADD PUSH3 0x614 JUMP JUMPDEST PUSH3 0x680 DUP2 PUSH3 0x337 JUMP JUMPDEST DUP5 ADD SWAP2 POP POP SWAP3 SWAP2 POP POP JUMP JUMPDEST PUSH1 0x0 PUSH1 0x60 DUP3 ADD SWAP1 POP PUSH3 0x6A2 PUSH1 0x0 DUP4 ADD DUP7 PUSH3 0x5E7 JUMP JUMPDEST DUP2 DUP2 SUB PUSH1 0x20 DUP4 ADD MSTORE PUSH3 0x6B6 DUP2 DUP6 PUSH3 0x64A JUMP JUMPDEST SWAP1 POP PUSH3 0x6C7 PUSH1 0x40 DUP4 ADD DUP5 PUSH3 0x2FF JUMP JUMPDEST SWAP5 SWAP4 POP POP POP POP JUMP INVALID PUSH1 0x80 PUSH1 0x40 MSTORE CALLVALUE DUP1 ISZERO PUSH3 0x11 JUMPI PUSH1 0x0 DUP1 REVERT JUMPDEST POP PUSH1 0x40 MLOAD PUSH3 0x145B CODESIZE SUB DUP1 PUSH3 0x145B DUP4 CODECOPY DUP2 DUP2 ADD PUSH1 0x40 MSTORE DUP2 ADD SWAP1 PUSH3 0x37 SWAP2 SWAP1 PUSH3 0x38D JUMP JUMPDEST DUP1 PUSH1 0x0 DUP1 PUSH2 0x100 EXP DUP2 SLOAD DUP2 PUSH20 0xFFFFFFFFFFFFFFFFFFFFFFFFFFFFFFFFFFFFFFFF MUL NOT AND SWAP1 DUP4 PUSH20 0xFFFFFFFFFFFFFFFFFFFFFFFFFFFFFFFFFFFFFFFF AND MUL OR SWAP1 SSTORE POP DUP3 PUSH1 0x1 DUP2 SWAP1 SSTORE POP DUP2 PUSH1 0x5 SWAP1 DUP1 MLOAD SWAP1 PUSH1 0x20 ADD SWAP1 PUSH3 0x96 SWAP3 SWAP2 SWAP1 PUSH3 0xA0 JUMP JUMPDEST POP POP POP POP PUSH3 0x46D JUMP JUMPDEST DUP3 DUP1 SLOAD PUSH3 0xAE SWAP1 PUSH3 0x437 JUMP JUMPDEST SWAP1 PUSH1 0x0 MSTORE PUSH1 0x20 PUSH1 0x0 KECCAK256 SWAP1 PUSH1 0x1F ADD PUSH1 0x20 SWAP1 DIV DUP2 ADD SWAP3 DUP3 PUSH3 0xD2 JUMPI PUSH1 0x0 DUP6 SSTORE PUSH3 0x11E JUMP JUMPDEST DUP3 PUSH1 0x1F LT PUSH3 0xED JUMPI DUP1 MLOAD PUSH1 0xFF NOT AND DUP4 DUP1 ADD OR DUP6 SSTORE PUSH3 0x11E JUMP JUMPDEST DUP3 DUP1 ADD PUSH1 0x1 ADD DUP6 SSTORE DUP3 ISZERO PUSH3 0x11E JUMPI SWAP2 DUP3 ADD JUMPDEST DUP3 DUP2 GT ISZERO PUSH3 0x11D JUMPI DUP3 MLOAD DUP3 SSTORE SWAP2 PUSH1 0x20 ADD SWAP2 SWAP1 PUSH1 0x1 ADD SWAP1 PUSH3 0x100 JUMP JUMPDEST JUMPDEST POP SWAP1 POP PUSH3 0x12D SWAP2 SWAP1 PUSH3 0x131 JUMP JUMPDEST POP SWAP1 JUMP JUMPDEST JUMPDEST DUP1 DUP3 GT ISZERO PUSH3 0x14C JUMPI PUSH1 0x0 DUP2 PUSH1 0x0 SWAP1 SSTORE POP PUSH1 0x1 ADD PUSH3 0x132 JUMP JUMPDEST POP SWAP1 JUMP JUMPDEST PUSH1 0x0 PUSH1 0x40 MLOAD SWAP1 POP SWAP1 JUMP JUMPDEST PUSH1 0x0 DUP1 REVERT JUMPDEST PUSH1 0x0 DUP1 REVERT JUMPDEST PUSH1 0x0 DUP2 SWAP1 POP SWAP2 SWAP1 POP JUMP JUMPDEST PUSH3 0x179 DUP2 PUSH3 0x164 JUMP JUMPDEST DUP2 EQ PUSH3 0x185 JUMPI PUSH1 0x0 DUP1 REVERT JUMPDEST POP JUMP JUMPDEST PUSH1 0x0 DUP2 MLOAD SWAP1 POP PUSH3 0x199 DUP2 PUSH3 0x16E JUMP JUMPDEST SWAP3 SWAP2 POP POP JUMP JUMPDEST PUSH1 0x0 DUP1 REVERT JUMPDEST PUSH1 0x0 DUP1 REVERT JUMPDEST PUSH1 0x0 PUSH1 0x1F NOT PUSH1 0x1F DUP4 ADD AND SWAP1 POP SWAP2 SWAP1 POP JUMP JUMPDEST PUSH32 0x4E487B7100000000000000000000000000000000000000000000000000000000 PUSH1 0x0 MSTORE PUSH1 0x41 PUSH1 0x4 MSTORE PUSH1 0x24 PUSH1 0x0 REVERT JUMPDEST PUSH3 0x1F4 DUP3 PUSH3 0x1A9 JUMP JUMPDEST DUP2 ADD DUP2 DUP2 LT PUSH8 0xFFFFFFFFFFFFFFFF DUP3 GT OR ISZERO PUSH3 0x216 JUMPI PUSH3 0x215 PUSH3 0x1BA JUMP JUMPDEST JUMPDEST DUP1 PUSH1 0x40 MSTORE POP POP POP JUMP JUMPDEST PUSH1 0x0 PUSH3 0x22B PUSH3 0x150 JUMP JUMPDEST SWAP1 POP PUSH3 0x239 DUP3 DUP3 PUSH3 0x1E9 JUMP JUMPDEST SWAP2 SWAP1 POP JUMP JUMPDEST PUSH1 0x0 PUSH8 0xFFFFFFFFFFFFFFFF DUP3 GT ISZERO PUSH3 0x25C JUMPI PUSH3 0x25B PUSH3 0x1BA JUMP JUMPDEST JUMPDEST PUSH3 0x267 DUP3 PUSH3 0x1A9 JUMP JUMPDEST SWAP1 POP PUSH1 0x20 DUP2 ADD SWAP1 POP SWAP2 SWAP1 POP JUMP JUMPDEST PUSH1 0x0 JUMPDEST DUP4 DUP2 LT ISZERO PUSH3 0x294 JUMPI DUP1 DUP3 ADD MLOAD DUP2 DUP5 ADD MSTORE PUSH1 0x20 DUP2 ADD SWAP1 POP PUSH3 0x277 JUMP JUMPDEST DUP4 DUP2 GT ISZERO PUSH3 0x2A4 JUMPI PUSH1 0x0 DUP5 DUP5 ADD MSTORE JUMPDEST POP POP POP POP JUMP JUMPDEST PUSH1 0x0 PUSH3 0x2C1 PUSH3 0x2BB DUP5 PUSH3 0x23E JUMP JUMPDEST PUSH3 0x21F JUMP JUMPDEST SWAP1 POP DUP3 DUP2 MSTORE PUSH1 0x20 DUP2 ADD DUP5 DUP5 DUP5 ADD GT ISZERO PUSH3 0x2E0 JUMPI PUSH3 0x2DF PUSH3 0x1A4 JUMP JUMPDEST JUMPDEST PUSH3 0x2ED DUP5 DUP3 DUP6 PUSH3 0x274 JUMP JUMPDEST POP SWAP4 SWAP3 POP POP POP JUMP JUMPDEST PUSH1 0x0 DUP3 PUSH1 0x1F DUP4 ADD SLT PUSH3 0x30D JUMPI PUSH3 0x30C PUSH3 0x19F JUMP JUMPDEST JUMPDEST DUP2 MLOAD PUSH3 0x31F DUP5 DUP3 PUSH1 0x20 DUP7 ADD PUSH3 0x2AA JUMP JUMPDEST SWAP2 POP POP SWAP3 SWAP2 POP POP JUMP JUMPDEST PUSH1 0x0 PUSH20 0xFFFFFFFFFFFFFFFFFFFFFFFFFFFFFFFFFFFFFFFF DUP3 AND SWAP1 POP SWAP2 SWAP1 POP JUMP JUMPDEST PUSH1 0x0 PUSH3 0x355 DUP3 PUSH3 0x328 JUMP JUMPDEST SWAP1 POP SWAP2 SWAP1 POP JUMP JUMPDEST PUSH3 0x367 DUP2 PUSH3 0x348 JUMP JUMPDEST DUP2 EQ PUSH3 0x373 JUMPI PUSH1 0x0 DUP1 REVERT JUMPDEST POP JUMP JUMPDEST PUSH1 0x0 DUP2 MLOAD SWAP1 POP PUSH3 0x387 DUP2 PUSH3 0x35C JUMP JUMPDEST SWAP3 SWAP2 POP POP JUMP JUMPDEST PUSH1 0x0 DUP1 PUSH1 0x0 PUSH1 0x60 DUP5 DUP7 SUB SLT ISZERO PUSH3 0x3A9 JUMPI PUSH3 0x3A8 PUSH3 0x15A JUMP JUMPDEST JUMPDEST PUSH1 0x0 PUSH3 0x3B9 DUP7 DUP3 DUP8 ADD PUSH3 0x188 JUMP JUMPDEST SWAP4 POP POP PUSH1 0x20 DUP5 ADD MLOAD PUSH8 0xFFFFFFFFFFFFFFFF DUP2 GT ISZERO PUSH3 0x3DD JUMPI PUSH3 0x3DC PUSH3 0x15F JUMP JUMPDEST JUMPDEST PUSH3 0x3EB DUP7 DUP3 DUP8 ADD PUSH3 0x2F5 JUMP JUMPDEST SWAP3 POP POP PUSH1 0x40 PUSH3 0x3FE DUP7 DUP3 DUP8 ADD PUSH3 0x376 JUMP JUMPDEST SWAP2 POP POP SWAP3 POP SWAP3 POP SWAP3 JUMP JUMPDEST PUSH32 0x4E487B7100000000000000000000000000000000000000000000000000000000 PUSH1 0x0 MSTORE PUSH1 0x22 PUSH1 0x4 MSTORE PUSH1 0x24 PUSH1 0x0 REVERT JUMPDEST PUSH1 0x0 PUSH1 0x2 DUP3 DIV SWAP1 POP PUSH1 0x1 DUP3 AND DUP1 PUSH3 0x450 JUMPI PUSH1 0x7F DUP3 AND SWAP2 POP JUMPDEST PUSH1 0x20 DUP3 LT DUP2 EQ ISZERO PUSH3 0x467 JUMPI PUSH3 0x466 PUSH3 0x408 JUMP JUMPDEST JUMPDEST POP SWAP2 SWAP1 POP JUMP JUMPDEST PUSH2 0xFDE DUP1 PUSH3 0x47D PUSH1 0x0 CODECOPY PUSH1 0x0 RETURN INVALID PUSH1 0x80 PUSH1 0x40 MSTORE PUSH1 0x4 CALLDATASIZE LT PUSH2 0xA7 JUMPI PUSH1 0x0 CALLDATALOAD PUSH1 0xE0 SHR DUP1 PUSH4 0x82FDE093 GT PUSH2 0x64 JUMPI DUP1 PUSH4 0x82FDE093 EQ PUSH2 0x1D8 JUMPI DUP1 PUSH4 0x8A9CFD55 EQ PUSH2 0x203 JUMPI DUP1 PUSH4 0xA7F33715 EQ PUSH2 0x22C JUMPI DUP1 PUSH4 0xB02A8016 EQ PUSH2 0x257 JUMPI DUP1 PUSH4 0xD7BB99BA EQ PUSH2 0x282 JUMPI DUP1 PUSH4 0xD7D1BBDB EQ PUSH2 0x28C JUMPI PUSH2 0xA7 JUMP JUMPDEST DUP1 PUSH4 0x3441006 EQ PUSH2 0xAC JUMPI DUP1 PUSH4 0xA144391 EQ PUSH2 0xD5 JUMPI DUP1 PUSH4 0x3410452A EQ PUSH2 0x112 JUMPI DUP1 PUSH4 0x4051DDAC EQ PUSH2 0x13D JUMPI DUP1 PUSH4 0x481C6A75 EQ PUSH2 0x16C JUMPI DUP1 PUSH4 0x81D12C58 EQ PUSH2 0x197 JUMPI JUMPDEST PUSH1 0x0 DUP1 REVERT JUMPDEST CALLVALUE DUP1 ISZERO PUSH2 0xB8 JUMPI PUSH1 0x0 DUP1 REVERT JUMPDEST POP PUSH2 0xD3 PUSH1 0x4 DUP1 CALLDATASIZE SUB DUP2 ADD SWAP1 PUSH2 0xCE SWAP2 SWAP1 PUSH2 0x9F2 JUMP JUMPDEST PUSH2 0x2B5 JUMP JUMPDEST STOP JUMPDEST CALLVALUE DUP1 ISZERO PUSH2 0xE1 JUMPI PUSH1 0x0 DUP1 REVERT JUMPDEST POP PUSH2 0xFC PUSH1 0x4 DUP1 CALLDATASIZE SUB DUP2 ADD SWAP1 PUSH2 0xF7 SWAP2 SWAP1 PUSH2 0xA7D JUMP JUMPDEST PUSH2 0x3FD JUMP JUMPDEST PUSH1 0x40 MLOAD PUSH2 0x109 SWAP2 SWAP1 PUSH2 0xAC5 JUMP JUMPDEST PUSH1 0x40 MLOAD DUP1 SWAP2 SUB SWAP1 RETURN JUMPDEST CALLVALUE DUP1 ISZERO PUSH2 0x11E JUMPI PUSH1 0x0 DUP1 REVERT JUMPDEST POP PUSH2 0x127 PUSH2 0x41D JUMP JUMPDEST PUSH1 0x40 MLOAD PUSH2 0x134 SWAP2 SWAP1 PUSH2 0xAEF JUMP JUMPDEST PUSH1 0x40 MLOAD DUP1 SWAP2 SUB SWAP1 RETURN JUMPDEST CALLVALUE DUP1 ISZERO PUSH2 0x149 JUMPI PUSH1 0x0 DUP1 REVERT JUMPDEST POP PUSH2 0x152 PUSH2 0x42A JUMP JUMPDEST PUSH1 0x40 MLOAD PUSH2 0x163 SWAP6 SWAP5 SWAP4 SWAP3 SWAP2 SWAP1 PUSH2 0xB19 JUMP JUMPDEST PUSH1 0x40 MLOAD DUP1 SWAP2 SUB SWAP1 RETURN JUMPDEST CALLVALUE DUP1 ISZERO PUSH2 0x178 JUMPI PUSH1 0x0 DUP1 REVERT JUMPDEST POP PUSH2 0x181 PUSH2 0x471 JUMP JUMPDEST PUSH1 0x40 MLOAD PUSH2 0x18E SWAP2 SWAP1 PUSH2 0xB6C JUMP JUMPDEST PUSH1 0x40 MLOAD DUP1 SWAP2 SUB SWAP1 RETURN JUMPDEST CALLVALUE DUP1 ISZERO PUSH2 0x1A3 JUMPI PUSH1 0x0 DUP1 REVERT JUMPDEST POP PUSH2 0x1BE PUSH1 0x4 DUP1 CALLDATASIZE SUB DUP2 ADD SWAP1 PUSH2 0x1B9 SWAP2 SWAP1 PUSH2 0x9F2 JUMP JUMPDEST PUSH2 0x495 JUMP JUMPDEST PUSH1 0x40 MLOAD PUSH2 0x1CF SWAP6 SWAP5 SWAP4 SWAP3 SWAP2 SWAP1 PUSH2 0xC20 JUMP JUMPDEST PUSH1 0x40 MLOAD DUP1 SWAP2 SUB SWAP1 RETURN JUMPDEST CALLVALUE DUP1 ISZERO PUSH2 0x1E4 JUMPI PUSH1 0x0 DUP1 REVERT JUMPDEST POP PUSH2 0x1ED PUSH2 0x590 JUMP JUMPDEST PUSH1 0x40 MLOAD PUSH2 0x1FA SWAP2 SWAP1 PUSH2 0xAEF JUMP JUMPDEST PUSH1 0x40 MLOAD DUP1 SWAP2 SUB SWAP1 RETURN JUMPDEST CALLVALUE DUP1 ISZERO PUSH2 0x20F JUMPI PUSH1 0x0 DUP1 REVERT JUMPDEST POP PUSH2 0x22A PUSH1 0x4 DUP1 CALLDATASIZE SUB DUP2 ADD SWAP1 PUSH2 0x225 SWAP2 SWAP1 PUSH2 0xDAF JUMP JUMPDEST PUSH2 0x596 JUMP JUMPDEST STOP JUMPDEST CALLVALUE DUP1 ISZERO PUSH2 0x238 JUMPI PUSH1 0x0 DUP1 REVERT JUMPDEST POP PUSH2 0x241 PUSH2 0x6A4 JUMP JUMPDEST PUSH1 0x40 MLOAD PUSH2 0x24E SWAP2 SWAP1 PUSH2 0xAEF JUMP JUMPDEST PUSH1 0x40 MLOAD DUP1 SWAP2 SUB SWAP1 RETURN JUMPDEST CALLVALUE DUP1 ISZERO PUSH2 0x263 JUMPI PUSH1 0x0 DUP1 REVERT JUMPDEST POP PUSH2 0x26C PUSH2 0x6AA JUMP JUMPDEST PUSH1 0x40 MLOAD PUSH2 0x279 SWAP2 SWAP1 PUSH2 0xE1E JUMP JUMPDEST PUSH1 0x40 MLOAD DUP1 SWAP2 SUB SWAP1 RETURN JUMPDEST PUSH2 0x28A PUSH2 0x738 JUMP JUMPDEST STOP JUMPDEST CALLVALUE DUP1 ISZERO PUSH2 0x298 JUMPI PUSH1 0x0 DUP1 REVERT JUMPDEST POP PUSH2 0x2B3 PUSH1 0x4 DUP1 CALLDATASIZE SUB DUP2 ADD SWAP1 PUSH2 0x2AE SWAP2 SWAP1 PUSH2 0x9F2 JUMP JUMPDEST PUSH2 0x7B8 JUMP JUMPDEST STOP JUMPDEST PUSH1 0x0 DUP1 SLOAD SWAP1 PUSH2 0x100 EXP SWAP1 DIV PUSH20 0xFFFFFFFFFFFFFFFFFFFFFFFFFFFFFFFFFFFFFFFF AND PUSH20 0xFFFFFFFFFFFFFFFFFFFFFFFFFFFFFFFFFFFFFFFF AND CALLER PUSH20 0xFFFFFFFFFFFFFFFFFFFFFFFFFFFFFFFFFFFFFFFF AND EQ PUSH2 0x30D JUMPI PUSH1 0x0 DUP1 REVERT JUMPDEST PUSH1 0x0 PUSH1 0x3 DUP3 DUP2 SLOAD DUP2 LT PUSH2 0x323 JUMPI PUSH2 0x322 PUSH2 0xE40 JUMP JUMPDEST JUMPDEST SWAP1 PUSH1 0x0 MSTORE PUSH1 0x20 PUSH1 0x0 KECCAK256 SWAP1 PUSH1 0x5 MUL ADD SWAP1 POP PUSH1 0x2 PUSH1 0x4 SLOAD PUSH2 0x342 SWAP2 SWAP1 PUSH2 0xECD JUMP JUMPDEST DUP2 PUSH1 0x3 ADD SLOAD GT PUSH2 0x351 JUMPI PUSH1 0x0 DUP1 REVERT JUMPDEST DUP1 PUSH1 0x2 ADD PUSH1 0x14 SWAP1 SLOAD SWAP1 PUSH2 0x100 EXP SWAP1 DIV PUSH1 0xFF AND ISZERO PUSH2 0x36D JUMPI PUSH1 0x0 DUP1 REVERT JUMPDEST DUP1 PUSH1 0x2 ADD PUSH1 0x0 SWAP1 SLOAD SWAP1 PUSH2 0x100 EXP SWAP1 DIV PUSH20 0xFFFFFFFFFFFFFFFFFFFFFFFFFFFFFFFFFFFFFFFF AND PUSH20 0xFFFFFFFFFFFFFFFFFFFFFFFFFFFFFFFFFFFFFFFF AND PUSH2 0x8FC DUP3 PUSH1 0x1 ADD SLOAD SWAP1 DUP2 ISZERO MUL SWAP1 PUSH1 0x40 MLOAD PUSH1 0x0 PUSH1 0x40 MLOAD DUP1 DUP4 SUB DUP2 DUP6 DUP9 DUP9 CALL SWAP4 POP POP POP POP ISZERO DUP1 ISZERO PUSH2 0x3DB JUMPI RETURNDATASIZE PUSH1 0x0 DUP1 RETURNDATACOPY RETURNDATASIZE PUSH1 0x0 REVERT JUMPDEST POP PUSH1 0x1 DUP2 PUSH1 0x2 ADD PUSH1 0x14 PUSH2 0x100 EXP DUP2 SLOAD DUP2 PUSH1 0xFF MUL NOT AND SWAP1 DUP4 ISZERO ISZERO MUL OR SWAP1 SSTORE POP POP POP JUMP JUMPDEST PUSH1 0x2 PUSH1 0x20 MSTORE DUP1 PUSH1 0x0 MSTORE PUSH1 0x40 PUSH1 0x0 KECCAK256 PUSH1 0x0 SWAP2 POP SLOAD SWAP1 PUSH2 0x100 EXP SWAP1 DIV PUSH1 0xFF AND DUP2 JUMP JUMPDEST PUSH1 0x0 PUSH1 0x3 DUP1 SLOAD SWAP1 POP SWAP1 POP SWAP1 JUMP JUMPDEST PUSH1 0x0 DUP1 PUSH1 0x0 DUP1 PUSH1 0x0 PUSH1 0x1 SLOAD SELFBALANCE PUSH1 0x3 DUP1 SLOAD SWAP1 POP PUSH1 0x4 SLOAD PUSH1 0x0 DUP1 SLOAD SWAP1 PUSH2 0x100 EXP SWAP1 DIV PUSH20 0xFFFFFFFFFFFFFFFFFFFFFFFFFFFFFFFFFFFFFFFF AND SWAP5 POP SWAP5 POP SWAP5 POP SWAP5 POP SWAP5 POP SWAP1 SWAP2 SWAP3 SWAP4 SWAP5 JUMP JUMPDEST PUSH1 0x0 DUP1 SLOAD SWAP1 PUSH2 0x100 EXP SWAP1 DIV PUSH20 0xFFFFFFFFFFFFFFFFFFFFFFFFFFFFFFFFFFFFFFFF AND DUP2 JUMP JUMPDEST PUSH1 0x3 DUP2 DUP2 SLOAD DUP2 LT PUSH2 0x4A5 JUMPI PUSH1 0x0 DUP1 REVERT JUMPDEST SWAP1 PUSH1 0x0 MSTORE PUSH1 0x20 PUSH1 0x0 KECCAK256 SWAP1 PUSH1 0x5 MUL ADD PUSH1 0x0 SWAP2 POP SWAP1 POP DUP1 PUSH1 0x0 ADD DUP1 SLOAD PUSH2 0x4C8 SWAP1 PUSH2 0xF2D JUMP JUMPDEST DUP1 PUSH1 0x1F ADD PUSH1 0x20 DUP1 SWAP2 DIV MUL PUSH1 0x20 ADD PUSH1 0x40 MLOAD SWAP1 DUP2 ADD PUSH1 0x40 MSTORE DUP1 SWAP3 SWAP2 SWAP1 DUP2 DUP2 MSTORE PUSH1 0x20 ADD DUP3 DUP1 SLOAD PUSH2 0x4F4 SWAP1 PUSH2 0xF2D JUMP JUMPDEST DUP1 ISZERO PUSH2 0x541 JUMPI DUP1 PUSH1 0x1F LT PUSH2 0x516 JUMPI PUSH2 0x100 DUP1 DUP4 SLOAD DIV MUL DUP4 MSTORE SWAP2 PUSH1 0x20 ADD SWAP2 PUSH2 0x541 JUMP JUMPDEST DUP3 ADD SWAP2 SWAP1 PUSH1 0x0 MSTORE PUSH1 0x20 PUSH1 0x0 KECCAK256 SWAP1 JUMPDEST DUP2 SLOAD DUP2 MSTORE SWAP1 PUSH1 0x1 ADD SWAP1 PUSH1 0x20 ADD DUP1 DUP4 GT PUSH2 0x524 JUMPI DUP3 SWAP1 SUB PUSH1 0x1F AND DUP3 ADD SWAP2 JUMPDEST POP POP POP POP POP SWAP1 DUP1 PUSH1 0x1 ADD SLOAD SWAP1 DUP1 PUSH1 0x2 ADD PUSH1 0x0 SWAP1 SLOAD SWAP1 PUSH2 0x100 EXP SWAP1 DIV PUSH20 0xFFFFFFFFFFFFFFFFFFFFFFFFFFFFFFFFFFFFFFFF AND SWAP1 DUP1 PUSH1 0x2 ADD PUSH1 0x14 SWAP1 SLOAD SWAP1 PUSH2 0x100 EXP SWAP1 DIV PUSH1 0xFF AND SWAP1 DUP1 PUSH1 0x3 ADD SLOAD SWAP1 POP DUP6 JUMP JUMPDEST PUSH1 0x4 SLOAD DUP2 JUMP JUMPDEST PUSH1 0x0 DUP1 SLOAD SWAP1 PUSH2 0x100 EXP SWAP1 DIV PUSH20 0xFFFFFFFFFFFFFFFFFFFFFFFFFFFFFFFFFFFFFFFF AND PUSH20 0xFFFFFFFFFFFFFFFFFFFFFFFFFFFFFFFFFFFFFFFF AND CALLER PUSH20 0xFFFFFFFFFFFFFFFFFFFFFFFFFFFFFFFFFFFFFFFF AND EQ PUSH2 0x5EE JUMPI PUSH1 0x0 DUP1 REVERT JUMPDEST PUSH1 0x0 PUSH1 0x3 PUSH1 0x1 DUP2 PUSH1 0x1 DUP2 SLOAD ADD DUP1 DUP3 SSTORE DUP1 SWAP2 POP POP SUB SWAP1 PUSH1 0x0 MSTORE PUSH1 0x20 PUSH1 0x0 KECCAK256 SWAP1 PUSH1 0x5 MUL ADD SWAP1 POP DUP4 DUP2 PUSH1 0x0 ADD SWAP1 DUP1 MLOAD SWAP1 PUSH1 0x20 ADD SWAP1 PUSH2 0x62A SWAP3 SWAP2 SWAP1 PUSH2 0x905 JUMP JUMPDEST POP DUP3 DUP2 PUSH1 0x1 ADD DUP2 SWAP1 SSTORE POP DUP2 DUP2 PUSH1 0x2 ADD PUSH1 0x0 PUSH2 0x100 EXP DUP2 SLOAD DUP2 PUSH20 0xFFFFFFFFFFFFFFFFFFFFFFFFFFFFFFFFFFFFFFFF MUL NOT AND SWAP1 DUP4 PUSH20 0xFFFFFFFFFFFFFFFFFFFFFFFFFFFFFFFFFFFFFFFF AND MUL OR SWAP1 SSTORE POP PUSH1 0x0 DUP2 PUSH1 0x2 ADD PUSH1 0x14 PUSH2 0x100 EXP DUP2 SLOAD DUP2 PUSH1 0xFF MUL NOT AND SWAP1 DUP4 ISZERO ISZERO MUL OR SWAP1 SSTORE POP PUSH1 0x0 DUP2 PUSH1 0x3 ADD DUP2 SWAP1 SSTORE POP POP POP POP POP JUMP JUMPDEST PUSH1 0x1 SLOAD DUP2 JUMP JUMPDEST PUSH1 0x5 DUP1 SLOAD PUSH2 0x6B7 SWAP1 PUSH2 0xF2D JUMP JUMPDEST DUP1 PUSH1 0x1F ADD PUSH1 0x20 DUP1 SWAP2 DIV MUL PUSH1 0x20 ADD PUSH1 0x40 MLOAD SWAP1 DUP2 ADD PUSH1 0x40 MSTORE DUP1 SWAP3 SWAP2 SWAP1 DUP2 DUP2 MSTORE PUSH1 0x20 ADD DUP3 DUP1 SLOAD PUSH2 0x6E3 SWAP1 PUSH2 0xF2D JUMP JUMPDEST DUP1 ISZERO PUSH2 0x730 JUMPI DUP1 PUSH1 0x1F LT PUSH2 0x705 JUMPI PUSH2 0x100 DUP1 DUP4 SLOAD DIV MUL DUP4 MSTORE SWAP2 PUSH1 0x20 ADD SWAP2 PUSH2 0x730 JUMP JUMPDEST DUP3 ADD SWAP2 SWAP1 PUSH1 0x0 MSTORE PUSH1 0x20 PUSH1 0x0 KECCAK256 SWAP1 JUMPDEST DUP2 SLOAD DUP2 MSTORE SWAP1 PUSH1 0x1 ADD SWAP1 PUSH1 0x20 ADD DUP1 DUP4 GT PUSH2 0x713 JUMPI DUP3 SWAP1 SUB PUSH1 0x1F AND DUP3 ADD SWAP2 JUMPDEST POP POP POP POP POP DUP2 JUMP JUMPDEST PUSH1 0x1 SLOAD CALLVALUE GT PUSH2 0x746 JUMPI PUSH1 0x0 DUP1 REVERT JUMPDEST PUSH1 0x1 PUSH1 0x2 PUSH1 0x0 CALLER PUSH20 0xFFFFFFFFFFFFFFFFFFFFFFFFFFFFFFFFFFFFFFFF AND PUSH20 0xFFFFFFFFFFFFFFFFFFFFFFFFFFFFFFFFFFFFFFFF AND DUP2 MSTORE PUSH1 0x20 ADD SWAP1 DUP2 MSTORE PUSH1 0x20 ADD PUSH1 0x0 KECCAK256 PUSH1 0x0 PUSH2 0x100 EXP DUP2 SLOAD DUP2 PUSH1 0xFF MUL NOT AND SWAP1 DUP4 ISZERO ISZERO MUL OR SWAP1 SSTORE POP PUSH1 0x4 PUSH1 0x0 DUP2 SLOAD DUP1 SWAP3 SWAP2 SWAP1 PUSH2 0x7B1 SWAP1 PUSH2 0xF5F JUMP JUMPDEST SWAP2 SWAP1 POP SSTORE POP JUMP JUMPDEST PUSH1 0x0 PUSH1 0x3 DUP3 DUP2 SLOAD DUP2 LT PUSH2 0x7CE JUMPI PUSH2 0x7CD PUSH2 0xE40 JUMP JUMPDEST JUMPDEST SWAP1 PUSH1 0x0 MSTORE PUSH1 0x20 PUSH1 0x0 KECCAK256 SWAP1 PUSH1 0x5 MUL ADD SWAP1 POP PUSH1 0x2 PUSH1 0x0 CALLER PUSH20 0xFFFFFFFFFFFFFFFFFFFFFFFFFFFFFFFFFFFFFFFF AND PUSH20 0xFFFFFFFFFFFFFFFFFFFFFFFFFFFFFFFFFFFFFFFF AND DUP2 MSTORE PUSH1 0x20 ADD SWAP1 DUP2 MSTORE PUSH1 0x20 ADD PUSH1 0x0 KECCAK256 PUSH1 0x0 SWAP1 SLOAD SWAP1 PUSH2 0x100 EXP SWAP1 DIV PUSH1 0xFF AND PUSH2 0x834 JUMPI PUSH1 0x0 DUP1 REVERT JUMPDEST DUP1 PUSH1 0x4 ADD PUSH1 0x0 CALLER PUSH20 0xFFFFFFFFFFFFFFFFFFFFFFFFFFFFFFFFFFFFFFFF AND PUSH20 0xFFFFFFFFFFFFFFFFFFFFFFFFFFFFFFFFFFFFFFFF AND DUP2 MSTORE PUSH1 0x20 ADD SWAP1 DUP2 MSTORE PUSH1 0x20 ADD PUSH1 0x0 KECCAK256 PUSH1 0x0 SWAP1 SLOAD SWAP1 PUSH2 0x100 EXP SWAP1 DIV PUSH1 0xFF AND ISZERO PUSH2 0x88D JUMPI PUSH1 0x0 DUP1 REVERT JUMPDEST PUSH1 0x1 DUP2 PUSH1 0x4 ADD PUSH1 0x0 CALLER PUSH20 0xFFFFFFFFFFFFFFFFFFFFFFFFFFFFFFFFFFFFFFFF AND PUSH20 0xFFFFFFFFFFFFFFFFFFFFFFFFFFFFFFFFFFFFFFFF AND DUP2 MSTORE PUSH1 0x20 ADD SWAP1 DUP2 MSTORE PUSH1 0x20 ADD PUSH1 0x0 KECCAK256 PUSH1 0x0 PUSH2 0x100 EXP DUP2 SLOAD DUP2 PUSH1 0xFF MUL NOT AND SWAP1 DUP4 ISZERO ISZERO MUL OR SWAP1 SSTORE POP DUP1 PUSH1 0x3 ADD PUSH1 0x0 DUP2 SLOAD DUP1 SWAP3 SWAP2 SWAP1 PUSH2 0x8FC SWAP1 PUSH2 0xF5F JUMP JUMPDEST SWAP2 SWAP1 POP SSTORE POP POP POP JUMP JUMPDEST DUP3 DUP1 SLOAD PUSH2 0x911 SWAP1 PUSH2 0xF2D JUMP JUMPDEST SWAP1 PUSH1 0x0 MSTORE PUSH1 0x20 PUSH1 0x0 KECCAK256 SWAP1 PUSH1 0x1F ADD PUSH1 0x20 SWAP1 DIV DUP2 ADD SWAP3 DUP3 PUSH2 0x933 JUMPI PUSH1 0x0 DUP6 SSTORE PUSH2 0x97A JUMP JUMPDEST DUP3 PUSH1 0x1F LT PUSH2 0x94C JUMPI DUP1 MLOAD PUSH1 0xFF NOT AND DUP4 DUP1 ADD OR DUP6 SSTORE PUSH2 0x97A JUMP JUMPDEST DUP3 DUP1 ADD PUSH1 0x1 ADD DUP6 SSTORE DUP3 ISZERO PUSH2 0x97A JUMPI SWAP2 DUP3 ADD JUMPDEST DUP3 DUP2 GT ISZERO PUSH2 0x979 JUMPI DUP3 MLOAD DUP3 SSTORE SWAP2 PUSH1 0x20 ADD SWAP2 SWAP1 PUSH1 0x1 ADD SWAP1 PUSH2 0x95E JUMP JUMPDEST JUMPDEST POP SWAP1 POP PUSH2 0x987 SWAP2 SWAP1 PUSH2 0x98B JUMP JUMPDEST POP SWAP1 JUMP JUMPDEST JUMPDEST DUP1 DUP3 GT ISZERO PUSH2 0x9A4 JUMPI PUSH1 0x0 DUP2 PUSH1 0x0 SWAP1 SSTORE POP PUSH1 0x1 ADD PUSH2 0x98C JUMP JUMPDEST POP SWAP1 JUMP JUMPDEST PUSH1 0x0 PUSH1 0x40 MLOAD SWAP1 POP SWAP1 JUMP JUMPDEST PUSH1 0x0 DUP1 REVERT JUMPDEST PUSH1 0x0 DUP1 REVERT JUMPDEST PUSH1 0x0 DUP2 SWAP1 POP SWAP2 SWAP1 POP JUMP JUMPDEST PUSH2 0x9CF DUP2 PUSH2 0x9BC JUMP JUMPDEST DUP2 EQ PUSH2 0x9DA JUMPI PUSH1 0x0 DUP1 REVERT JUMPDEST POP JUMP JUMPDEST PUSH1 0x0 DUP2 CALLDATALOAD SWAP1 POP PUSH2 0x9EC DUP2 PUSH2 0x9C6 JUMP JUMPDEST SWAP3 SWAP2 POP POP JUMP JUMPDEST PUSH1 0x0 PUSH1 0x20 DUP3 DUP5 SUB SLT ISZERO PUSH2 0xA08 JUMPI PUSH2 0xA07 PUSH2 0x9B2 JUMP JUMPDEST JUMPDEST PUSH1 0x0 PUSH2 0xA16 DUP5 DUP3 DUP6 ADD PUSH2 0x9DD JUMP JUMPDEST SWAP2 POP POP SWAP3 SWAP2 POP POP JUMP JUMPDEST PUSH1 0x0 PUSH20 0xFFFFFFFFFFFFFFFFFFFFFFFFFFFFFFFFFFFFFFFF DUP3 AND SWAP1 POP SWAP2 SWAP1 POP JUMP JUMPDEST PUSH1 0x0 PUSH2 0xA4A DUP3 PUSH2 0xA1F JUMP JUMPDEST SWAP1 POP SWAP2 SWAP1 POP JUMP JUMPDEST PUSH2 0xA5A DUP2 PUSH2 0xA3F JUMP JUMPDEST DUP2 EQ PUSH2 0xA65 JUMPI PUSH1 0x0 DUP1 REVERT JUMPDEST POP JUMP JUMPDEST PUSH1 0x0 DUP2 CALLDATALOAD SWAP1 POP PUSH2 0xA77 DUP2 PUSH2 0xA51 JUMP JUMPDEST SWAP3 SWAP2 POP POP JUMP JUMPDEST PUSH1 0x0 PUSH1 0x20 DUP3 DUP5 SUB SLT ISZERO PUSH2 0xA93 JUMPI PUSH2 0xA92 PUSH2 0x9B2 JUMP JUMPDEST JUMPDEST PUSH1 0x0 PUSH2 0xAA1 DUP5 DUP3 DUP6 ADD PUSH2 0xA68 JUMP JUMPDEST SWAP2 POP POP SWAP3 SWAP2 POP POP JUMP JUMPDEST PUSH1 0x0 DUP2 ISZERO ISZERO SWAP1 POP SWAP2 SWAP1 POP JUMP JUMPDEST PUSH2 0xABF DUP2 PUSH2 0xAAA JUMP JUMPDEST DUP3 MSTORE POP POP JUMP JUMPDEST PUSH1 0x0 PUSH1 0x20 DUP3 ADD SWAP1 POP PUSH2 0xADA PUSH1 0x0 DUP4 ADD DUP5 PUSH2 0xAB6 JUMP JUMPDEST SWAP3 SWAP2 POP POP JUMP JUMPDEST PUSH2 0xAE9 DUP2 PUSH2 0x9BC JUMP JUMPDEST DUP3 MSTORE POP POP JUMP JUMPDEST PUSH1 0x0 PUSH1 0x20 DUP3 ADD SWAP1 POP PUSH2 0xB04 PUSH1 0x0 DUP4 ADD DUP5 PUSH2 0xAE0 JUMP JUMPDEST SWAP3 SWAP2 POP POP JUMP JUMPDEST PUSH2 0xB13 DUP2 PUSH2 0xA3F JUMP JUMPDEST DUP3 MSTORE POP POP JUMP JUMPDEST PUSH1 0x0 PUSH1 0xA0 DUP3 ADD SWAP1 POP PUSH2 0xB2E PUSH1 0x0 DUP4 ADD DUP9 PUSH2 0xAE0 JUMP JUMPDEST PUSH2 0xB3B PUSH1 0x20 DUP4 ADD DUP8 PUSH2 0xAE0 JUMP JUMPDEST PUSH2 0xB48 PUSH1 0x40 DUP4 ADD DUP7 PUSH2 0xAE0 JUMP JUMPDEST PUSH2 0xB55 PUSH1 0x60 DUP4 ADD DUP6 PUSH2 0xAE0 JUMP JUMPDEST PUSH2 0xB62 PUSH1 0x80 DUP4 ADD DUP5 PUSH2 0xB0A JUMP JUMPDEST SWAP7 SWAP6 POP POP POP POP POP POP JUMP JUMPDEST PUSH1 0x0 PUSH1 0x20 DUP3 ADD SWAP1 POP PUSH2 0xB81 PUSH1 0x0 DUP4 ADD DUP5 PUSH2 0xB0A JUMP JUMPDEST SWAP3 SWAP2 POP POP JUMP JUMPDEST PUSH1 0x0 DUP2 MLOAD SWAP1 POP SWAP2 SWAP1 POP JUMP JUMPDEST PUSH1 0x0 DUP3 DUP3 MSTORE PUSH1 0x20 DUP3 ADD SWAP1 POP SWAP3 SWAP2 POP POP JUMP JUMPDEST PUSH1 0x0 JUMPDEST DUP4 DUP2 LT ISZERO PUSH2 0xBC1 JUMPI DUP1 DUP3 ADD MLOAD DUP2 DUP5 ADD MSTORE PUSH1 0x20 DUP2 ADD SWAP1 POP PUSH2 0xBA6 JUMP JUMPDEST DUP4 DUP2 GT ISZERO PUSH2 0xBD0 JUMPI PUSH1 0x0 DUP5 DUP5 ADD MSTORE JUMPDEST POP POP POP POP JUMP JUMPDEST PUSH1 0x0 PUSH1 0x1F NOT PUSH1 0x1F DUP4 ADD AND SWAP1 POP SWAP2 SWAP1 POP JUMP JUMPDEST PUSH1 0x0 PUSH2 0xBF2 DUP3 PUSH2 0xB87 JUMP JUMPDEST PUSH2 0xBFC DUP2 DUP6 PUSH2 0xB92 JUMP JUMPDEST SWAP4 POP PUSH2 0xC0C DUP2 DUP6 PUSH1 0x20 DUP7 ADD PUSH2 0xBA3 JUMP JUMPDEST PUSH2 0xC15 DUP2 PUSH2 0xBD6 JUMP JUMPDEST DUP5 ADD SWAP2 POP POP SWAP3 SWAP2 POP POP JUMP JUMPDEST PUSH1 0x0 PUSH1 0xA0 DUP3 ADD SWAP1 POP DUP2 DUP2 SUB PUSH1 0x0 DUP4 ADD MSTORE PUSH2 0xC3A DUP2 DUP9 PUSH2 0xBE7 JUMP JUMPDEST SWAP1 POP PUSH2 0xC49 PUSH1 0x20 DUP4 ADD DUP8 PUSH2 0xAE0 JUMP JUMPDEST PUSH2 0xC56 PUSH1 0x40 DUP4 ADD DUP7 PUSH2 0xB0A JUMP JUMPDEST PUSH2 0xC63 PUSH1 0x60 DUP4 ADD DUP6 PUSH2 0xAB6 JUMP JUMPDEST PUSH2 0xC70 PUSH1 0x80 DUP4 ADD DUP5 PUSH2 0xAE0 JUMP JUMPDEST SWAP7 SWAP6 POP POP POP POP POP POP JUMP JUMPDEST PUSH1 0x0 DUP1 REVERT JUMPDEST PUSH1 0x0 DUP1 REVERT JUMPDEST PUSH32 0x4E487B7100000000000000000000000000000000000000000000000000000000 PUSH1 0x0 MSTORE PUSH1 0x41 PUSH1 0x4 MSTORE PUSH1 0x24 PUSH1 0x0 REVERT JUMPDEST PUSH2 0xCBC DUP3 PUSH2 0xBD6 JUMP JUMPDEST DUP2 ADD DUP2 DUP2 LT PUSH8 0xFFFFFFFFFFFFFFFF DUP3 GT OR ISZERO PUSH2 0xCDB JUMPI PUSH2 0xCDA PUSH2 0xC84 JUMP JUMPDEST JUMPDEST DUP1 PUSH1 0x40 MSTORE POP POP POP JUMP JUMPDEST PUSH1 0x0 PUSH2 0xCEE PUSH2 0x9A8 JUMP JUMPDEST SWAP1 POP PUSH2 0xCFA DUP3 DUP3 PUSH2 0xCB3 JUMP JUMPDEST SWAP2 SWAP1 POP JUMP JUMPDEST PUSH1 0x0 PUSH8 0xFFFFFFFFFFFFFFFF DUP3 GT ISZERO PUSH2 0xD1A JUMPI PUSH2 0xD19 PUSH2 0xC84 JUMP JUMPDEST JUMPDEST PUSH2 0xD23 DUP3 PUSH2 0xBD6 JUMP JUMPDEST SWAP1 POP PUSH1 0x20 DUP2 ADD SWAP1 POP SWAP2 SWAP1 POP JUMP JUMPDEST DUP3 DUP2 DUP4 CALLDATACOPY PUSH1 0x0 DUP4 DUP4 ADD MSTORE POP POP POP JUMP JUMPDEST PUSH1 0x0 PUSH2 0xD52 PUSH2 0xD4D DUP5 PUSH2 0xCFF JUMP JUMPDEST PUSH2 0xCE4 JUMP JUMPDEST SWAP1 POP DUP3 DUP2 MSTORE PUSH1 0x20 DUP2 ADD DUP5 DUP5 DUP5 ADD GT ISZERO PUSH2 0xD6E JUMPI PUSH2 0xD6D PUSH2 0xC7F JUMP JUMPDEST JUMPDEST PUSH2 0xD79 DUP5 DUP3 DUP6 PUSH2 0xD30 JUMP JUMPDEST POP SWAP4 SWAP3 POP POP POP JUMP JUMPDEST PUSH1 0x0 DUP3 PUSH1 0x1F DUP4 ADD SLT PUSH2 0xD96 JUMPI PUSH2 0xD95 PUSH2 0xC7A JUMP JUMPDEST JUMPDEST DUP2 CALLDATALOAD PUSH2 0xDA6 DUP5 DUP3 PUSH1 0x20 DUP7 ADD PUSH2 0xD3F JUMP JUMPDEST SWAP2 POP POP SWAP3 SWAP2 POP POP JUMP JUMPDEST PUSH1 0x0 DUP1 PUSH1 0x0 PUSH1 0x60 DUP5 DUP7 SUB SLT ISZERO PUSH2 0xDC8 JUMPI PUSH2 0xDC7 PUSH2 0x9B2 JUMP JUMPDEST JUMPDEST PUSH1 0x0 DUP5 ADD CALLDATALOAD PUSH8 0xFFFFFFFFFFFFFFFF DUP2 GT ISZERO PUSH2 0xDE6 JUMPI PUSH2 0xDE5 PUSH2 0x9B7 JUMP JUMPDEST JUMPDEST PUSH2 0xDF2 DUP7 DUP3 DUP8 ADD PUSH2 0xD81 JUMP JUMPDEST SWAP4 POP POP PUSH1 0x20 PUSH2 0xE03 DUP7 DUP3 DUP8 ADD PUSH2 0x9DD JUMP JUMPDEST SWAP3 POP POP PUSH1 0x40 PUSH2 0xE14 DUP7 DUP3 DUP8 ADD PUSH2 0xA68 JUMP JUMPDEST SWAP2 POP POP SWAP3 POP SWAP3 POP SWAP3 JUMP JUMPDEST PUSH1 0x0 PUSH1 0x20 DUP3 ADD SWAP1 POP DUP2 DUP2 SUB PUSH1 0x0 DUP4 ADD MSTORE PUSH2 0xE38 DUP2 DUP5 PUSH2 0xBE7 JUMP JUMPDEST SWAP1 POP SWAP3 SWAP2 POP POP JUMP JUMPDEST PUSH32 0x4E487B7100000000000000000000000000000000000000000000000000000000 PUSH1 0x0 MSTORE PUSH1 0x32 PUSH1 0x4 MSTORE PUSH1 0x24 PUSH1 0x0 REVERT JUMPDEST PUSH32 0x4E487B7100000000000000000000000000000000000000000000000000000000 PUSH1 0x0 MSTORE PUSH1 0x12 PUSH1 0x4 MSTORE PUSH1 0x24 PUSH1 0x0 REVERT JUMPDEST PUSH32 0x4E487B7100000000000000000000000000000000000000000000000000000000 PUSH1 0x0 MSTORE PUSH1 0x11 PUSH1 0x4 MSTORE PUSH1 0x24 PUSH1 0x0 REVERT JUMPDEST PUSH1 0x0 PUSH2 0xED8 DUP3 PUSH2 0x9BC JUMP JUMPDEST SWAP2 POP PUSH2 0xEE3 DUP4 PUSH2 0x9BC JUMP JUMPDEST SWAP3 POP DUP3 PUSH2 0xEF3 JUMPI PUSH2 0xEF2 PUSH2 0xE6F JUMP JUMPDEST JUMPDEST DUP3 DUP3 DIV SWAP1 POP SWAP3 SWAP2 POP POP JUMP JUMPDEST PUSH32 0x4E487B7100000000000000000000000000000000000000000000000000000000 PUSH1 0x0 MSTORE PUSH1 0x22 PUSH1 0x4 MSTORE PUSH1 0x24 PUSH1 0x0 REVERT JUMPDEST PUSH1 0x0 PUSH1 0x2 DUP3 DIV SWAP1 POP PUSH1 0x1 DUP3 AND DUP1 PUSH2 0xF45 JUMPI PUSH1 0x7F DUP3 AND SWAP2 POP JUMPDEST PUSH1 0x20 DUP3 LT DUP2 EQ ISZERO PUSH2 0xF59 JUMPI PUSH2 0xF58 PUSH2 0xEFE JUMP JUMPDEST JUMPDEST POP SWAP2 SWAP1 POP JUMP JUMPDEST PUSH1 0x0 PUSH2 0xF6A DUP3 PUSH2 0x9BC JUMP JUMPDEST SWAP2 POP PUSH32 0xFFFFFFFFFFFFFFFFFFFFFFFFFFFFFFFFFFFFFFFFFFFFFFFFFFFFFFFFFFFFFFFF DUP3 EQ ISZERO PUSH2 0xF9D JUMPI PUSH2 0xF9C PUSH2 0xE9E JUMP JUMPDEST JUMPDEST PUSH1 0x1 DUP3 ADD SWAP1 POP SWAP2 SWAP1 POP JUMP INVALID LOG2 PUSH5 0x6970667358 0x22 SLT KECCAK256 PUSH17 0xC3174BD7157347144390DA2238B6E3943A 0xE0 MSTORE ADDRESS 0xAA 0xE8 0xE3 DUP9 MSTORE SWAP5 0xF 0xD0 0xF6 STATICCALL 0xD0 PUSH5 0x736F6C6343 STOP ADDMOD MULMOD STOP CALLER LOG2 PUSH5 0x6970667358 0x22 SLT KECCAK256 CALLDATASIZE EXTCODEHASH 0xB4 0x5D PUSH3 0x40E438 0xD4 0xB4 MSTORE OR 0x4D EXTCODESIZE 0xCB DUP12 PUSH2 0x3D1B SWAP10 0x22 0x2C CALLDATASIZE JUMP SWAP7 RETURN 0xF7 0xF8 SWAP2 0xEB RETURN 0xD3 PUSH5 0x736F6C6343 STOP ADDMOD MULMOD STOP CALLER "},"gasEstimates":{"creation":{"codeDepositCost":"1401600","executionCost":"1458","totalCost":"1403058"},"external":{"createCampaign(uint256,string)":"infinite","deployedCampaigns(uint256)":"4934","getDeployedCampaigns()":"infinite"}},"methodIdentifiers":{"createCampaign(uint256,string)":"4220d656","deployedCampaigns(uint256)":"339d50a5","getDeployedCampaigns()":"4acb9d4f"}},"storageLayout":{"storage":[{"astId":4,"contract":"Campaing.sol:CampaignFactory","label":"deployedCampaigns","offset":0,"slot":"0","type":"t_array(t_address)dyn_storage"}],"types":{"t_address":{"encoding":"inplace","label":"address","numberOfBytes":"20"},"t_array(t_address)dyn_storage":{"base":"t_address","encoding":"dynamic_array","label":"address[]","numberOfBytes":"32"}}},"userdoc":{"kind":"user","methods":{},"version":1}}